Archive member included to satisfy reference by file (symbol)

/usr/lib/gcc/arm-none-eabi/12.1.0/thumb/v6-m/nofp/libgcc.a(_dvmd_tls.o)
                              CMakeFiles/HSU.dir/usr/share/pico-sdk/src/rp2_common/pico_divider/divider.S.obj (__aeabi_idiv0)
/usr/lib/gcc/arm-none-eabi/12.1.0/../../../../arm-none-eabi/lib/thumb/v6-m/nofp/libg.a(lib_a-atexit.o)
                              /usr/lib/gcc/arm-none-eabi/12.1.0/../../../../arm-none-eabi/lib/thumb/v6-m/nofp/crt0.o (atexit)
/usr/lib/gcc/arm-none-eabi/12.1.0/../../../../arm-none-eabi/lib/thumb/v6-m/nofp/libg.a(lib_a-calloc.o)
                              CMakeFiles/HSU.dir/usr/share/pico-sdk/src/rp2_common/pico_malloc/pico_malloc.c.obj (calloc)
/usr/lib/gcc/arm-none-eabi/12.1.0/../../../../arm-none-eabi/lib/thumb/v6-m/nofp/libg.a(lib_a-callocr.o)
                              /usr/lib/gcc/arm-none-eabi/12.1.0/../../../../arm-none-eabi/lib/thumb/v6-m/nofp/libg.a(lib_a-calloc.o) (_calloc_r)
/usr/lib/gcc/arm-none-eabi/12.1.0/../../../../arm-none-eabi/lib/thumb/v6-m/nofp/libg.a(lib_a-ctype_.o)
                              CMakeFiles/HSU.dir/usr/share/pico-sdk/lib/tinyusb/src/tusb.c.obj (_ctype_)
/usr/lib/gcc/arm-none-eabi/12.1.0/../../../../arm-none-eabi/lib/thumb/v6-m/nofp/libg.a(lib_a-errno.o)
                              /usr/lib/gcc/arm-none-eabi/12.1.0/../../../../arm-none-eabi/lib/thumb/v6-m/nofp/libg.a(lib_a-callocr.o) (__errno)
/usr/lib/gcc/arm-none-eabi/12.1.0/../../../../arm-none-eabi/lib/thumb/v6-m/nofp/libg.a(lib_a-fini.o)
                              /usr/lib/gcc/arm-none-eabi/12.1.0/../../../../arm-none-eabi/lib/thumb/v6-m/nofp/crt0.o (__libc_fini_array)
/usr/lib/gcc/arm-none-eabi/12.1.0/../../../../arm-none-eabi/lib/thumb/v6-m/nofp/libg.a(lib_a-impure.o)
                              /usr/lib/gcc/arm-none-eabi/12.1.0/../../../../arm-none-eabi/lib/thumb/v6-m/nofp/libg.a(lib_a-calloc.o) (_impure_ptr)
/usr/lib/gcc/arm-none-eabi/12.1.0/../../../../arm-none-eabi/lib/thumb/v6-m/nofp/libg.a(lib_a-init.o)
                              /usr/lib/gcc/arm-none-eabi/12.1.0/../../../../arm-none-eabi/lib/thumb/v6-m/nofp/crt0.o (__libc_init_array)
/usr/lib/gcc/arm-none-eabi/12.1.0/../../../../arm-none-eabi/lib/thumb/v6-m/nofp/libg.a(lib_a-malloc.o)
                              CMakeFiles/HSU.dir/usr/share/pico-sdk/src/rp2_common/pico_malloc/pico_malloc.c.obj (malloc)
/usr/lib/gcc/arm-none-eabi/12.1.0/../../../../arm-none-eabi/lib/thumb/v6-m/nofp/libg.a(lib_a-mallocr.o)
                              /usr/lib/gcc/arm-none-eabi/12.1.0/../../../../arm-none-eabi/lib/thumb/v6-m/nofp/libg.a(lib_a-callocr.o) (_malloc_r)
/usr/lib/gcc/arm-none-eabi/12.1.0/../../../../arm-none-eabi/lib/thumb/v6-m/nofp/libg.a(lib_a-mlock.o)
                              /usr/lib/gcc/arm-none-eabi/12.1.0/../../../../arm-none-eabi/lib/thumb/v6-m/nofp/libg.a(lib_a-mallocr.o) (__malloc_lock)
/usr/lib/gcc/arm-none-eabi/12.1.0/../../../../arm-none-eabi/lib/thumb/v6-m/nofp/libg.a(lib_a-sbrkr.o)
                              /usr/lib/gcc/arm-none-eabi/12.1.0/../../../../arm-none-eabi/lib/thumb/v6-m/nofp/libg.a(lib_a-mallocr.o) (_sbrk_r)
/usr/lib/gcc/arm-none-eabi/12.1.0/../../../../arm-none-eabi/lib/thumb/v6-m/nofp/libg.a(lib_a-strlen-stub.o)
                              CMakeFiles/HSU.dir/usr/share/pico-sdk/src/rp2_common/pico_stdio/stdio.c.obj (strlen)
/usr/lib/gcc/arm-none-eabi/12.1.0/../../../../arm-none-eabi/lib/thumb/v6-m/nofp/libg.a(lib_a-__atexit.o)
                              /usr/lib/gcc/arm-none-eabi/12.1.0/../../../../arm-none-eabi/lib/thumb/v6-m/nofp/libg.a(lib_a-atexit.o) (__register_exitproc)
/usr/lib/gcc/arm-none-eabi/12.1.0/../../../../arm-none-eabi/lib/thumb/v6-m/nofp/libg.a(lib_a-__call_atexit.o)
                              /usr/lib/gcc/arm-none-eabi/12.1.0/../../../../arm-none-eabi/lib/thumb/v6-m/nofp/libg.a(lib_a-__atexit.o) (__atexit_recursive_mutex)
/usr/lib/gcc/arm-none-eabi/12.1.0/../../../../arm-none-eabi/lib/thumb/v6-m/nofp/libg.a(lib_a-freer.o)
                              /usr/lib/gcc/arm-none-eabi/12.1.0/../../../../arm-none-eabi/lib/thumb/v6-m/nofp/libg.a(lib_a-malloc.o) (_free_r)
/usr/lib/gcc/arm-none-eabi/12.1.0/../../../../arm-none-eabi/lib/thumb/v6-m/nofp/libg.a(lib_a-lock.o)
                              /usr/lib/gcc/arm-none-eabi/12.1.0/../../../../arm-none-eabi/lib/thumb/v6-m/nofp/libg.a(lib_a-mlock.o) (__retarget_lock_acquire_recursive)
/usr/lib/gcc/arm-none-eabi/12.1.0/../../../../arm-none-eabi/lib/thumb/v6-m/nofp/libg.a(lib_a-reent.o)
                              /usr/lib/gcc/arm-none-eabi/12.1.0/../../../../arm-none-eabi/lib/thumb/v6-m/nofp/libg.a(lib_a-sbrkr.o) (errno)

Discarded input sections

 .text          0x0000000000000000        0x0 /usr/lib/gcc/arm-none-eabi/12.1.0/thumb/v6-m/nofp/crti.o
 .data          0x0000000000000000        0x0 /usr/lib/gcc/arm-none-eabi/12.1.0/thumb/v6-m/nofp/crti.o
 .bss           0x0000000000000000        0x0 /usr/lib/gcc/arm-none-eabi/12.1.0/thumb/v6-m/nofp/crti.o
 .text          0x0000000000000000        0x0 /usr/lib/gcc/arm-none-eabi/12.1.0/thumb/v6-m/nofp/crtbegin.o
 .data          0x0000000000000000        0x0 /usr/lib/gcc/arm-none-eabi/12.1.0/thumb/v6-m/nofp/crtbegin.o
 .bss           0x0000000000000000        0x0 /usr/lib/gcc/arm-none-eabi/12.1.0/thumb/v6-m/nofp/crtbegin.o
 .rodata.all_implied_fbits
                0x0000000000000000       0x24 /usr/lib/gcc/arm-none-eabi/12.1.0/thumb/v6-m/nofp/crtbegin.o
 .fini_array    0x0000000000000000        0x4 /usr/lib/gcc/arm-none-eabi/12.1.0/thumb/v6-m/nofp/crtbegin.o
 .data.__dso_handle
                0x0000000000000000        0x4 /usr/lib/gcc/arm-none-eabi/12.1.0/thumb/v6-m/nofp/crtbegin.o
 .text.__do_global_dtors_aux
                0x0000000000000000       0x28 /usr/lib/gcc/arm-none-eabi/12.1.0/thumb/v6-m/nofp/crtbegin.o
 .bss.completed.1
                0x0000000000000000        0x1 /usr/lib/gcc/arm-none-eabi/12.1.0/thumb/v6-m/nofp/crtbegin.o
 .text          0x0000000000000000       0x74 /usr/lib/gcc/arm-none-eabi/12.1.0/../../../../arm-none-eabi/lib/thumb/v6-m/nofp/crt0.o
 .data          0x0000000000000000        0x0 /usr/lib/gcc/arm-none-eabi/12.1.0/../../../../arm-none-eabi/lib/thumb/v6-m/nofp/crt0.o
 .bss           0x0000000000000000        0x0 /usr/lib/gcc/arm-none-eabi/12.1.0/../../../../arm-none-eabi/lib/thumb/v6-m/nofp/crt0.o
Memory Configuration

Name             Origin             Length             Attributes
FLASH            0x0000000010000000 0x0000000000200000 xr
RAM              0x0000000020000000 0x0000000000040000 xrw
SCRATCH_X        0x0000000020040000 0x0000000000001000 xrw
SCRATCH_Y        0x0000000020041000 0x0000000000001000 xrw
*default*        0x0000000000000000 0xffffffffffffffff

Linker script and memory map

LOAD /usr/lib/gcc/arm-none-eabi/12.1.0/thumb/v6-m/nofp/crti.o
LOAD /usr/lib/gcc/arm-none-eabi/12.1.0/thumb/v6-m/nofp/crtbegin.o
LOAD /usr/lib/gcc/arm-none-eabi/12.1.0/../../../../arm-none-eabi/lib/thumb/v6-m/nofp/crt0.o

.flash_begin    0x0000000010000000        0x0
                0x0000000010000000                __flash_binary_start = .

.boot2          0x0000000010000000      0x100
                0x0000000010000000                __boot2_start__ = .
 *(.boot2)
 .boot2         0x0000000010000000      0x100 /tmp/cc5V2RVt.o
                0x0000000010000100                __boot2_end__ = .
                0x0000000000000001                ASSERT (((__boot2_end__ - __boot2_start__) == 0x100), ERROR: Pico second stage bootloader must be 256 bytes in size)

.text           0x0000000010000100     0x76d0
                0x0000000010000100                __logical_binary_start = .
 *(.vectors)
 .vectors       0x0000000010000100       0xd4 CMakeFiles/HSU.dir/usr/share/pico-sdk/src/rp2_common/pico_standard_link/crt0.S.obj
                0x0000000010000100                __vectors
                0x0000000010000100                __VECTOR_TABLE
                0x00000000100001c0                isr_invalid
                0x00000000100001c0                __default_isrs_start
                0x00000000100001c2                isr_nmi
                0x00000000100001c4                isr_hardfault
                0x00000000100001c6                isr_svcall
                0x00000000100001c8                isr_pendsv
                0x00000000100001ca                isr_systick
                0x00000000100001cc                isr_irq30
                0x00000000100001cc                __unhandled_user_irq
                0x00000000100001cc                isr_irq13
                0x00000000100001cc                isr_irq27
                0x00000000100001cc                isr_irq31
                0x00000000100001cc                isr_irq5
                0x00000000100001cc                isr_irq11
                0x00000000100001cc                isr_irq23
                0x00000000100001cc                isr_irq18
                0x00000000100001cc                isr_irq28
                0x00000000100001cc                isr_irq19
                0x00000000100001cc                isr_irq0
                0x00000000100001cc                isr_irq6
                0x00000000100001cc                isr_irq22
                0x00000000100001cc                isr_irq17
                0x00000000100001cc                isr_irq14
                0x00000000100001cc                isr_irq2
                0x00000000100001cc                isr_irq10
                0x00000000100001cc                isr_irq8
                0x00000000100001cc                isr_irq24
                0x00000000100001cc                isr_irq1
                0x00000000100001cc                isr_irq7
                0x00000000100001cc                isr_irq21
                0x00000000100001cc                isr_irq20
                0x00000000100001cc                isr_irq15
                0x00000000100001cc                isr_irq25
                0x00000000100001cc                isr_irq4
                0x00000000100001cc                isr_irq16
                0x00000000100001cc                isr_irq29
                0x00000000100001cc                isr_irq26
                0x00000000100001cc                __default_isrs_end
                0x00000000100001cc                isr_irq3
                0x00000000100001cc                isr_irq12
                0x00000000100001cc                isr_irq9
                0x00000000100001d2                unhandled_user_irq_num_in_r0
 *(.binary_info_header)
 .binary_info_header
                0x00000000100001d4       0x14 CMakeFiles/HSU.dir/usr/share/pico-sdk/src/rp2_common/pico_standard_link/crt0.S.obj
                0x00000000100001e8                __binary_info_header_end = .
 *(.reset)
 .reset         0x00000000100001e8       0xa8 CMakeFiles/HSU.dir/usr/share/pico-sdk/src/rp2_common/pico_standard_link/crt0.S.obj
                0x00000000100001e8                _entry_point
                0x0000000010000266                __get_current_exception
 .reset         0x0000000010000290       0x30 CMakeFiles/HSU.dir/usr/share/pico-sdk/src/rp2_common/pico_standard_link/binary_info.c.obj
 *(.init)
 .init          0x00000000100002c0        0x4 /usr/lib/gcc/arm-none-eabi/12.1.0/thumb/v6-m/nofp/crti.o
                0x00000000100002c0                _init
 *(EXCLUDE_FILE(*libm.a: *libc.a:*lib_a-mem*.o *libgcc.a:) .text*)
 .text.frame_dummy
                0x00000000100002c4       0x20 /usr/lib/gcc/arm-none-eabi/12.1.0/thumb/v6-m/nofp/crtbegin.o
 .text.uart_getc
                0x00000000100002e4       0x24 CMakeFiles/HSU.dir/HSU.c.obj
 .text.get_user
                0x0000000010000308        0xc CMakeFiles/HSU.dir/HSU.c.obj
                0x0000000010000308                get_user
 .text.get_permission
                0x0000000010000314        0xc CMakeFiles/HSU.dir/HSU.c.obj
                0x0000000010000314                get_permission
 .text.get_inOrOut
                0x0000000010000320        0xc CMakeFiles/HSU.dir/HSU.c.obj
                0x0000000010000320                get_inOrOut
 .text.HSU_Read
                0x000000001000032c       0x10 CMakeFiles/HSU.dir/HSU.c.obj
                0x000000001000032c                HSU_Read
 .text.HSU_Write
                0x000000001000033c       0x2c CMakeFiles/HSU.dir/HSU.c.obj
                0x000000001000033c                HSU_Write
 .text.getDcs   0x0000000010000368       0x1a CMakeFiles/HSU.dir/HSU.c.obj
                0x0000000010000368                getDcs
 *fill*         0x0000000010000382        0x2 
 .text.HSU_WakeUp
                0x0000000010000384       0x60 CMakeFiles/HSU.dir/HSU.c.obj
                0x0000000010000384                HSU_WakeUp
 .text.HSU_Sleep
                0x00000000100003e4       0x60 CMakeFiles/HSU.dir/HSU.c.obj
                0x00000000100003e4                HSU_Sleep
 .text.HSU_GetFwVer
                0x0000000010000444       0x60 CMakeFiles/HSU.dir/HSU.c.obj
                0x0000000010000444                HSU_GetFwVer
 .text.HSU_Init_Transaction
                0x00000000100004a4       0x6c CMakeFiles/HSU.dir/HSU.c.obj
                0x00000000100004a4                HSU_Init_Transaction
 .text.HSU_AuthUID
                0x0000000010000510       0xc4 CMakeFiles/HSU.dir/HSU.c.obj
                0x0000000010000510                HSU_AuthUID
 .text.HSU_ReadAddress
                0x00000000100005d4       0x94 CMakeFiles/HSU.dir/HSU.c.obj
                0x00000000100005d4                HSU_ReadAddress
 .text.HSU_WriteAddress
                0x0000000010000668       0xd4 CMakeFiles/HSU.dir/HSU.c.obj
                0x0000000010000668                HSU_WriteAddress
 .text.HSU_Initialize
                0x000000001000073c       0x1e CMakeFiles/HSU.dir/HSU.c.obj
                0x000000001000073c                HSU_Initialize
 .text.HSU_Initialize_Sleep
                0x000000001000075a       0x2c CMakeFiles/HSU.dir/HSU.c.obj
                0x000000001000075a                HSU_Initialize_Sleep
 *fill*         0x0000000010000786        0x2 
 .text.int_read_address_6
                0x0000000010000788       0x90 CMakeFiles/HSU.dir/HSU.c.obj
                0x0000000010000788                int_read_address_6
 .text.int_write_address_6
                0x0000000010000818       0x60 CMakeFiles/HSU.dir/HSU.c.obj
                0x0000000010000818                int_write_address_6
 .text.write_new_card_data_to_address_6
                0x0000000010000878       0x38 CMakeFiles/HSU.dir/HSU.c.obj
                0x0000000010000878                write_new_card_data_to_address_6
 .text.main     0x00000000100008b0       0xc0 CMakeFiles/HSU.dir/HSU.c.obj
                0x00000000100008b0                main
 .text.gpio_set_function
                0x0000000010000970       0x30 CMakeFiles/HSU.dir/usr/share/pico-sdk/src/rp2_common/hardware_gpio/gpio.c.obj
                0x0000000010000970                gpio_set_function
 .text.gpio_init
                0x00000000100009a0       0x16 CMakeFiles/HSU.dir/usr/share/pico-sdk/src/rp2_common/hardware_gpio/gpio.c.obj
                0x00000000100009a0                gpio_init
 *fill*         0x00000000100009b6        0x2 
 .text.hw_claim_lock
                0x00000000100009b8       0x18 CMakeFiles/HSU.dir/usr/share/pico-sdk/src/rp2_common/hardware_claim/claim.c.obj
                0x00000000100009b8                hw_claim_lock
 .text.hw_claim_unlock
                0x00000000100009d0       0x14 CMakeFiles/HSU.dir/usr/share/pico-sdk/src/rp2_common/hardware_claim/claim.c.obj
                0x00000000100009d0                hw_claim_unlock
 .text.hw_claim_or_assert
                0x00000000100009e4       0x32 CMakeFiles/HSU.dir/usr/share/pico-sdk/src/rp2_common/hardware_claim/claim.c.obj
                0x00000000100009e4                hw_claim_or_assert
 .text.hw_claim_unused_from_range
                0x0000000010000a16       0x50 CMakeFiles/HSU.dir/usr/share/pico-sdk/src/rp2_common/hardware_claim/claim.c.obj
                0x0000000010000a16                hw_claim_unused_from_range
 *fill*         0x0000000010000a66        0x2 
 .text.running_on_fpga
                0x0000000010000a68       0x14 CMakeFiles/HSU.dir/usr/share/pico-sdk/src/rp2_common/pico_platform/platform.c.obj
                0x0000000010000a68                running_on_fpga
 .text.spin_locks_reset
                0x0000000010000a7c       0x20 CMakeFiles/HSU.dir/usr/share/pico-sdk/src/rp2_common/hardware_sync/sync.c.obj
                0x0000000010000a7c                spin_locks_reset
 .text.next_striped_spin_lock_num
                0x0000000010000a9c       0x1c CMakeFiles/HSU.dir/usr/share/pico-sdk/src/rp2_common/hardware_sync/sync.c.obj
                0x0000000010000a9c                next_striped_spin_lock_num
 .text.spin_lock_claim_unused
                0x0000000010000ab8       0x24 CMakeFiles/HSU.dir/usr/share/pico-sdk/src/rp2_common/hardware_sync/sync.c.obj
                0x0000000010000ab8                spin_lock_claim_unused
 .text.uart_set_baudrate
                0x0000000010000adc       0x5c CMakeFiles/HSU.dir/usr/share/pico-sdk/src/rp2_common/hardware_uart/uart.c.obj
                0x0000000010000adc                uart_set_baudrate
 .text.uart_set_translate_crlf
                0x0000000010000b38       0x28 CMakeFiles/HSU.dir/usr/share/pico-sdk/src/rp2_common/hardware_uart/uart.c.obj
                0x0000000010000b38                uart_set_translate_crlf
 .text.uart_init
                0x0000000010000b60       0x80 CMakeFiles/HSU.dir/usr/share/pico-sdk/src/rp2_common/hardware_uart/uart.c.obj
                0x0000000010000b60                uart_init
 .text.time_reached
                0x0000000010000be0       0x28 CMakeFiles/HSU.dir/usr/share/pico-sdk/src/common/pico_time/time.c.obj
 .text.get_entry
                0x0000000010000c08       0x38 CMakeFiles/HSU.dir/usr/share/pico-sdk/src/common/pico_time/time.c.obj
 .text.timer_pool_entry_comparator
                0x0000000010000c40       0x2e CMakeFiles/HSU.dir/usr/share/pico-sdk/src/common/pico_time/time.c.obj
                0x0000000010000c40                timer_pool_entry_comparator
 *fill*         0x0000000010000c6e        0x2 
 .text.update_us_since_boot
                0x0000000010000c70       0x24 CMakeFiles/HSU.dir/usr/share/pico-sdk/src/common/pico_time/time.c.obj
 .text.delayed_by_us
                0x0000000010000c94       0x36 CMakeFiles/HSU.dir/usr/share/pico-sdk/src/common/pico_time/time.c.obj
 *fill*         0x0000000010000cca        0x2 
 .text.ph_get_node
                0x0000000010000ccc       0x30 CMakeFiles/HSU.dir/usr/share/pico-sdk/src/common/pico_time/time.c.obj
 .text.ph_contains_node
                0x0000000010000cfc       0x1e CMakeFiles/HSU.dir/usr/share/pico-sdk/src/common/pico_time/time.c.obj
 .text.ph_new_node
                0x0000000010000d1a       0x28 CMakeFiles/HSU.dir/usr/share/pico-sdk/src/common/pico_time/time.c.obj
 *fill*         0x0000000010000d42        0x2 
 .text.ph_add_child_node
                0x0000000010000d44       0x6c CMakeFiles/HSU.dir/usr/share/pico-sdk/src/common/pico_time/time.c.obj
 .text.ph_merge_nodes
                0x0000000010000db0       0x3e CMakeFiles/HSU.dir/usr/share/pico-sdk/src/common/pico_time/time.c.obj
 *fill*         0x0000000010000dee        0x2 
 .text.ph_insert_node
                0x0000000010000df0       0x3c CMakeFiles/HSU.dir/usr/share/pico-sdk/src/common/pico_time/time.c.obj
 .text.ph_free_node
                0x0000000010000e2c       0x3c CMakeFiles/HSU.dir/usr/share/pico-sdk/src/common/pico_time/time.c.obj
 .text.get_entry_id_high
                0x0000000010000e68       0x30 CMakeFiles/HSU.dir/usr/share/pico-sdk/src/common/pico_time/time.c.obj
 .text.alarm_pool_post_alloc_init
                0x0000000010000e98       0x40 CMakeFiles/HSU.dir/usr/share/pico-sdk/src/common/pico_time/time.c.obj
 .text.sleep_until_callback
                0x0000000010000ed8       0x30 CMakeFiles/HSU.dir/usr/share/pico-sdk/src/common/pico_time/time.c.obj
 .text.get_absolute_time
                0x0000000010000f08       0x22 CMakeFiles/HSU.dir/usr/share/pico-sdk/src/common/pico_time/time.c.obj
 .text.make_timeout_time_us
                0x0000000010000f2a       0x24 CMakeFiles/HSU.dir/usr/share/pico-sdk/src/common/pico_time/time.c.obj
 *fill*         0x0000000010000f4e        0x2 
 .text.add_alarm_under_lock
                0x0000000010000f50       0x94 CMakeFiles/HSU.dir/usr/share/pico-sdk/src/common/pico_time/time.c.obj
 .text.alarm_pool_alarm_callback
                0x0000000010000fe4      0x20c CMakeFiles/HSU.dir/usr/share/pico-sdk/src/common/pico_time/time.c.obj
 .text.alarm_pool_init_default
                0x00000000100011f0       0x38 CMakeFiles/HSU.dir/usr/share/pico-sdk/src/common/pico_time/time.c.obj
                0x00000000100011f0                alarm_pool_init_default
 .text.alarm_pool_get_default
                0x0000000010001228       0x2c CMakeFiles/HSU.dir/usr/share/pico-sdk/src/common/pico_time/time.c.obj
                0x0000000010001228                alarm_pool_get_default
 .text.alarm_pool_add_alarm_at
                0x0000000010001254      0x10e CMakeFiles/HSU.dir/usr/share/pico-sdk/src/common/pico_time/time.c.obj
                0x0000000010001254                alarm_pool_add_alarm_at
 .text.add_alarm_at
                0x0000000010001362       0x2e CMakeFiles/HSU.dir/usr/share/pico-sdk/src/common/pico_time/time.c.obj
 .text.alarm_pool_cancel_alarm
                0x0000000010001390       0xa0 CMakeFiles/HSU.dir/usr/share/pico-sdk/src/common/pico_time/time.c.obj
                0x0000000010001390                alarm_pool_cancel_alarm
 .text.cancel_alarm
                0x0000000010001430       0x10 CMakeFiles/HSU.dir/usr/share/pico-sdk/src/common/pico_time/time.c.obj
 .text.sleep_until
                0x0000000010001440       0xb0 CMakeFiles/HSU.dir/usr/share/pico-sdk/src/common/pico_time/time.c.obj
                0x0000000010001440                sleep_until
 .text.sleep_us
                0x00000000100014f0       0x1a CMakeFiles/HSU.dir/usr/share/pico-sdk/src/common/pico_time/time.c.obj
                0x00000000100014f0                sleep_us
 .text.sleep_ms
                0x000000001000150a       0x14 CMakeFiles/HSU.dir/usr/share/pico-sdk/src/common/pico_time/time.c.obj
                0x000000001000150a                sleep_ms
 *fill*         0x000000001000151e        0x2 
 .text.best_effort_wfe_or_timeout
                0x0000000010001520       0x38 CMakeFiles/HSU.dir/usr/share/pico-sdk/src/common/pico_time/time.c.obj
                0x0000000010001520                best_effort_wfe_or_timeout
 .text.update_us_since_boot
                0x0000000010001558       0x24 CMakeFiles/HSU.dir/usr/share/pico-sdk/src/rp2_common/hardware_timer/timer.c.obj
 .text.hardware_alarm_irq_handler
                0x000000001000157c       0x88 CMakeFiles/HSU.dir/usr/share/pico-sdk/src/rp2_common/hardware_timer/timer.c.obj
 .text.hardware_alarm_claim
                0x0000000010001604       0x18 CMakeFiles/HSU.dir/usr/share/pico-sdk/src/rp2_common/hardware_timer/timer.c.obj
                0x0000000010001604                hardware_alarm_claim
 .text.time_us_64
                0x000000001000161c       0x18 CMakeFiles/HSU.dir/usr/share/pico-sdk/src/rp2_common/hardware_timer/timer.c.obj
                0x000000001000161c                time_us_64
 .text.busy_wait_until
                0x0000000010001634       0x28 CMakeFiles/HSU.dir/usr/share/pico-sdk/src/rp2_common/hardware_timer/timer.c.obj
                0x0000000010001634                busy_wait_until
 .text.busy_wait_us
                0x000000001000165c       0x3a CMakeFiles/HSU.dir/usr/share/pico-sdk/src/rp2_common/hardware_timer/timer.c.obj
                0x000000001000165c                busy_wait_us
 *fill*         0x0000000010001696        0x2 
 .text.hardware_alarm_set_callback
                0x0000000010001698       0x90 CMakeFiles/HSU.dir/usr/share/pico-sdk/src/rp2_common/hardware_timer/timer.c.obj
                0x0000000010001698                hardware_alarm_set_callback
 .text.hardware_alarm_set_target
                0x0000000010001728       0xe8 CMakeFiles/HSU.dir/usr/share/pico-sdk/src/rp2_common/hardware_timer/timer.c.obj
                0x0000000010001728                hardware_alarm_set_target
 .text.hardware_alarm_cancel
                0x0000000010001810       0x40 CMakeFiles/HSU.dir/usr/share/pico-sdk/src/rp2_common/hardware_timer/timer.c.obj
                0x0000000010001810                hardware_alarm_cancel
 .text.lock_init
                0x0000000010001850       0x10 CMakeFiles/HSU.dir/usr/share/pico-sdk/src/common/pico_sync/lock_core.c.obj
                0x0000000010001850                lock_init
 .text.update_us_since_boot
                0x0000000010001860       0x24 CMakeFiles/HSU.dir/usr/share/pico-sdk/src/common/pico_sync/mutex.c.obj
 .text.delayed_by_ms
                0x0000000010001884       0x46 CMakeFiles/HSU.dir/usr/share/pico-sdk/src/common/pico_sync/mutex.c.obj
 .text.get_absolute_time
                0x00000000100018ca       0x22 CMakeFiles/HSU.dir/usr/share/pico-sdk/src/common/pico_sync/mutex.c.obj
 .text.make_timeout_time_ms
                0x00000000100018ec       0x20 CMakeFiles/HSU.dir/usr/share/pico-sdk/src/common/pico_sync/mutex.c.obj
 .text.mutex_init
                0x000000001000190c       0x1a CMakeFiles/HSU.dir/usr/share/pico-sdk/src/common/pico_sync/mutex.c.obj
                0x000000001000190c                mutex_init
 .text.recursive_mutex_init
                0x0000000010001926       0x1e CMakeFiles/HSU.dir/usr/share/pico-sdk/src/common/pico_sync/mutex.c.obj
                0x0000000010001926                recursive_mutex_init
 .text.critical_section_init_with_lock_num
                0x0000000010001944       0x14 CMakeFiles/HSU.dir/usr/share/pico-sdk/src/common/pico_sync/critical_section.c.obj
                0x0000000010001944                critical_section_init_with_lock_num
 .text.critical_section_init
                0x0000000010001958       0x14 CMakeFiles/HSU.dir/usr/share/pico-sdk/src/common/pico_sync/critical_section.c.obj
                0x0000000010001958                critical_section_init
 .text.ph_get_node
                0x000000001000196c       0x30 CMakeFiles/HSU.dir/usr/share/pico-sdk/src/common/pico_util/pheap.c.obj
 .text.ph_add_child_node
                0x000000001000199c       0x6c CMakeFiles/HSU.dir/usr/share/pico-sdk/src/common/pico_util/pheap.c.obj
 .text.ph_merge_nodes
                0x0000000010001a08       0x3e CMakeFiles/HSU.dir/usr/share/pico-sdk/src/common/pico_util/pheap.c.obj
 .text.ph_clear
                0x0000000010001a46       0x34 CMakeFiles/HSU.dir/usr/share/pico-sdk/src/common/pico_util/pheap.c.obj
                0x0000000010001a46                ph_clear
 .text.ph_post_alloc_init
                0x0000000010001a7a        0xe CMakeFiles/HSU.dir/usr/share/pico-sdk/src/common/pico_util/pheap.c.obj
                0x0000000010001a7a                ph_post_alloc_init
 .text.ph_merge_two_pass
                0x0000000010001a88       0x5c CMakeFiles/HSU.dir/usr/share/pico-sdk/src/common/pico_util/pheap.c.obj
                0x0000000010001a88                ph_merge_two_pass
 .text.ph_remove_any_head
                0x0000000010001ae4       0xa4 CMakeFiles/HSU.dir/usr/share/pico-sdk/src/common/pico_util/pheap.c.obj
 .text.ph_remove_head
                0x0000000010001b88       0x14 CMakeFiles/HSU.dir/usr/share/pico-sdk/src/common/pico_util/pheap.c.obj
                0x0000000010001b88                ph_remove_head
 .text.ph_remove_and_free_node
                0x0000000010001b9c       0xa0 CMakeFiles/HSU.dir/usr/share/pico-sdk/src/common/pico_util/pheap.c.obj
                0x0000000010001b9c                ph_remove_and_free_node
 .text._exit    0x0000000010001c3c        0x4 CMakeFiles/HSU.dir/usr/share/pico-sdk/src/rp2_common/pico_runtime/runtime.c.obj
                0x0000000010001c3c                _exit
 .text.exit     0x0000000010001c40        0x6 CMakeFiles/HSU.dir/usr/share/pico-sdk/src/rp2_common/pico_runtime/runtime.c.obj
                0x0000000010001c40                exit
 *fill*         0x0000000010001c46        0x2 
 .text.__assert_func
                0x0000000010001c48       0x38 CMakeFiles/HSU.dir/usr/share/pico-sdk/src/rp2_common/pico_runtime/runtime.c.obj
                0x0000000010001c48                __assert_func
 .text.runtime_init
                0x0000000010001c80       0xf8 CMakeFiles/HSU.dir/usr/share/pico-sdk/src/rp2_common/pico_runtime/runtime.c.obj
                0x0000000010001c80                runtime_init
 .text.panic    0x0000000010001d78       0x30 CMakeFiles/HSU.dir/usr/share/pico-sdk/src/rp2_common/pico_runtime/runtime.c.obj
                0x0000000010001d78                panic
 .text.clock_configure
                0x0000000010001da8      0x104 CMakeFiles/HSU.dir/usr/share/pico-sdk/src/rp2_common/hardware_clocks/clocks.c.obj
                0x0000000010001da8                clock_configure
 .text.clocks_init
                0x0000000010001eac      0x100 CMakeFiles/HSU.dir/usr/share/pico-sdk/src/rp2_common/hardware_clocks/clocks.c.obj
                0x0000000010001eac                clocks_init
 .text.clock_get_hz
                0x0000000010001fac        0xc CMakeFiles/HSU.dir/usr/share/pico-sdk/src/rp2_common/hardware_clocks/clocks.c.obj
                0x0000000010001fac                clock_get_hz
 .text.set_raw_irq_handler_and_unlock
                0x0000000010001fb8       0x28 CMakeFiles/HSU.dir/usr/share/pico-sdk/src/rp2_common/hardware_irq/irq.c.obj
 .text.resolve_branch
                0x0000000010001fe0       0x30 CMakeFiles/HSU.dir/usr/share/pico-sdk/src/rp2_common/hardware_irq/irq.c.obj
 .text.make_branch
                0x0000000010002010       0x48 CMakeFiles/HSU.dir/usr/share/pico-sdk/src/rp2_common/hardware_irq/irq.c.obj
 .text.insert_branch_and_link
                0x0000000010002058       0x40 CMakeFiles/HSU.dir/usr/share/pico-sdk/src/rp2_common/hardware_irq/irq.c.obj
 .text.irq_is_enabled
                0x0000000010002098       0x18 CMakeFiles/HSU.dir/usr/share/pico-sdk/src/rp2_common/hardware_irq/irq.c.obj
                0x0000000010002098                irq_is_enabled
 .text.irq_set_mask_enabled
                0x00000000100020b0       0x20 CMakeFiles/HSU.dir/usr/share/pico-sdk/src/rp2_common/hardware_irq/irq.c.obj
                0x00000000100020b0                irq_set_mask_enabled
 .text.irq_set_enabled
                0x00000000100020d0        0xe CMakeFiles/HSU.dir/usr/share/pico-sdk/src/rp2_common/hardware_irq/irq.c.obj
                0x00000000100020d0                irq_set_enabled
 *fill*         0x00000000100020de        0x2 
 .text.irq_set_pending
                0x00000000100020e0       0x10 CMakeFiles/HSU.dir/usr/share/pico-sdk/src/rp2_common/hardware_irq/irq.c.obj
                0x00000000100020e0                irq_set_pending
 .text.irq_get_vtable_handler
                0x00000000100020f0       0x10 CMakeFiles/HSU.dir/usr/share/pico-sdk/src/rp2_common/hardware_irq/irq.c.obj
                0x00000000100020f0                irq_get_vtable_handler
 .text.irq_set_exclusive_handler
                0x0000000010002100       0x54 CMakeFiles/HSU.dir/usr/share/pico-sdk/src/rp2_common/hardware_irq/irq.c.obj
                0x0000000010002100                irq_set_exclusive_handler
 .text.irq_remove_handler
                0x0000000010002154      0x188 CMakeFiles/HSU.dir/usr/share/pico-sdk/src/rp2_common/hardware_irq/irq.c.obj
                0x0000000010002154                irq_remove_handler
 .text.irq_add_tail_to_free_list
                0x00000000100022dc       0xf0 CMakeFiles/HSU.dir/usr/share/pico-sdk/src/rp2_common/hardware_irq/irq.c.obj
                0x00000000100022dc                irq_add_tail_to_free_list
 .text.irq_init_priorities
                0x00000000100023cc       0x1c CMakeFiles/HSU.dir/usr/share/pico-sdk/src/rp2_common/hardware_irq/irq.c.obj
                0x00000000100023cc                irq_init_priorities
 .text.pll_init
                0x00000000100023e8      0x120 CMakeFiles/HSU.dir/usr/share/pico-sdk/src/rp2_common/hardware_pll/pll.c.obj
                0x00000000100023e8                pll_init
 .text.watchdog_start_tick
                0x0000000010002508       0x10 CMakeFiles/HSU.dir/usr/share/pico-sdk/src/rp2_common/hardware_watchdog/watchdog.c.obj
                0x0000000010002508                watchdog_start_tick
 .text.watchdog_update
                0x0000000010002518       0x14 CMakeFiles/HSU.dir/usr/share/pico-sdk/src/rp2_common/hardware_watchdog/watchdog.c.obj
                0x0000000010002518                watchdog_update
 .text._watchdog_enable
                0x000000001000252c       0x78 CMakeFiles/HSU.dir/usr/share/pico-sdk/src/rp2_common/hardware_watchdog/watchdog.c.obj
                0x000000001000252c                _watchdog_enable
 .text.watchdog_reboot
                0x00000000100025a4       0x48 CMakeFiles/HSU.dir/usr/share/pico-sdk/src/rp2_common/hardware_watchdog/watchdog.c.obj
                0x00000000100025a4                watchdog_reboot
 .text.xosc_init
                0x00000000100025ec       0x28 CMakeFiles/HSU.dir/usr/share/pico-sdk/src/rp2_common/hardware_xosc/xosc.c.obj
                0x00000000100025ec                xosc_init
 .text._out_null
                0x0000000010002614        0x2 CMakeFiles/HSU.dir/usr/share/pico-sdk/src/rp2_common/pico_printf/printf.c.obj
 .text._out_fct
                0x0000000010002616        0xe CMakeFiles/HSU.dir/usr/share/pico-sdk/src/rp2_common/pico_printf/printf.c.obj
 .text._atoi    0x0000000010002624       0x24 CMakeFiles/HSU.dir/usr/share/pico-sdk/src/rp2_common/pico_printf/printf.c.obj
 .text._out_rev
                0x0000000010002648       0xae CMakeFiles/HSU.dir/usr/share/pico-sdk/src/rp2_common/pico_printf/printf.c.obj
 .text._ntoa_format
                0x00000000100026f6      0x110 CMakeFiles/HSU.dir/usr/share/pico-sdk/src/rp2_common/pico_printf/printf.c.obj
 .text._ntoa_long
                0x0000000010002806       0xbc CMakeFiles/HSU.dir/usr/share/pico-sdk/src/rp2_common/pico_printf/printf.c.obj
 .text._ntoa_long_long
                0x00000000100028c2      0x10e CMakeFiles/HSU.dir/usr/share/pico-sdk/src/rp2_common/pico_printf/printf.c.obj
 .text._etoa    0x00000000100029d0      0x420 CMakeFiles/HSU.dir/usr/share/pico-sdk/src/rp2_common/pico_printf/printf.c.obj
 .text._ftoa    0x0000000010002df0      0x354 CMakeFiles/HSU.dir/usr/share/pico-sdk/src/rp2_common/pico_printf/printf.c.obj
 .text._vsnprintf
                0x0000000010003144      0x65c CMakeFiles/HSU.dir/usr/share/pico-sdk/src/rp2_common/pico_printf/printf.c.obj
 .text.vfctprintf
                0x00000000100037a0       0x20 CMakeFiles/HSU.dir/usr/share/pico-sdk/src/rp2_common/pico_printf/printf.c.obj
                0x00000000100037a0                vfctprintf
 .text          0x00000000100037c0       0x10 CMakeFiles/HSU.dir/usr/share/pico-sdk/src/rp2_common/pico_bit_ops/bit_ops_aeabi.S.obj
 .text.rom_func_lookup
                0x00000000100037d0       0x10 CMakeFiles/HSU.dir/usr/share/pico-sdk/src/rp2_common/pico_bootrom/bootrom.c.obj
                0x00000000100037d0                rom_func_lookup
 .text.rom_data_lookup
                0x00000000100037e0       0x10 CMakeFiles/HSU.dir/usr/share/pico-sdk/src/rp2_common/pico_bootrom/bootrom.c.obj
                0x00000000100037e0                rom_data_lookup
 .text.rom_funcs_lookup
                0x00000000100037f0       0x36 CMakeFiles/HSU.dir/usr/share/pico-sdk/src/rp2_common/pico_bootrom/bootrom.c.obj
                0x00000000100037f0                rom_funcs_lookup
 *fill*         0x0000000010003826        0x2 
 .text.__wrap___aeabi_idiv
                0x0000000010003828       0x50 CMakeFiles/HSU.dir/usr/share/pico-sdk/src/rp2_common/pico_divider/divider.S.obj
                0x0000000010003828                __wrap___aeabi_idivmod
                0x0000000010003828                divmod_s32s32
                0x0000000010003828                div_s32s32
                0x0000000010003828                __wrap___aeabi_idiv
                0x0000000010003830                divmod_s32s32_unsafe
                0x000000001000385c                divmod_s32s32_savestate
 .text.__wrap___aeabi_uidiv
                0x0000000010003878       0x4c CMakeFiles/HSU.dir/usr/share/pico-sdk/src/rp2_common/pico_divider/divider.S.obj
                0x0000000010003878                __wrap___aeabi_uidiv
                0x0000000010003878                __wrap___aeabi_uidivmod
                0x0000000010003878                div_u32u32
                0x0000000010003878                divmod_u32u32
                0x0000000010003880                divmod_u32u32_unsafe
                0x00000000100038a8                divmod_u32u32_savestate
 .text.__wrap___aeabi_ldiv
                0x00000000100038c4      0x434 CMakeFiles/HSU.dir/usr/share/pico-sdk/src/rp2_common/pico_divider/divider.S.obj
                0x00000000100038c4                div_s64s64
                0x00000000100038c4                divmod_s64s64
                0x00000000100038c4                __wrap___aeabi_ldivmod
                0x00000000100038fc                div_u64u64
                0x00000000100038fc                divmod_u64u64
                0x00000000100038fc                __wrap___aeabi_uldivmod
                0x000000001000390c                divmod_u64u64_savestate
                0x0000000010003934                divmod_s64s64_unsafe
                0x00000000100039bc                divmod_u64u64_unsafe
 .text.__wrap___aeabi_darithmetic
                0x0000000010003cf8       0x80 CMakeFiles/HSU.dir/usr/share/pico-sdk/src/rp2_common/pico_double/double_aeabi.S.obj
                0x0000000010003cf8                __wrap___aeabi_drsub
                0x0000000010003cfe                __wrap___aeabi_dsub
                0x0000000010003d10                __wrap___aeabi_dadd
                0x0000000010003d22                __wrap___aeabi_ddiv
                0x0000000010003d5e                __wrap___aeabi_dmul
 .text.__wrap___aeabi_cdcmple
                0x0000000010003d78       0x6c CMakeFiles/HSU.dir/usr/share/pico-sdk/src/rp2_common/pico_double/double_aeabi.S.obj
                0x0000000010003d78                __wrap___aeabi_cdrcmple
                0x0000000010003d88                __wrap___aeabi_cdcmple
                0x0000000010003d88                __wrap___aeabi_cdcmpeq
 .text.__wrap___aeabi_dcmplt
                0x0000000010003de4        0xc CMakeFiles/HSU.dir/usr/share/pico-sdk/src/rp2_common/pico_double/double_aeabi.S.obj
                0x0000000010003de4                __wrap___aeabi_dcmplt
 .text.__wrap___aeabi_dcmple
                0x0000000010003df0       0x10 CMakeFiles/HSU.dir/usr/share/pico-sdk/src/rp2_common/pico_double/double_aeabi.S.obj
                0x0000000010003df0                __wrap___aeabi_dcmple
 .text.__wrap___aeabi_dcmpge
                0x0000000010003e00       0x10 CMakeFiles/HSU.dir/usr/share/pico-sdk/src/rp2_common/pico_double/double_aeabi.S.obj
                0x0000000010003e00                __wrap___aeabi_dcmpge
 .text.__wrap___aeabi_dcmpgt
                0x0000000010003e10        0xa CMakeFiles/HSU.dir/usr/share/pico-sdk/src/rp2_common/pico_double/double_aeabi.S.obj
                0x0000000010003e10                __wrap___aeabi_dcmpgt
 .text.__wrap___aeabi_dcmpun
                0x0000000010003e1a       0x1c CMakeFiles/HSU.dir/usr/share/pico-sdk/src/rp2_common/pico_double/double_aeabi.S.obj
                0x0000000010003e1a                __wrap___aeabi_dcmpun
 *fill*         0x0000000010003e36        0x2 
 .text.__wrap___aeabi_i2d
                0x0000000010003e38       0x38 CMakeFiles/HSU.dir/usr/share/pico-sdk/src/rp2_common/pico_double/double_aeabi.S.obj
                0x0000000010003e38                __wrap___aeabi_ui2d
                0x0000000010003e40                __wrap___aeabi_i2d
 .text.__wrap___aeabi_d2iz
                0x0000000010003e70       0x48 CMakeFiles/HSU.dir/usr/share/pico-sdk/src/rp2_common/pico_double/double_aeabi.S.obj
                0x0000000010003e70                __wrap___aeabi_d2iz
                0x0000000010003e70                double2int_z
 .text.__wrap___aeabi_d2uiz
                0x0000000010003eb8       0x18 CMakeFiles/HSU.dir/usr/share/pico-sdk/src/rp2_common/pico_double/double_aeabi.S.obj
                0x0000000010003eb8                double2uint
                0x0000000010003eb8                __wrap___aeabi_d2uiz
 .text.__aeabi_double_init
                0x0000000010003ed0       0xcc CMakeFiles/HSU.dir/usr/share/pico-sdk/src/rp2_common/pico_double/double_init_rom.c.obj
                0x0000000010003ed0                __aeabi_double_init
 .text.double_table_shim_on_use_helper
                0x0000000010003f9c       0x34 CMakeFiles/HSU.dir/usr/share/pico-sdk/src/rp2_common/pico_double/double_v1_rom_shim.S.obj
                0x0000000010003f9c                double_table_shim_on_use_helper
 .text.__wrap___aeabi_dsub
                0x0000000010003fd0       0x10 CMakeFiles/HSU.dir/usr/share/pico-sdk/src/rp2_common/pico_double/double_v1_rom_shim.S.obj
                0x0000000010003fd0                drsub_shim
                0x0000000010003fd6                dsub_shim
 .text.dadd_shim
                0x0000000010003fe0      0x15c CMakeFiles/HSU.dir/usr/share/pico-sdk/src/rp2_common/pico_double/double_v1_rom_shim.S.obj
                0x0000000010003fe0                dadd_shim
 .text.dmul_shim
                0x000000001000413c      0x15c CMakeFiles/HSU.dir/usr/share/pico-sdk/src/rp2_common/pico_double/double_v1_rom_shim.S.obj
                0x000000001000413c                dmul_shim
 .text.ddiv_shim
                0x0000000010004298      0x1b0 CMakeFiles/HSU.dir/usr/share/pico-sdk/src/rp2_common/pico_double/double_v1_rom_shim.S.obj
                0x0000000010004298                ddiv_shim
 .text.double2uint_shim
                0x0000000010004448        0xe CMakeFiles/HSU.dir/usr/share/pico-sdk/src/rp2_common/pico_double/double_v1_rom_shim.S.obj
                0x0000000010004448                double2uint_shim
                0x000000001000444a                double2ufix_shim
 *fill*         0x0000000010004456        0x2 
 .text.double2uint64_shim
                0x0000000010004458       0x70 CMakeFiles/HSU.dir/usr/share/pico-sdk/src/rp2_common/pico_double/double_v1_rom_shim.S.obj
                0x0000000010004458                double2uint64_shim
                0x000000001000445a                double2ufix64_shim
                0x000000001000447a                d2fix_a
 .text.dunpacks
                0x00000000100044c8       0x3c CMakeFiles/HSU.dir/usr/share/pico-sdk/src/rp2_common/pico_double/double_v1_rom_shim.S.obj
                0x00000000100044c8                dunpacks
 .text.__aeabi_lmul
                0x0000000010004504       0x32 CMakeFiles/HSU.dir/usr/share/pico-sdk/src/rp2_common/pico_int64_ops/pico_int64_ops_aeabi.S.obj
                0x0000000010004504                __wrap___aeabi_lmul
 *fill*         0x0000000010004536        0x2 
 .text.__aeabi_float_init
                0x0000000010004538       0xfc CMakeFiles/HSU.dir/usr/share/pico-sdk/src/rp2_common/pico_float/float_init_rom.c.obj
                0x0000000010004538                __aeabi_float_init
 .text.float_table_shim_on_use_helper
                0x0000000010004634       0x34 CMakeFiles/HSU.dir/usr/share/pico-sdk/src/rp2_common/pico_float/float_v1_rom_shim.S.obj
                0x0000000010004634                float_table_shim_on_use_helper
 .text          0x0000000010004668       0x10 CMakeFiles/HSU.dir/usr/share/pico-sdk/src/rp2_common/pico_mem_ops/mem_ops_aeabi.S.obj
                0x0000000010004668                __aeabi_mem_init
 .text.memset   0x0000000010004678        0xc CMakeFiles/HSU.dir/usr/share/pico-sdk/src/rp2_common/pico_mem_ops/mem_ops_aeabi.S.obj
                0x0000000010004678                __wrap_memset
 .text.memcpy   0x0000000010004684        0xc CMakeFiles/HSU.dir/usr/share/pico-sdk/src/rp2_common/pico_mem_ops/mem_ops_aeabi.S.obj
                0x0000000010004684                __wrap___aeabi_memcpy
                0x0000000010004684                __wrap_memcpy
 .text.time_reached
                0x0000000010004690       0x28 CMakeFiles/HSU.dir/usr/share/pico-sdk/src/rp2_common/pico_stdio/stdio.c.obj
 .text.stdio_out_chars_no_crlf
                0x00000000100046b8        0xe CMakeFiles/HSU.dir/usr/share/pico-sdk/src/rp2_common/pico_stdio/stdio.c.obj
 *fill*         0x00000000100046c6        0x2 
 .text.stdio_out_chars_crlf
                0x00000000100046c8       0x80 CMakeFiles/HSU.dir/usr/share/pico-sdk/src/rp2_common/pico_stdio/stdio.c.obj
 .text.stdio_stack_buffer_flush
                0x0000000010004748       0x44 CMakeFiles/HSU.dir/usr/share/pico-sdk/src/rp2_common/pico_stdio/stdio.c.obj
 .text.stdio_buffered_printer
                0x000000001000478c       0x20 CMakeFiles/HSU.dir/usr/share/pico-sdk/src/rp2_common/pico_stdio/stdio.c.obj
 .text.stdio_get_until
                0x00000000100047ac       0x64 CMakeFiles/HSU.dir/usr/share/pico-sdk/src/rp2_common/pico_stdio/stdio.c.obj
 .text.update_us_since_boot
                0x0000000010004810       0x24 CMakeFiles/HSU.dir/usr/share/pico-sdk/src/rp2_common/pico_stdio/stdio.c.obj
 .text.delayed_by_us
                0x0000000010004834       0x36 CMakeFiles/HSU.dir/usr/share/pico-sdk/src/rp2_common/pico_stdio/stdio.c.obj
 .text.get_absolute_time
                0x000000001000486a       0x22 CMakeFiles/HSU.dir/usr/share/pico-sdk/src/rp2_common/pico_stdio/stdio.c.obj
 .text.make_timeout_time_us
                0x000000001000488c       0x24 CMakeFiles/HSU.dir/usr/share/pico-sdk/src/rp2_common/pico_stdio/stdio.c.obj
 .text.stdout_serialize_begin
                0x00000000100048b0       0x30 CMakeFiles/HSU.dir/usr/share/pico-sdk/src/rp2_common/pico_stdio/stdio.c.obj
                0x00000000100048b0                stdout_serialize_begin
 .text.stdout_serialize_end
                0x00000000100048e0       0x10 CMakeFiles/HSU.dir/usr/share/pico-sdk/src/rp2_common/pico_stdio/stdio.c.obj
                0x00000000100048e0                stdout_serialize_end
 .text.stdio_put_string
                0x00000000100048f0       0x98 CMakeFiles/HSU.dir/usr/share/pico-sdk/src/rp2_common/pico_stdio/stdio.c.obj
 .text.__wrap_putchar
                0x0000000010004988       0x1c CMakeFiles/HSU.dir/usr/share/pico-sdk/src/rp2_common/pico_stdio/stdio.c.obj
                0x0000000010004988                __wrap_putchar
 .text.stdio_set_driver_enabled
                0x00000000100049a4       0x2c CMakeFiles/HSU.dir/usr/share/pico-sdk/src/rp2_common/pico_stdio/stdio.c.obj
                0x00000000100049a4                stdio_set_driver_enabled
 .text.stdio_flush
                0x00000000100049d0       0x20 CMakeFiles/HSU.dir/usr/share/pico-sdk/src/rp2_common/pico_stdio/stdio.c.obj
                0x00000000100049d0                stdio_flush
 .text.__wrap_puts
                0x00000000100049f0       0x1e CMakeFiles/HSU.dir/usr/share/pico-sdk/src/rp2_common/pico_stdio/stdio.c.obj
                0x00000000100049f0                __wrap_puts
 *fill*         0x0000000010004a0e        0x2 
 .text.__wrap_vprintf
                0x0000000010004a10       0x44 CMakeFiles/HSU.dir/usr/share/pico-sdk/src/rp2_common/pico_stdio/stdio.c.obj
                0x0000000010004a10                __wrap_vprintf
 .text.__wrap_printf
                0x0000000010004a54       0x18 CMakeFiles/HSU.dir/usr/share/pico-sdk/src/rp2_common/pico_stdio/stdio.c.obj
                0x0000000010004a54                __wrap_printf
 .text.stdio_init_all
                0x0000000010004a6c        0x8 CMakeFiles/HSU.dir/usr/share/pico-sdk/src/rp2_common/pico_stdio/stdio.c.obj
                0x0000000010004a6c                stdio_init_all
 .text.getchar_timeout_us
                0x0000000010004a74       0x44 CMakeFiles/HSU.dir/usr/share/pico-sdk/src/rp2_common/pico_stdio/stdio.c.obj
                0x0000000010004a74                getchar_timeout_us
 .text.resetd_init
                0x0000000010004ab8        0x2 CMakeFiles/HSU.dir/usr/share/pico-sdk/src/rp2_common/pico_stdio_usb/reset_interface.c.obj
 *fill*         0x0000000010004aba        0x2 
 .text.resetd_reset
                0x0000000010004abc        0xc CMakeFiles/HSU.dir/usr/share/pico-sdk/src/rp2_common/pico_stdio_usb/reset_interface.c.obj
 .text.resetd_open
                0x0000000010004ac8       0x34 CMakeFiles/HSU.dir/usr/share/pico-sdk/src/rp2_common/pico_stdio_usb/reset_interface.c.obj
 .text.resetd_xfer_cb
                0x0000000010004afc        0x4 CMakeFiles/HSU.dir/usr/share/pico-sdk/src/rp2_common/pico_stdio_usb/reset_interface.c.obj
 .text.reset_usb_boot
                0x0000000010004b00       0x18 CMakeFiles/HSU.dir/usr/share/pico-sdk/src/rp2_common/pico_stdio_usb/reset_interface.c.obj
 .text.resetd_control_xfer_cb
                0x0000000010004b18       0x5c CMakeFiles/HSU.dir/usr/share/pico-sdk/src/rp2_common/pico_stdio_usb/reset_interface.c.obj
 .text.usbd_app_driver_get_cb
                0x0000000010004b74        0xc CMakeFiles/HSU.dir/usr/share/pico-sdk/src/rp2_common/pico_stdio_usb/reset_interface.c.obj
                0x0000000010004b74                usbd_app_driver_get_cb
 .text.tud_cdc_line_coding_cb
                0x0000000010004b80       0x28 CMakeFiles/HSU.dir/usr/share/pico-sdk/src/rp2_common/pico_stdio_usb/reset_interface.c.obj
                0x0000000010004b80                tud_cdc_line_coding_cb
 .text.stdio_usb_in_chars
                0x0000000010004ba8       0x70 CMakeFiles/HSU.dir/usr/share/pico-sdk/src/rp2_common/pico_stdio_usb/stdio_usb.c.obj
                0x0000000010004ba8                stdio_usb_in_chars
 .text.low_priority_worker_irq
                0x0000000010004c18       0x20 CMakeFiles/HSU.dir/usr/share/pico-sdk/src/rp2_common/pico_stdio_usb/stdio_usb.c.obj
 .text.stdio_usb_out_chars
                0x0000000010004c38       0xd4 CMakeFiles/HSU.dir/usr/share/pico-sdk/src/rp2_common/pico_stdio_usb/stdio_usb.c.obj
 .text.timer_task
                0x0000000010004d0c       0x10 CMakeFiles/HSU.dir/usr/share/pico-sdk/src/rp2_common/pico_stdio_usb/stdio_usb.c.obj
 .text.update_us_since_boot
                0x0000000010004d1c       0x24 CMakeFiles/HSU.dir/usr/share/pico-sdk/src/rp2_common/pico_stdio_usb/stdio_usb.c.obj
 .text.get_absolute_time
                0x0000000010004d40       0x22 CMakeFiles/HSU.dir/usr/share/pico-sdk/src/rp2_common/pico_stdio_usb/stdio_usb.c.obj
 .text.delayed_by_us
                0x0000000010004d62       0x36 CMakeFiles/HSU.dir/usr/share/pico-sdk/src/rp2_common/pico_stdio_usb/stdio_usb.c.obj
 .text.alarm_pool_add_alarm_in_us
                0x0000000010004d98       0x3a CMakeFiles/HSU.dir/usr/share/pico-sdk/src/rp2_common/pico_stdio_usb/stdio_usb.c.obj
 .text.add_alarm_in_us
                0x0000000010004dd2       0x2e CMakeFiles/HSU.dir/usr/share/pico-sdk/src/rp2_common/pico_stdio_usb/stdio_usb.c.obj
 .text.stdio_usb_init
                0x0000000010004e00       0x64 CMakeFiles/HSU.dir/usr/share/pico-sdk/src/rp2_common/pico_stdio_usb/stdio_usb.c.obj
                0x0000000010004e00                stdio_usb_init
 .text.tud_descriptor_device_cb
                0x0000000010004e64        0x8 CMakeFiles/HSU.dir/usr/share/pico-sdk/src/rp2_common/pico_stdio_usb/stdio_usb_descriptors.c.obj
                0x0000000010004e64                tud_descriptor_device_cb
 .text.tud_descriptor_configuration_cb
                0x0000000010004e6c        0x8 CMakeFiles/HSU.dir/usr/share/pico-sdk/src/rp2_common/pico_stdio_usb/stdio_usb_descriptors.c.obj
                0x0000000010004e6c                tud_descriptor_configuration_cb
 .text.tud_descriptor_string_cb
                0x0000000010004e74       0x6c CMakeFiles/HSU.dir/usr/share/pico-sdk/src/rp2_common/pico_stdio_usb/stdio_usb_descriptors.c.obj
                0x0000000010004e74                tud_descriptor_string_cb
 .text.hw_endpoint_get_by_addr
                0x0000000010004ee0       0x18 CMakeFiles/HSU.dir/usr/share/pico-sdk/lib/tinyusb/src/portable/raspberrypi/rp2040/dcd_rp2040.c.obj
 .text.reset_ep0_pid
                0x0000000010004ef8       0x28 CMakeFiles/HSU.dir/usr/share/pico-sdk/lib/tinyusb/src/portable/raspberrypi/rp2040/dcd_rp2040.c.obj
 .text._hw_endpoint_alloc
                0x0000000010004f20       0x70 CMakeFiles/HSU.dir/usr/share/pico-sdk/lib/tinyusb/src/portable/raspberrypi/rp2040/dcd_rp2040.c.obj
 .text.hw_endpoint_init
                0x0000000010004f90       0x88 CMakeFiles/HSU.dir/usr/share/pico-sdk/lib/tinyusb/src/portable/raspberrypi/rp2040/dcd_rp2040.c.obj
 .text.reset_non_control_endpoints
                0x0000000010005018       0x40 CMakeFiles/HSU.dir/usr/share/pico-sdk/lib/tinyusb/src/portable/raspberrypi/rp2040/dcd_rp2040.c.obj
 .text.hw_handle_buff_status
                0x0000000010005058       0x8c CMakeFiles/HSU.dir/usr/share/pico-sdk/lib/tinyusb/src/portable/raspberrypi/rp2040/dcd_rp2040.c.obj
 .text.dcd_rp2040_irq
                0x00000000100050e4       0xc0 CMakeFiles/HSU.dir/usr/share/pico-sdk/lib/tinyusb/src/portable/raspberrypi/rp2040/dcd_rp2040.c.obj
 .text.hw_endpoint_xfer
                0x00000000100051a4       0x14 CMakeFiles/HSU.dir/usr/share/pico-sdk/lib/tinyusb/src/portable/raspberrypi/rp2040/dcd_rp2040.c.obj
 .text.dcd_int_enable
                0x00000000100051b8       0x2c CMakeFiles/HSU.dir/usr/share/pico-sdk/lib/tinyusb/src/portable/raspberrypi/rp2040/dcd_rp2040.c.obj
                0x00000000100051b8                dcd_int_enable
 .text.dcd_set_address
                0x00000000100051e4       0x2c CMakeFiles/HSU.dir/usr/share/pico-sdk/lib/tinyusb/src/portable/raspberrypi/rp2040/dcd_rp2040.c.obj
                0x00000000100051e4                dcd_set_address
 .text.dcd_connect
                0x0000000010005210       0x10 CMakeFiles/HSU.dir/usr/share/pico-sdk/lib/tinyusb/src/portable/raspberrypi/rp2040/dcd_rp2040.c.obj
                0x0000000010005210                dcd_connect
 .text.dcd_init
                0x0000000010005220       0x7c CMakeFiles/HSU.dir/usr/share/pico-sdk/lib/tinyusb/src/portable/raspberrypi/rp2040/dcd_rp2040.c.obj
                0x0000000010005220                dcd_init
 .text.dcd_edpt0_status_complete
                0x000000001000529c       0x1c CMakeFiles/HSU.dir/usr/share/pico-sdk/lib/tinyusb/src/portable/raspberrypi/rp2040/dcd_rp2040.c.obj
                0x000000001000529c                dcd_edpt0_status_complete
 .text.dcd_edpt_open
                0x00000000100052b8       0x40 CMakeFiles/HSU.dir/usr/share/pico-sdk/lib/tinyusb/src/portable/raspberrypi/rp2040/dcd_rp2040.c.obj
                0x00000000100052b8                dcd_edpt_open
 .text.dcd_edpt_close_all
                0x00000000100052f8        0x8 CMakeFiles/HSU.dir/usr/share/pico-sdk/lib/tinyusb/src/portable/raspberrypi/rp2040/dcd_rp2040.c.obj
                0x00000000100052f8                dcd_edpt_close_all
 .text.dcd_edpt_xfer
                0x0000000010005300       0x30 CMakeFiles/HSU.dir/usr/share/pico-sdk/lib/tinyusb/src/portable/raspberrypi/rp2040/dcd_rp2040.c.obj
                0x0000000010005300                dcd_edpt_xfer
 .text.dcd_edpt_stall
                0x0000000010005330       0x2c CMakeFiles/HSU.dir/usr/share/pico-sdk/lib/tinyusb/src/portable/raspberrypi/rp2040/dcd_rp2040.c.obj
                0x0000000010005330                dcd_edpt_stall
 .text.dcd_edpt_clear_stall
                0x000000001000535c       0x20 CMakeFiles/HSU.dir/usr/share/pico-sdk/lib/tinyusb/src/portable/raspberrypi/rp2040/dcd_rp2040.c.obj
                0x000000001000535c                dcd_edpt_clear_stall
 .text.prepare_ep_buffer
                0x000000001000537c       0x6c CMakeFiles/HSU.dir/usr/share/pico-sdk/lib/tinyusb/src/portable/raspberrypi/rp2040/rp2040_usb.c.obj
 .text.sync_ep_buffer
                0x00000000100053e8       0x78 CMakeFiles/HSU.dir/usr/share/pico-sdk/lib/tinyusb/src/portable/raspberrypi/rp2040/rp2040_usb.c.obj
 .text._hw_endpoint_xfer_sync
                0x0000000010005460       0x28 CMakeFiles/HSU.dir/usr/share/pico-sdk/lib/tinyusb/src/portable/raspberrypi/rp2040/rp2040_usb.c.obj
 .text.rp2040_usb_init
                0x0000000010005488       0x4c CMakeFiles/HSU.dir/usr/share/pico-sdk/lib/tinyusb/src/portable/raspberrypi/rp2040/rp2040_usb.c.obj
                0x0000000010005488                rp2040_usb_init
 .text.hw_endpoint_reset_transfer
                0x00000000100054d4        0xc CMakeFiles/HSU.dir/usr/share/pico-sdk/lib/tinyusb/src/portable/raspberrypi/rp2040/rp2040_usb.c.obj
                0x00000000100054d4                hw_endpoint_reset_transfer
 .text._hw_endpoint_buffer_control_update32
                0x00000000100054e0       0x58 CMakeFiles/HSU.dir/usr/share/pico-sdk/lib/tinyusb/src/portable/raspberrypi/rp2040/rp2040_usb.c.obj
                0x00000000100054e0                _hw_endpoint_buffer_control_update32
 .text._hw_endpoint_start_next_buffer
                0x0000000010005538       0x74 CMakeFiles/HSU.dir/usr/share/pico-sdk/lib/tinyusb/src/portable/raspberrypi/rp2040/rp2040_usb.c.obj
 .text.hw_endpoint_xfer_start
                0x00000000100055ac       0x48 CMakeFiles/HSU.dir/usr/share/pico-sdk/lib/tinyusb/src/portable/raspberrypi/rp2040/rp2040_usb.c.obj
                0x00000000100055ac                hw_endpoint_xfer_start
 .text.hw_endpoint_xfer_continue
                0x00000000100055f4       0x38 CMakeFiles/HSU.dir/usr/share/pico-sdk/lib/tinyusb/src/portable/raspberrypi/rp2040/rp2040_usb.c.obj
                0x00000000100055f4                hw_endpoint_xfer_continue
 .text.configuration_reset
                0x000000001000562c       0x84 CMakeFiles/HSU.dir/usr/share/pico-sdk/lib/tinyusb/src/device/usbd.c.obj
 .text.osal_queue_receive
                0x00000000100056b0       0x30 CMakeFiles/HSU.dir/usr/share/pico-sdk/lib/tinyusb/src/device/usbd.c.obj
 .text.usbd_reset
                0x00000000100056e0        0xc CMakeFiles/HSU.dir/usr/share/pico-sdk/lib/tinyusb/src/device/usbd.c.obj
 .text.invoke_class_control
                0x00000000100056ec       0x1a CMakeFiles/HSU.dir/usr/share/pico-sdk/lib/tinyusb/src/device/usbd.c.obj
 *fill*         0x0000000010005706        0x2 
 .text.process_set_config
                0x0000000010005708      0x1b0 CMakeFiles/HSU.dir/usr/share/pico-sdk/lib/tinyusb/src/device/usbd.c.obj
 .text.process_get_descriptor
                0x00000000100058b8       0xec CMakeFiles/HSU.dir/usr/share/pico-sdk/lib/tinyusb/src/device/usbd.c.obj
 .text.osal_queue_send
                0x00000000100059a4       0x4c CMakeFiles/HSU.dir/usr/share/pico-sdk/lib/tinyusb/src/device/usbd.c.obj
 .text.tud_mounted
                0x00000000100059f0       0x10 CMakeFiles/HSU.dir/usr/share/pico-sdk/lib/tinyusb/src/device/usbd.c.obj
                0x00000000100059f0                tud_mounted
 .text.tud_suspended
                0x0000000010005a00       0x10 CMakeFiles/HSU.dir/usr/share/pico-sdk/lib/tinyusb/src/device/usbd.c.obj
                0x0000000010005a00                tud_suspended
 .text.tud_inited
                0x0000000010005a10        0xc CMakeFiles/HSU.dir/usr/share/pico-sdk/lib/tinyusb/src/device/usbd.c.obj
                0x0000000010005a10                tud_inited
 .text.tud_init
                0x0000000010005a1c       0xcc CMakeFiles/HSU.dir/usr/share/pico-sdk/lib/tinyusb/src/device/usbd.c.obj
                0x0000000010005a1c                tud_init
 .text.dcd_event_handler
                0x0000000010005ae8       0xd4 CMakeFiles/HSU.dir/usr/share/pico-sdk/lib/tinyusb/src/device/usbd.c.obj
                0x0000000010005ae8                dcd_event_handler
 .text.dcd_event_bus_signal
                0x0000000010005bbc       0x26 CMakeFiles/HSU.dir/usr/share/pico-sdk/lib/tinyusb/src/device/usbd.c.obj
                0x0000000010005bbc                dcd_event_bus_signal
 .text.dcd_event_bus_reset
                0x0000000010005be2       0x2a CMakeFiles/HSU.dir/usr/share/pico-sdk/lib/tinyusb/src/device/usbd.c.obj
                0x0000000010005be2                dcd_event_bus_reset
 .text.dcd_event_setup_received
                0x0000000010005c0c       0x34 CMakeFiles/HSU.dir/usr/share/pico-sdk/lib/tinyusb/src/device/usbd.c.obj
                0x0000000010005c0c                dcd_event_setup_received
 .text.dcd_event_xfer_complete
                0x0000000010005c40       0x44 CMakeFiles/HSU.dir/usr/share/pico-sdk/lib/tinyusb/src/device/usbd.c.obj
                0x0000000010005c40                dcd_event_xfer_complete
 .text.usbd_edpt_open
                0x0000000010005c84       0x58 CMakeFiles/HSU.dir/usr/share/pico-sdk/lib/tinyusb/src/device/usbd.c.obj
                0x0000000010005c84                usbd_edpt_open
 .text.usbd_open_edpt_pair
                0x0000000010005cdc       0x8c CMakeFiles/HSU.dir/usr/share/pico-sdk/lib/tinyusb/src/device/usbd.c.obj
                0x0000000010005cdc                usbd_open_edpt_pair
 .text.usbd_edpt_claim
                0x0000000010005d68       0x8c CMakeFiles/HSU.dir/usr/share/pico-sdk/lib/tinyusb/src/device/usbd.c.obj
                0x0000000010005d68                usbd_edpt_claim
 .text.usbd_edpt_release
                0x0000000010005df4       0x60 CMakeFiles/HSU.dir/usr/share/pico-sdk/lib/tinyusb/src/device/usbd.c.obj
                0x0000000010005df4                usbd_edpt_release
 .text.usbd_edpt_xfer
                0x0000000010005e54       0x80 CMakeFiles/HSU.dir/usr/share/pico-sdk/lib/tinyusb/src/device/usbd.c.obj
                0x0000000010005e54                usbd_edpt_xfer
 .text.usbd_edpt_stall
                0x0000000010005ed4       0x40 CMakeFiles/HSU.dir/usr/share/pico-sdk/lib/tinyusb/src/device/usbd.c.obj
                0x0000000010005ed4                usbd_edpt_stall
 .text.usbd_edpt_clear_stall
                0x0000000010005f14       0x40 CMakeFiles/HSU.dir/usr/share/pico-sdk/lib/tinyusb/src/device/usbd.c.obj
                0x0000000010005f14                usbd_edpt_clear_stall
 .text.usbd_edpt_stalled
                0x0000000010005f54       0x1c CMakeFiles/HSU.dir/usr/share/pico-sdk/lib/tinyusb/src/device/usbd.c.obj
                0x0000000010005f54                usbd_edpt_stalled
 .text.process_control_request
                0x0000000010005f70      0x3b0 CMakeFiles/HSU.dir/usr/share/pico-sdk/lib/tinyusb/src/device/usbd.c.obj
 .text.tud_task
                0x0000000010006320      0x1f0 CMakeFiles/HSU.dir/usr/share/pico-sdk/lib/tinyusb/src/device/usbd.c.obj
                0x0000000010006320                tud_task
 .text._status_stage_xact
                0x0000000010006510       0x1a CMakeFiles/HSU.dir/usr/share/pico-sdk/lib/tinyusb/src/device/usbd_control.c.obj
 *fill*         0x000000001000652a        0x2 
 .text._data_stage_xact
                0x000000001000652c       0x58 CMakeFiles/HSU.dir/usr/share/pico-sdk/lib/tinyusb/src/device/usbd_control.c.obj
 .text.tud_control_status
                0x0000000010006584       0x28 CMakeFiles/HSU.dir/usr/share/pico-sdk/lib/tinyusb/src/device/usbd_control.c.obj
                0x0000000010006584                tud_control_status
 .text.tud_control_xfer
                0x00000000100065ac       0x98 CMakeFiles/HSU.dir/usr/share/pico-sdk/lib/tinyusb/src/device/usbd_control.c.obj
                0x00000000100065ac                tud_control_xfer
 .text.usbd_control_reset
                0x0000000010006644       0x14 CMakeFiles/HSU.dir/usr/share/pico-sdk/lib/tinyusb/src/device/usbd_control.c.obj
                0x0000000010006644                usbd_control_reset
 .text.usbd_control_set_complete_callback
                0x0000000010006658        0xc CMakeFiles/HSU.dir/usr/share/pico-sdk/lib/tinyusb/src/device/usbd_control.c.obj
                0x0000000010006658                usbd_control_set_complete_callback
 .text.usbd_control_set_request
                0x0000000010006664       0x1c CMakeFiles/HSU.dir/usr/share/pico-sdk/lib/tinyusb/src/device/usbd_control.c.obj
                0x0000000010006664                usbd_control_set_request
 .text.usbd_control_xfer_cb
                0x0000000010006680       0xe8 CMakeFiles/HSU.dir/usr/share/pico-sdk/lib/tinyusb/src/device/usbd_control.c.obj
                0x0000000010006680                usbd_control_xfer_cb
 .text._prep_out_transaction
                0x0000000010006768       0x46 CMakeFiles/HSU.dir/usr/share/pico-sdk/lib/tinyusb/src/class/cdc/cdc_device.c.obj
 *fill*         0x00000000100067ae        0x2 
 .text.tud_cdc_n_connected
                0x00000000100067b0       0x38 CMakeFiles/HSU.dir/usr/share/pico-sdk/lib/tinyusb/src/class/cdc/cdc_device.c.obj
                0x00000000100067b0                tud_cdc_n_connected
 .text.tud_cdc_n_available
                0x00000000100067e8       0x18 CMakeFiles/HSU.dir/usr/share/pico-sdk/lib/tinyusb/src/class/cdc/cdc_device.c.obj
                0x00000000100067e8                tud_cdc_n_available
 .text.tud_cdc_n_read
                0x0000000010006800       0x28 CMakeFiles/HSU.dir/usr/share/pico-sdk/lib/tinyusb/src/class/cdc/cdc_device.c.obj
                0x0000000010006800                tud_cdc_n_read
 .text.tud_cdc_n_write_flush
                0x0000000010006828       0xcc CMakeFiles/HSU.dir/usr/share/pico-sdk/lib/tinyusb/src/class/cdc/cdc_device.c.obj
                0x0000000010006828                tud_cdc_n_write_flush
 .text.tud_cdc_n_write
                0x00000000100068f4       0x38 CMakeFiles/HSU.dir/usr/share/pico-sdk/lib/tinyusb/src/class/cdc/cdc_device.c.obj
                0x00000000100068f4                tud_cdc_n_write
 .text.tud_cdc_n_write_available
                0x000000001000692c       0x1c CMakeFiles/HSU.dir/usr/share/pico-sdk/lib/tinyusb/src/class/cdc/cdc_device.c.obj
                0x000000001000692c                tud_cdc_n_write_available
 .text.cdcd_init
                0x0000000010006948       0xbc CMakeFiles/HSU.dir/usr/share/pico-sdk/lib/tinyusb/src/class/cdc/cdc_device.c.obj
                0x0000000010006948                cdcd_init
 .text.cdcd_reset
                0x0000000010006a04       0x44 CMakeFiles/HSU.dir/usr/share/pico-sdk/lib/tinyusb/src/class/cdc/cdc_device.c.obj
                0x0000000010006a04                cdcd_reset
 .text.cdcd_open
                0x0000000010006a48       0xf0 CMakeFiles/HSU.dir/usr/share/pico-sdk/lib/tinyusb/src/class/cdc/cdc_device.c.obj
                0x0000000010006a48                cdcd_open
 .text.cdcd_control_xfer_cb
                0x0000000010006b38      0x134 CMakeFiles/HSU.dir/usr/share/pico-sdk/lib/tinyusb/src/class/cdc/cdc_device.c.obj
                0x0000000010006b38                cdcd_control_xfer_cb
 .text.cdcd_xfer_cb
                0x0000000010006c6c      0x144 CMakeFiles/HSU.dir/usr/share/pico-sdk/lib/tinyusb/src/class/cdc/cdc_device.c.obj
                0x0000000010006c6c                cdcd_xfer_cb
 .text.tusb_init
                0x0000000010006db0       0x24 CMakeFiles/HSU.dir/usr/share/pico-sdk/lib/tinyusb/src/tusb.c.obj
                0x0000000010006db0                tusb_init
 .text.tusb_inited
                0x0000000010006dd4        0xe CMakeFiles/HSU.dir/usr/share/pico-sdk/lib/tinyusb/src/tusb.c.obj
                0x0000000010006dd4                tusb_inited
 *fill*         0x0000000010006de2        0x2 
 .text.tu_edpt_validate
                0x0000000010006de4       0xa8 CMakeFiles/HSU.dir/usr/share/pico-sdk/lib/tinyusb/src/tusb.c.obj
                0x0000000010006de4                tu_edpt_validate
 .text.tu_edpt_bind_driver
                0x0000000010006e8c       0x2a CMakeFiles/HSU.dir/usr/share/pico-sdk/lib/tinyusb/src/tusb.c.obj
                0x0000000010006e8c                tu_edpt_bind_driver
 .text.advance_pointer
                0x0000000010006eb6       0x18 CMakeFiles/HSU.dir/usr/share/pico-sdk/lib/tinyusb/src/common/tusb_fifo.c.obj
 .text.backward_pointer
                0x0000000010006ece       0x1e CMakeFiles/HSU.dir/usr/share/pico-sdk/lib/tinyusb/src/common/tusb_fifo.c.obj
 .text.get_relative_pointer
                0x0000000010006eec       0x10 CMakeFiles/HSU.dir/usr/share/pico-sdk/lib/tinyusb/src/common/tusb_fifo.c.obj
 .text._tu_fifo_peek
                0x0000000010006efc       0x50 CMakeFiles/HSU.dir/usr/share/pico-sdk/lib/tinyusb/src/common/tusb_fifo.c.obj
 .text._ff_pull_const_addr
                0x0000000010006f4c       0x4c CMakeFiles/HSU.dir/usr/share/pico-sdk/lib/tinyusb/src/common/tusb_fifo.c.obj
 .text._ff_pull_n
                0x0000000010006f98      0x10c CMakeFiles/HSU.dir/usr/share/pico-sdk/lib/tinyusb/src/common/tusb_fifo.c.obj
 .text._tu_fifo_peek_n
                0x00000000100070a4       0x5e CMakeFiles/HSU.dir/usr/share/pico-sdk/lib/tinyusb/src/common/tusb_fifo.c.obj
 .text._tu_fifo_read_n
                0x0000000010007102       0x4e CMakeFiles/HSU.dir/usr/share/pico-sdk/lib/tinyusb/src/common/tusb_fifo.c.obj
 .text._ff_push_const_addr
                0x0000000010007150       0x40 CMakeFiles/HSU.dir/usr/share/pico-sdk/lib/tinyusb/src/common/tusb_fifo.c.obj
 .text._ff_push_n
                0x0000000010007190      0x108 CMakeFiles/HSU.dir/usr/share/pico-sdk/lib/tinyusb/src/common/tusb_fifo.c.obj
 .text._tu_fifo_write_n
                0x0000000010007298       0x9e CMakeFiles/HSU.dir/usr/share/pico-sdk/lib/tinyusb/src/common/tusb_fifo.c.obj
 .text.tu_fifo_config
                0x0000000010007336       0x72 CMakeFiles/HSU.dir/usr/share/pico-sdk/lib/tinyusb/src/common/tusb_fifo.c.obj
                0x0000000010007336                tu_fifo_config
 .text.tu_fifo_count
                0x00000000100073a8       0x26 CMakeFiles/HSU.dir/usr/share/pico-sdk/lib/tinyusb/src/common/tusb_fifo.c.obj
                0x00000000100073a8                tu_fifo_count
 .text.tu_fifo_empty
                0x00000000100073ce        0xe CMakeFiles/HSU.dir/usr/share/pico-sdk/lib/tinyusb/src/common/tusb_fifo.c.obj
                0x00000000100073ce                tu_fifo_empty
 .text.tu_fifo_remaining
                0x00000000100073dc       0x20 CMakeFiles/HSU.dir/usr/share/pico-sdk/lib/tinyusb/src/common/tusb_fifo.c.obj
                0x00000000100073dc                tu_fifo_remaining
 .text.tu_fifo_read
                0x00000000100073fc       0x42 CMakeFiles/HSU.dir/usr/share/pico-sdk/lib/tinyusb/src/common/tusb_fifo.c.obj
                0x00000000100073fc                tu_fifo_read
 .text.tu_fifo_read_n
                0x000000001000743e        0xa CMakeFiles/HSU.dir/usr/share/pico-sdk/lib/tinyusb/src/common/tusb_fifo.c.obj
                0x000000001000743e                tu_fifo_read_n
 .text.tu_fifo_write
                0x0000000010007448       0x6a CMakeFiles/HSU.dir/usr/share/pico-sdk/lib/tinyusb/src/common/tusb_fifo.c.obj
                0x0000000010007448                tu_fifo_write
 .text.tu_fifo_write_n
                0x00000000100074b2        0xa CMakeFiles/HSU.dir/usr/share/pico-sdk/lib/tinyusb/src/common/tusb_fifo.c.obj
                0x00000000100074b2                tu_fifo_write_n
 .text.tu_fifo_clear
                0x00000000100074bc       0x4c CMakeFiles/HSU.dir/usr/share/pico-sdk/lib/tinyusb/src/common/tusb_fifo.c.obj
                0x00000000100074bc                tu_fifo_clear
 .text.tu_fifo_set_overwritable
                0x0000000010007508       0x3c CMakeFiles/HSU.dir/usr/share/pico-sdk/lib/tinyusb/src/common/tusb_fifo.c.obj
                0x0000000010007508                tu_fifo_set_overwritable
 .text._retrieve_unique_id_on_boot
                0x0000000010007544       0x10 CMakeFiles/HSU.dir/usr/share/pico-sdk/src/rp2_common/pico_unique_id/unique_id.c.obj
 .text.pico_get_unique_board_id_string
                0x0000000010007554       0x5c CMakeFiles/HSU.dir/usr/share/pico-sdk/src/rp2_common/pico_unique_id/unique_id.c.obj
                0x0000000010007554                pico_get_unique_board_id_string
 .text.flash_get_unique_id
                0x00000000100075b0       0x46 CMakeFiles/HSU.dir/usr/share/pico-sdk/src/rp2_common/hardware_flash/flash.c.obj
                0x00000000100075b0                flash_get_unique_id
 *fill*         0x00000000100075f6        0x2 
 .text.atexit   0x00000000100075f8       0x10 /usr/lib/gcc/arm-none-eabi/12.1.0/../../../../arm-none-eabi/lib/thumb/v6-m/nofp/libg.a(lib_a-atexit.o)
                0x00000000100075f8                atexit
 .text.__libc_fini_array
                0x0000000010007608       0x28 /usr/lib/gcc/arm-none-eabi/12.1.0/../../../../arm-none-eabi/lib/thumb/v6-m/nofp/libg.a(lib_a-fini.o)
                0x0000000010007608                __libc_fini_array
 .text.strlen   0x0000000010007630       0x5c /usr/lib/gcc/arm-none-eabi/12.1.0/../../../../arm-none-eabi/lib/thumb/v6-m/nofp/libg.a(lib_a-strlen-stub.o)
                0x0000000010007630                strlen
 .text.__register_exitproc
                0x000000001000768c       0xac /usr/lib/gcc/arm-none-eabi/12.1.0/../../../../arm-none-eabi/lib/thumb/v6-m/nofp/libg.a(lib_a-__atexit.o)
                0x000000001000768c                __register_exitproc
 .text.startup.register_fini
                0x0000000010007738       0x18 /usr/lib/gcc/arm-none-eabi/12.1.0/../../../../arm-none-eabi/lib/thumb/v6-m/nofp/libg.a(lib_a-__call_atexit.o)
 .text.__retarget_lock_acquire_recursive
                0x0000000010007750        0x4 /usr/lib/gcc/arm-none-eabi/12.1.0/../../../../arm-none-eabi/lib/thumb/v6-m/nofp/libg.a(lib_a-lock.o)
                0x0000000010007750                __retarget_lock_acquire_recursive
 .text.__retarget_lock_release_recursive
                0x0000000010007754        0x4 /usr/lib/gcc/arm-none-eabi/12.1.0/../../../../arm-none-eabi/lib/thumb/v6-m/nofp/libg.a(lib_a-lock.o)
                0x0000000010007754                __retarget_lock_release_recursive
 *(.fini)
 .fini          0x0000000010007758        0x4 /usr/lib/gcc/arm-none-eabi/12.1.0/thumb/v6-m/nofp/crti.o
                0x0000000010007758                _fini
 *fill*         0x000000001000775c        0x4 
 .fini.__stub   0x0000000010007760       0x70 linker stubs
 *crtbegin.o(.ctors)
 *crtbegin?.o(.ctors)
 *(EXCLUDE_FILE(*crtend.o *crtend?.o) .ctors)
 *(SORT_BY_NAME(.ctors.*))
 *(.ctors)
 *crtbegin.o(.dtors)
 *crtbegin?.o(.dtors)
 *(EXCLUDE_FILE(*crtend.o *crtend?.o) .dtors)
 *(SORT_BY_NAME(.dtors.*))
 *(.dtors)
 *(.eh_frame*)
 .eh_frame      0x00000000100077d0        0x0 /usr/lib/gcc/arm-none-eabi/12.1.0/thumb/v6-m/nofp/crtbegin.o
                0x00000000100077d0                . = ALIGN (0x4)

.glue_7         0x00000000100077d0        0x0
 .glue_7        0x00000000100077d0        0x0 linker stubs

.glue_7t        0x00000000100077d0        0x0
 .glue_7t       0x00000000100077d0        0x0 linker stubs

.vfp11_veneer   0x00000000100077d0        0x0
 .vfp11_veneer  0x00000000100077d0        0x0 linker stubs

.v4_bx          0x00000000100077d0        0x0
 .v4_bx         0x00000000100077d0        0x0 linker stubs

.iplt           0x00000000100077d0        0x0
 .iplt          0x00000000100077d0        0x0 /usr/lib/gcc/arm-none-eabi/12.1.0/thumb/v6-m/nofp/crtbegin.o

.rodata         0x00000000100077d0     0x15d4
 *(EXCLUDE_FILE(*libm.a: *libc.a:*lib_a-mem*.o *libgcc.a:) .rodata*)
 .rodata.int_read_address_6.str1.4
                0x00000000100077d0       0x3a CMakeFiles/HSU.dir/HSU.c.obj
 *fill*         0x000000001000780a        0x2 
 .rodata.int_write_address_6.str1.4
                0x000000001000780c       0x20 CMakeFiles/HSU.dir/HSU.c.obj
 .rodata.main.str1.4
                0x000000001000782c       0x1d CMakeFiles/HSU.dir/HSU.c.obj
 *fill*         0x0000000010007849        0x3 
 .rodata.writeHeader
                0x000000001000784c        0x7 CMakeFiles/HSU.dir/HSU.c.obj
                0x000000001000784c                writeHeader
 *fill*         0x0000000010007853        0x1 
 .rodata.cmdHeader
                0x0000000010007854        0x7 CMakeFiles/HSU.dir/HSU.c.obj
                0x0000000010007854                cmdHeader
 *fill*         0x000000001000785b        0x1 
 .rodata.authHeader
                0x000000001000785c        0x8 CMakeFiles/HSU.dir/HSU.c.obj
                0x000000001000785c                authHeader
 .rodata.getCardUidCmd
                0x0000000010007864        0xb CMakeFiles/HSU.dir/HSU.c.obj
                0x0000000010007864                getCardUidCmd
 *fill*         0x000000001000786f        0x1 
 .rodata.getFwExpectedRes
                0x0000000010007870       0x13 CMakeFiles/HSU.dir/HSU.c.obj
                0x0000000010007870                getFwExpectedRes
 *fill*         0x0000000010007883        0x1 
 .rodata.getFwCmd
                0x0000000010007884        0x8 CMakeFiles/HSU.dir/HSU.c.obj
                0x0000000010007884                getFwCmd
 .rodata.sleepExpectedRes
                0x000000001000788c       0x10 CMakeFiles/HSU.dir/HSU.c.obj
                0x000000001000788c                sleepExpectedRes
 .rodata.sleepCmd
                0x000000001000789c        0xa CMakeFiles/HSU.dir/HSU.c.obj
                0x000000001000789c                sleepCmd
 *fill*         0x00000000100078a6        0x2 
 .rodata.wkUpExpectedRes
                0x00000000100078a8        0xf CMakeFiles/HSU.dir/HSU.c.obj
                0x00000000100078a8                wkUpExpectedRes
 *fill*         0x00000000100078b7        0x1 
 .rodata.wkUpCmd
                0x00000000100078b8       0x18 CMakeFiles/HSU.dir/HSU.c.obj
                0x00000000100078b8                wkUpCmd
 .rodata        0x00000000100078d0       0x10 CMakeFiles/HSU.dir/HSU.c.obj
 .rodata.spin_lock_claim_unused.str1.4
                0x00000000100078e0       0x1b CMakeFiles/HSU.dir/usr/share/pico-sdk/src/rp2_common/hardware_sync/sync.c.obj
 *fill*         0x00000000100078fb        0x1 
 .rodata.get_entry.str1.4
                0x00000000100078fc       0x54 CMakeFiles/HSU.dir/usr/share/pico-sdk/src/common/pico_time/time.c.obj
 .rodata.update_us_since_boot.str1.4
                0x0000000010007950       0x5a CMakeFiles/HSU.dir/usr/share/pico-sdk/src/common/pico_time/time.c.obj
 *fill*         0x00000000100079aa        0x2 
 .rodata.ph_get_node.str1.4
                0x00000000100079ac       0x5f CMakeFiles/HSU.dir/usr/share/pico-sdk/src/common/pico_time/time.c.obj
 *fill*         0x0000000010007a0b        0x1 
 .rodata.ph_add_child_node.str1.4
                0x0000000010007a0c       0x2e CMakeFiles/HSU.dir/usr/share/pico-sdk/src/common/pico_time/time.c.obj
 *fill*         0x0000000010007a3a        0x2 
 .rodata.ph_insert_node.str1.4
                0x0000000010007a3c        0x3 CMakeFiles/HSU.dir/usr/share/pico-sdk/src/common/pico_time/time.c.obj
 *fill*         0x0000000010007a3f        0x1 
 .rodata.ph_free_node.str1.4
                0x0000000010007a40       0x22 CMakeFiles/HSU.dir/usr/share/pico-sdk/src/common/pico_time/time.c.obj
 *fill*         0x0000000010007a62        0x2 
 .rodata.add_alarm_under_lock.str1.4
                0x0000000010007a64       0x28 CMakeFiles/HSU.dir/usr/share/pico-sdk/src/common/pico_time/time.c.obj
 .rodata.alarm_pool_alarm_callback.str1.4
                0x0000000010007a8c       0x60 CMakeFiles/HSU.dir/usr/share/pico-sdk/src/common/pico_time/time.c.obj
 .rodata.alarm_pool_get_default.str1.4
                0x0000000010007aec       0x21 CMakeFiles/HSU.dir/usr/share/pico-sdk/src/common/pico_time/time.c.obj
 *fill*         0x0000000010007b0d        0x3 
 .rodata.alarm_pool_cancel_alarm.str1.4
                0x0000000010007b10       0x27 CMakeFiles/HSU.dir/usr/share/pico-sdk/src/common/pico_time/time.c.obj
 *fill*         0x0000000010007b37        0x1 
 .rodata.sleep_until.str1.4
                0x0000000010007b38       0x4d CMakeFiles/HSU.dir/usr/share/pico-sdk/src/common/pico_time/time.c.obj
 *fill*         0x0000000010007b85        0x3 
 .rodata.__func__.1
                0x0000000010007b88       0x18 CMakeFiles/HSU.dir/usr/share/pico-sdk/src/common/pico_time/time.c.obj
 .rodata.__func__.3
                0x0000000010007ba0       0x17 CMakeFiles/HSU.dir/usr/share/pico-sdk/src/common/pico_time/time.c.obj
 *fill*         0x0000000010007bb7        0x1 
 .rodata.__func__.4
                0x0000000010007bb8       0x12 CMakeFiles/HSU.dir/usr/share/pico-sdk/src/common/pico_time/time.c.obj
 *fill*         0x0000000010007bca        0x2 
 .rodata.__func__.5
                0x0000000010007bcc        0xd CMakeFiles/HSU.dir/usr/share/pico-sdk/src/common/pico_time/time.c.obj
 *fill*         0x0000000010007bd9        0x3 
 .rodata.__func__.6
                0x0000000010007bdc       0x12 CMakeFiles/HSU.dir/usr/share/pico-sdk/src/common/pico_time/time.c.obj
 *fill*         0x0000000010007bee        0x2 
 .rodata.__func__.7
                0x0000000010007bf0        0xf CMakeFiles/HSU.dir/usr/share/pico-sdk/src/common/pico_time/time.c.obj
 *fill*         0x0000000010007bff        0x1 
 .rodata.__func__.8
                0x0000000010007c00        0xc CMakeFiles/HSU.dir/usr/share/pico-sdk/src/common/pico_time/time.c.obj
 .rodata.__func__.9
                0x0000000010007c0c       0x15 CMakeFiles/HSU.dir/usr/share/pico-sdk/src/common/pico_time/time.c.obj
 *fill*         0x0000000010007c21        0x3 
 .rodata.__func__.10
                0x0000000010007c24       0x15 CMakeFiles/HSU.dir/usr/share/pico-sdk/src/common/pico_time/time.c.obj
 *fill*         0x0000000010007c39        0x3 
 .rodata.__func__.11
                0x0000000010007c3c       0x1a CMakeFiles/HSU.dir/usr/share/pico-sdk/src/common/pico_time/time.c.obj
 *fill*         0x0000000010007c56        0x2 
 .rodata.__func__.12
                0x0000000010007c58        0xa CMakeFiles/HSU.dir/usr/share/pico-sdk/src/common/pico_time/time.c.obj
 .rodata.update_us_since_boot.str1.4
                0x0000000010007c62       0x5a CMakeFiles/HSU.dir/usr/share/pico-sdk/src/rp2_common/hardware_timer/timer.c.obj
 *fill*         0x0000000010007c62        0x2 
 .rodata.hardware_alarm_claim.str1.4
                0x0000000010007c64       0x22 CMakeFiles/HSU.dir/usr/share/pico-sdk/src/rp2_common/hardware_timer/timer.c.obj
 *fill*         0x0000000010007c86        0x2 
 .rodata.hardware_alarm_set_target.str1.4
                0x0000000010007c88       0x5e CMakeFiles/HSU.dir/usr/share/pico-sdk/src/rp2_common/hardware_timer/timer.c.obj
 *fill*         0x0000000010007ce6        0x2 
 .rodata.__func__.0
                0x0000000010007ce8       0x1a CMakeFiles/HSU.dir/usr/share/pico-sdk/src/rp2_common/hardware_timer/timer.c.obj
 *fill*         0x0000000010007d02        0x2 
 .rodata.__func__.1
                0x0000000010007d04       0x15 CMakeFiles/HSU.dir/usr/share/pico-sdk/src/rp2_common/hardware_timer/timer.c.obj
 .rodata.update_us_since_boot.str1.4
                0x0000000010007d19       0x5a CMakeFiles/HSU.dir/usr/share/pico-sdk/src/common/pico_sync/mutex.c.obj
 *fill*         0x0000000010007d19        0x3 
 .rodata.str1.4
                0x0000000010007d1c       0x85 CMakeFiles/HSU.dir/usr/share/pico-sdk/src/common/pico_sync/mutex.c.obj
 *fill*         0x0000000010007da1        0x3 
 .rodata.__func__.1
                0x0000000010007da4        0xb CMakeFiles/HSU.dir/usr/share/pico-sdk/src/common/pico_sync/mutex.c.obj
 *fill*         0x0000000010007daf        0x1 
 .rodata.__func__.3
                0x0000000010007db0       0x18 CMakeFiles/HSU.dir/usr/share/pico-sdk/src/common/pico_sync/mutex.c.obj
 .rodata.__func__.4
                0x0000000010007dc8       0x15 CMakeFiles/HSU.dir/usr/share/pico-sdk/src/common/pico_sync/mutex.c.obj
 .rodata.ph_get_node.str1.4
                0x0000000010007ddd       0x5f CMakeFiles/HSU.dir/usr/share/pico-sdk/src/common/pico_util/pheap.c.obj
 .rodata.ph_add_child_node.str1.4
                0x0000000010007ddd       0x2e CMakeFiles/HSU.dir/usr/share/pico-sdk/src/common/pico_util/pheap.c.obj
 *fill*         0x0000000010007ddd        0x3 
 .rodata.ph_remove_any_head.str1.4
                0x0000000010007de0       0x88 CMakeFiles/HSU.dir/usr/share/pico-sdk/src/common/pico_util/pheap.c.obj
 .rodata.ph_remove_and_free_node.str1.4
                0x0000000010007e68       0x26 CMakeFiles/HSU.dir/usr/share/pico-sdk/src/common/pico_util/pheap.c.obj
 *fill*         0x0000000010007e8e        0x2 
 .rodata.__func__.0
                0x0000000010007e90       0x18 CMakeFiles/HSU.dir/usr/share/pico-sdk/src/common/pico_util/pheap.c.obj
 .rodata.__func__.1
                0x0000000010007ea8       0x13 CMakeFiles/HSU.dir/usr/share/pico-sdk/src/common/pico_util/pheap.c.obj
 *fill*         0x0000000010007ebb        0x1 
 .rodata.__func__.2
                0x0000000010007ebc       0x12 CMakeFiles/HSU.dir/usr/share/pico-sdk/src/common/pico_util/pheap.c.obj
 *fill*         0x0000000010007ece        0x2 
 .rodata.__func__.3
                0x0000000010007ed0        0xc CMakeFiles/HSU.dir/usr/share/pico-sdk/src/common/pico_util/pheap.c.obj
 .rodata.__assert_func.str1.4
                0x0000000010007edc       0x3f CMakeFiles/HSU.dir/usr/share/pico-sdk/src/rp2_common/pico_runtime/runtime.c.obj
                                         0x43 (size before relaxing)
 *fill*         0x0000000010007f1b        0x1 
 .rodata.runtime_init.str1.4
                0x0000000010007f1c       0x5a CMakeFiles/HSU.dir/usr/share/pico-sdk/src/rp2_common/pico_runtime/runtime.c.obj
 *fill*         0x0000000010007f76        0x2 
 .rodata.panic.str1.4
                0x0000000010007f78       0x12 CMakeFiles/HSU.dir/usr/share/pico-sdk/src/rp2_common/pico_runtime/runtime.c.obj
 *fill*         0x0000000010007f8a        0x2 
 .rodata.__func__.1
                0x0000000010007f8c        0xd CMakeFiles/HSU.dir/usr/share/pico-sdk/src/rp2_common/pico_runtime/runtime.c.obj
 *fill*         0x0000000010007f99        0x3 
 .rodata.clock_configure.str1.4
                0x0000000010007f9c       0x50 CMakeFiles/HSU.dir/usr/share/pico-sdk/src/rp2_common/hardware_clocks/clocks.c.obj
 .rodata.__func__.1
                0x0000000010007fec       0x10 CMakeFiles/HSU.dir/usr/share/pico-sdk/src/rp2_common/hardware_clocks/clocks.c.obj
 .rodata.resolve_branch.str1.4
                0x0000000010007ffc       0x4e CMakeFiles/HSU.dir/usr/share/pico-sdk/src/rp2_common/hardware_irq/irq.c.obj
 *fill*         0x000000001000804a        0x2 
 .rodata.make_branch.str1.4
                0x000000001000804c       0x30 CMakeFiles/HSU.dir/usr/share/pico-sdk/src/rp2_common/hardware_irq/irq.c.obj
 .rodata.insert_branch_and_link.str1.4
                0x000000001000807c       0x10 CMakeFiles/HSU.dir/usr/share/pico-sdk/src/rp2_common/hardware_irq/irq.c.obj
 .rodata.irq_set_exclusive_handler.str1.4
                0x000000001000808c       0x36 CMakeFiles/HSU.dir/usr/share/pico-sdk/src/rp2_common/hardware_irq/irq.c.obj
 *fill*         0x00000000100080c2        0x2 
 .rodata.irq_remove_handler.str1.4
                0x00000000100080c4       0x2a CMakeFiles/HSU.dir/usr/share/pico-sdk/src/rp2_common/hardware_irq/irq.c.obj
 *fill*         0x00000000100080ee        0x2 
 .rodata.irq_add_tail_to_free_list.str1.4
                0x00000000100080f0       0x32 CMakeFiles/HSU.dir/usr/share/pico-sdk/src/rp2_common/hardware_irq/irq.c.obj
                                         0x3a (size before relaxing)
 *fill*         0x0000000010008122        0x2 
 .rodata.__func__.0
                0x0000000010008124       0x1a CMakeFiles/HSU.dir/usr/share/pico-sdk/src/rp2_common/hardware_irq/irq.c.obj
 *fill*         0x000000001000813e        0x2 
 .rodata.__func__.1
                0x0000000010008140       0x17 CMakeFiles/HSU.dir/usr/share/pico-sdk/src/rp2_common/hardware_irq/irq.c.obj
 *fill*         0x0000000010008157        0x1 
 .rodata.__func__.2
                0x0000000010008158       0x13 CMakeFiles/HSU.dir/usr/share/pico-sdk/src/rp2_common/hardware_irq/irq.c.obj
 *fill*         0x000000001000816b        0x1 
 .rodata.__func__.3
                0x000000001000816c        0xc CMakeFiles/HSU.dir/usr/share/pico-sdk/src/rp2_common/hardware_irq/irq.c.obj
 .rodata.__func__.4
                0x0000000010008178        0xf CMakeFiles/HSU.dir/usr/share/pico-sdk/src/rp2_common/hardware_irq/irq.c.obj
 *fill*         0x0000000010008187        0x1 
 .rodata.__func__.6
                0x0000000010008188       0x1a CMakeFiles/HSU.dir/usr/share/pico-sdk/src/rp2_common/hardware_irq/irq.c.obj
 *fill*         0x00000000100081a2        0x2 
 .rodata.pll_init.str1.4
                0x00000000100081a4       0xd3 CMakeFiles/HSU.dir/usr/share/pico-sdk/src/rp2_common/hardware_pll/pll.c.obj
 *fill*         0x0000000010008277        0x1 
 .rodata.__func__.0
                0x0000000010008278        0x9 CMakeFiles/HSU.dir/usr/share/pico-sdk/src/rp2_common/hardware_pll/pll.c.obj
 *fill*         0x0000000010008281        0x3 
 .rodata._ftoa.str1.4
                0x0000000010008284       0x15 CMakeFiles/HSU.dir/usr/share/pico-sdk/src/rp2_common/pico_printf/printf.c.obj
 *fill*         0x0000000010008299        0x3 
 .rodata._vsnprintf
                0x000000001000829c      0x19c CMakeFiles/HSU.dir/usr/share/pico-sdk/src/rp2_common/pico_printf/printf.c.obj
 .rodata.pow10.0
                0x0000000010008438       0x50 CMakeFiles/HSU.dir/usr/share/pico-sdk/src/rp2_common/pico_printf/printf.c.obj
 .rodata.__aeabi_double_init.str1.4
                0x0000000010008488       0xa1 CMakeFiles/HSU.dir/usr/share/pico-sdk/src/rp2_common/pico_double/double_init_rom.c.obj
 *fill*         0x0000000010008529        0x3 
 .rodata.__func__.0
                0x000000001000852c       0x14 CMakeFiles/HSU.dir/usr/share/pico-sdk/src/rp2_common/pico_double/double_init_rom.c.obj
 .rodata.__aeabi_float_init.str1.4
                0x0000000010008540       0x73 CMakeFiles/HSU.dir/usr/share/pico-sdk/src/rp2_common/pico_float/float_init_rom.c.obj
                                         0x77 (size before relaxing)
 *fill*         0x00000000100085b3        0x1 
 .rodata.__func__.0
                0x00000000100085b4       0x13 CMakeFiles/HSU.dir/usr/share/pico-sdk/src/rp2_common/pico_float/float_init_rom.c.obj
 *fill*         0x00000000100085c7        0x1 
 .rodata.str1.4
                0x00000000100085c8       0x3c CMakeFiles/HSU.dir/usr/share/pico-sdk/src/rp2_common/pico_standard_link/binary_info.c.obj
 .rodata.__bi_81
                0x0000000010008604        0xc CMakeFiles/HSU.dir/usr/share/pico-sdk/src/rp2_common/pico_standard_link/binary_info.c.obj
 .rodata.__bi_75
                0x0000000010008610        0xc CMakeFiles/HSU.dir/usr/share/pico-sdk/src/rp2_common/pico_standard_link/binary_info.c.obj
 .rodata.__bi_56
                0x000000001000861c        0xc CMakeFiles/HSU.dir/usr/share/pico-sdk/src/rp2_common/pico_standard_link/binary_info.c.obj
 .rodata.__bi_44
                0x0000000010008628        0xc CMakeFiles/HSU.dir/usr/share/pico-sdk/src/rp2_common/pico_standard_link/binary_info.c.obj
 .rodata.update_us_since_boot.str1.4
                0x0000000010008634       0x5a CMakeFiles/HSU.dir/usr/share/pico-sdk/src/rp2_common/pico_stdio/stdio.c.obj
 .rodata.__wrap_getchar.str1.4
                0x0000000010008634       0x42 CMakeFiles/HSU.dir/usr/share/pico-sdk/src/rp2_common/pico_stdio/stdio.c.obj
 .rodata.getchar_timeout_us.str1.4
                0x0000000010008676        0x3 CMakeFiles/HSU.dir/usr/share/pico-sdk/src/rp2_common/pico_stdio/stdio.c.obj
 *fill*         0x0000000010008676        0x2 
 .rodata.__func__.0
                0x0000000010008678       0x15 CMakeFiles/HSU.dir/usr/share/pico-sdk/src/rp2_common/pico_stdio/stdio.c.obj
 *fill*         0x000000001000868d        0x3 
 .rodata.__func__.1
                0x0000000010008690       0x13 CMakeFiles/HSU.dir/usr/share/pico-sdk/src/rp2_common/pico_stdio/stdio.c.obj
 *fill*         0x00000000100086a3        0x1 
 .rodata.crlf_str.3
                0x00000000100086a4        0x2 CMakeFiles/HSU.dir/usr/share/pico-sdk/src/rp2_common/pico_stdio/stdio.c.obj
 *fill*         0x00000000100086a6        0x2 
 .rodata._resetd_driver
                0x00000000100086a8       0x18 CMakeFiles/HSU.dir/usr/share/pico-sdk/src/rp2_common/pico_stdio_usb/reset_interface.c.obj
 .rodata.update_us_since_boot.str1.4
                0x00000000100086c0       0x5a CMakeFiles/HSU.dir/usr/share/pico-sdk/src/rp2_common/pico_stdio_usb/stdio_usb.c.obj
 .rodata.__func__.0
                0x00000000100086c0       0x15 CMakeFiles/HSU.dir/usr/share/pico-sdk/src/rp2_common/pico_stdio_usb/stdio_usb.c.obj
 *fill*         0x00000000100086d5        0x3 
 .rodata.str1.4
                0x00000000100086d8       0x13 CMakeFiles/HSU.dir/usr/share/pico-sdk/src/rp2_common/pico_stdio_usb/stdio_usb.c.obj
 *fill*         0x00000000100086eb        0x1 
 .rodata.__bi_93.1
                0x00000000100086ec        0xc CMakeFiles/HSU.dir/usr/share/pico-sdk/src/rp2_common/pico_stdio_usb/stdio_usb.c.obj
 .rodata.str1.4
                0x00000000100086f8       0x2a CMakeFiles/HSU.dir/usr/share/pico-sdk/src/rp2_common/pico_stdio_usb/stdio_usb_descriptors.c.obj
 *fill*         0x0000000010008722        0x2 
 .rodata.usbd_desc_str
                0x0000000010008724       0x18 CMakeFiles/HSU.dir/usr/share/pico-sdk/src/rp2_common/pico_stdio_usb/stdio_usb_descriptors.c.obj
 .rodata.usbd_desc_cfg
                0x000000001000873c       0x54 CMakeFiles/HSU.dir/usr/share/pico-sdk/src/rp2_common/pico_stdio_usb/stdio_usb_descriptors.c.obj
 .rodata.usbd_desc_device
                0x0000000010008790       0x12 CMakeFiles/HSU.dir/usr/share/pico-sdk/src/rp2_common/pico_stdio_usb/stdio_usb_descriptors.c.obj
 *fill*         0x00000000100087a2        0x2 
 .rodata._hw_endpoint_alloc.str1.4
                0x00000000100087a4       0xb1 CMakeFiles/HSU.dir/usr/share/pico-sdk/lib/tinyusb/src/portable/raspberrypi/rp2040/dcd_rp2040.c.obj
 *fill*         0x0000000010008855        0x3 
 .rodata.dcd_rp2040_irq.str1.4
                0x0000000010008858       0x14 CMakeFiles/HSU.dir/usr/share/pico-sdk/lib/tinyusb/src/portable/raspberrypi/rp2040/dcd_rp2040.c.obj
 .rodata.dcd_int_enable.str1.4
                0x000000001000886c        0xc CMakeFiles/HSU.dir/usr/share/pico-sdk/lib/tinyusb/src/portable/raspberrypi/rp2040/dcd_rp2040.c.obj
 .rodata.__func__.0
                0x0000000010008878        0xe CMakeFiles/HSU.dir/usr/share/pico-sdk/lib/tinyusb/src/portable/raspberrypi/rp2040/dcd_rp2040.c.obj
 *fill*         0x0000000010008886        0x2 
 .rodata.__func__.1
                0x0000000010008888        0xe CMakeFiles/HSU.dir/usr/share/pico-sdk/lib/tinyusb/src/portable/raspberrypi/rp2040/dcd_rp2040.c.obj
 *fill*         0x0000000010008896        0x2 
 .rodata.__func__.3
                0x0000000010008898       0x10 CMakeFiles/HSU.dir/usr/share/pico-sdk/lib/tinyusb/src/portable/raspberrypi/rp2040/dcd_rp2040.c.obj
 .rodata.__func__.5
                0x00000000100088a8        0xf CMakeFiles/HSU.dir/usr/share/pico-sdk/lib/tinyusb/src/portable/raspberrypi/rp2040/dcd_rp2040.c.obj
 *fill*         0x00000000100088b7        0x1 
 .rodata.__func__.6
                0x00000000100088b8       0x13 CMakeFiles/HSU.dir/usr/share/pico-sdk/lib/tinyusb/src/portable/raspberrypi/rp2040/dcd_rp2040.c.obj
 *fill*         0x00000000100088cb        0x1 
 .rodata.__func__.7
                0x00000000100088cc        0x9 CMakeFiles/HSU.dir/usr/share/pico-sdk/lib/tinyusb/src/portable/raspberrypi/rp2040/dcd_rp2040.c.obj
 *fill*         0x00000000100088d5        0x3 
 .rodata.sync_ep_buffer.str1.4
                0x00000000100088d8       0x8d CMakeFiles/HSU.dir/usr/share/pico-sdk/lib/tinyusb/src/portable/raspberrypi/rp2040/rp2040_usb.c.obj
 *fill*         0x0000000010008965        0x3 
 .rodata._hw_endpoint_buffer_control_update32.str1.4
                0x0000000010008968       0x1f CMakeFiles/HSU.dir/usr/share/pico-sdk/lib/tinyusb/src/portable/raspberrypi/rp2040/rp2040_usb.c.obj
 *fill*         0x0000000010008987        0x1 
 .rodata.hw_endpoint_xfer_start.str1.4
                0x0000000010008988       0x38 CMakeFiles/HSU.dir/usr/share/pico-sdk/lib/tinyusb/src/portable/raspberrypi/rp2040/rp2040_usb.c.obj
 .rodata.hw_endpoint_xfer_continue.str1.4
                0x00000000100089c0       0x29 CMakeFiles/HSU.dir/usr/share/pico-sdk/lib/tinyusb/src/portable/raspberrypi/rp2040/rp2040_usb.c.obj
 *fill*         0x00000000100089e9        0x3 
 .rodata.__func__.0
                0x00000000100089ec        0xf CMakeFiles/HSU.dir/usr/share/pico-sdk/lib/tinyusb/src/portable/raspberrypi/rp2040/rp2040_usb.c.obj
 *fill*         0x00000000100089fb        0x1 
 .rodata.str1.4
                0x00000000100089fc        0x7 CMakeFiles/HSU.dir/usr/share/pico-sdk/lib/tinyusb/src/portable/raspberrypi/rp2040/rp2040_usb.c.obj
 *fill*         0x0000000010008a03        0x1 
 .rodata.process_set_config.str1.4
                0x0000000010008a04       0x17 CMakeFiles/HSU.dir/usr/share/pico-sdk/lib/tinyusb/src/device/usbd.c.obj
 *fill*         0x0000000010008a1b        0x1 
 .rodata.process_get_descriptor
                0x0000000010008a1c       0x40 CMakeFiles/HSU.dir/usr/share/pico-sdk/lib/tinyusb/src/device/usbd.c.obj
 .rodata.process_control_request
                0x0000000010008a5c       0x28 CMakeFiles/HSU.dir/usr/share/pico-sdk/lib/tinyusb/src/device/usbd.c.obj
 .rodata.tud_task
                0x0000000010008a84       0x24 CMakeFiles/HSU.dir/usr/share/pico-sdk/lib/tinyusb/src/device/usbd.c.obj
 .rodata.__func__.2
                0x0000000010008aa8        0xf CMakeFiles/HSU.dir/usr/share/pico-sdk/lib/tinyusb/src/device/usbd.c.obj
 *fill*         0x0000000010008ab7        0x1 
 .rodata.__func__.3
                0x0000000010008ab8        0xf CMakeFiles/HSU.dir/usr/share/pico-sdk/lib/tinyusb/src/device/usbd.c.obj
 *fill*         0x0000000010008ac7        0x1 
 .rodata.__func__.4
                0x0000000010008ac8       0x14 CMakeFiles/HSU.dir/usr/share/pico-sdk/lib/tinyusb/src/device/usbd.c.obj
 .rodata.__func__.5
                0x0000000010008adc       0x10 CMakeFiles/HSU.dir/usr/share/pico-sdk/lib/tinyusb/src/device/usbd.c.obj
 .rodata.__func__.6
                0x0000000010008aec       0x17 CMakeFiles/HSU.dir/usr/share/pico-sdk/lib/tinyusb/src/device/usbd.c.obj
 *fill*         0x0000000010008b03        0x1 
 .rodata.__func__.7
                0x0000000010008b04       0x13 CMakeFiles/HSU.dir/usr/share/pico-sdk/lib/tinyusb/src/device/usbd.c.obj
 *fill*         0x0000000010008b17        0x1 
 .rodata.__func__.8
                0x0000000010008b18       0x18 CMakeFiles/HSU.dir/usr/share/pico-sdk/lib/tinyusb/src/device/usbd.c.obj
 .rodata.__func__.9
                0x0000000010008b30        0x9 CMakeFiles/HSU.dir/usr/share/pico-sdk/lib/tinyusb/src/device/usbd.c.obj
 *fill*         0x0000000010008b39        0x3 
 .rodata._usbd_driver
                0x0000000010008b3c       0x18 CMakeFiles/HSU.dir/usr/share/pico-sdk/lib/tinyusb/src/device/usbd.c.obj
 .rodata.tud_control_xfer.str1.4
                0x0000000010008b54       0x17 CMakeFiles/HSU.dir/usr/share/pico-sdk/lib/tinyusb/src/device/usbd_control.c.obj
 .rodata.__func__.0
                0x0000000010008b54       0x15 CMakeFiles/HSU.dir/usr/share/pico-sdk/lib/tinyusb/src/device/usbd_control.c.obj
 *fill*         0x0000000010008b69        0x3 
 .rodata.__func__.1
                0x0000000010008b6c       0x11 CMakeFiles/HSU.dir/usr/share/pico-sdk/lib/tinyusb/src/device/usbd_control.c.obj
 .rodata.tud_cdc_n_write_flush.str1.4
                0x0000000010008b7d       0x17 CMakeFiles/HSU.dir/usr/share/pico-sdk/lib/tinyusb/src/class/cdc/cdc_device.c.obj
 *fill*         0x0000000010008b7d        0x3 
 .rodata.__func__.0
                0x0000000010008b80        0xd CMakeFiles/HSU.dir/usr/share/pico-sdk/lib/tinyusb/src/class/cdc/cdc_device.c.obj
 *fill*         0x0000000010008b8d        0x3 
 .rodata.__func__.1
                0x0000000010008b90        0xa CMakeFiles/HSU.dir/usr/share/pico-sdk/lib/tinyusb/src/class/cdc/cdc_device.c.obj
 *fill*         0x0000000010008b9a        0x2 
 .rodata.__func__.2
                0x0000000010008b9c       0x16 CMakeFiles/HSU.dir/usr/share/pico-sdk/lib/tinyusb/src/class/cdc/cdc_device.c.obj
 .rodata.tusb_init.str1.4
                0x0000000010008bb2       0x17 CMakeFiles/HSU.dir/usr/share/pico-sdk/lib/tinyusb/src/tusb.c.obj
 *fill*         0x0000000010008bb2        0x2 
 .rodata.__func__.0
                0x0000000010008bb4       0x11 CMakeFiles/HSU.dir/usr/share/pico-sdk/lib/tinyusb/src/tusb.c.obj
 *fill*         0x0000000010008bc5        0x3 
 .rodata.__func__.1
                0x0000000010008bc8        0xa CMakeFiles/HSU.dir/usr/share/pico-sdk/lib/tinyusb/src/tusb.c.obj
 *fill*         0x0000000010008bd2        0x2 
 .rodata.pico_get_unique_board_id_string.str1.4
                0x0000000010008bd4       0x46 CMakeFiles/HSU.dir/usr/share/pico-sdk/src/rp2_common/pico_unique_id/unique_id.c.obj
 *fill*         0x0000000010008c1a        0x2 
 .rodata.__func__.0
                0x0000000010008c1c       0x20 CMakeFiles/HSU.dir/usr/share/pico-sdk/src/rp2_common/pico_unique_id/unique_id.c.obj
 .rodata.str1.4
                0x0000000010008c3c      0x152 CMakeFiles/HSU.dir/usr/share/pico-sdk/src/rp2_common/hardware_flash/flash.c.obj
 *fill*         0x0000000010008d8e        0x2 
 .rodata.__func__.0
                0x0000000010008d90        0xd CMakeFiles/HSU.dir/usr/share/pico-sdk/src/rp2_common/hardware_flash/flash.c.obj
 *fill*         0x0000000010008d9d        0x3 
 .rodata._global_impure_ptr
                0x0000000010008da0        0x4 /usr/lib/gcc/arm-none-eabi/12.1.0/../../../../arm-none-eabi/lib/thumb/v6-m/nofp/libg.a(lib_a-impure.o)
                0x0000000010008da0                _global_impure_ptr
                0x0000000010008da4                . = ALIGN (0x4)
 *(SORT_BY_ALIGNMENT(SORT_BY_NAME(.flashdata*)))
                0x0000000010008da4                . = ALIGN (0x4)

.rel.dyn        0x0000000010008da4        0x0
 .rel.iplt      0x0000000010008da4        0x0 /usr/lib/gcc/arm-none-eabi/12.1.0/thumb/v6-m/nofp/crtbegin.o

.ARM.extab
 *(.ARM.extab* .gnu.linkonce.armextab.*)
                0x0000000010008da4                __exidx_start = .

.ARM.exidx
 *(.ARM.exidx* .gnu.linkonce.armexidx.*)
                0x0000000010008da4                __exidx_end = .
                0x0000000010008da4                . = ALIGN (0x4)
                0x0000000010008da4                __binary_info_start = .

.binary_info    0x0000000010008da4       0x24
 *(.binary_info.keep.*)
 .binary_info.keep.__bi_ptr81
                0x0000000010008da4        0x4 CMakeFiles/HSU.dir/usr/share/pico-sdk/src/rp2_common/pico_standard_link/binary_info.c.obj
 .binary_info.keep.__bi_ptr75
                0x0000000010008da8        0x4 CMakeFiles/HSU.dir/usr/share/pico-sdk/src/rp2_common/pico_standard_link/binary_info.c.obj
 .binary_info.keep.__bi_ptr56
                0x0000000010008dac        0x4 CMakeFiles/HSU.dir/usr/share/pico-sdk/src/rp2_common/pico_standard_link/binary_info.c.obj
 .binary_info.keep.__bi_ptr50
                0x0000000010008db0        0x4 CMakeFiles/HSU.dir/usr/share/pico-sdk/src/rp2_common/pico_standard_link/binary_info.c.obj
 .binary_info.keep.__bi_ptr44
                0x0000000010008db4        0x4 CMakeFiles/HSU.dir/usr/share/pico-sdk/src/rp2_common/pico_standard_link/binary_info.c.obj
 .binary_info.keep.__bi_ptr38
                0x0000000010008db8        0x4 CMakeFiles/HSU.dir/usr/share/pico-sdk/src/rp2_common/pico_standard_link/binary_info.c.obj
 .binary_info.keep.__bi_ptr30
                0x0000000010008dbc        0x4 CMakeFiles/HSU.dir/usr/share/pico-sdk/src/rp2_common/pico_standard_link/binary_info.c.obj
 .binary_info.keep.__bi_ptr22
                0x0000000010008dc0        0x4 CMakeFiles/HSU.dir/usr/share/pico-sdk/src/rp2_common/pico_standard_link/binary_info.c.obj
 *(.binary_info.*)
 .binary_info.__bi_ptr93
                0x0000000010008dc4        0x4 CMakeFiles/HSU.dir/usr/share/pico-sdk/src/rp2_common/pico_stdio_usb/stdio_usb.c.obj
                0x0000000010008dc8                __binary_info_end = .
                0x0000000010008dc8                . = ALIGN (0x4)
                0x0000000010008dc8                __etext = .

.ram_vector_table
                0x0000000020000000       0xc0
 *(.ram_vector_table)
 .ram_vector_table
                0x0000000020000000       0xc0 CMakeFiles/HSU.dir/usr/share/pico-sdk/src/rp2_common/pico_runtime/runtime.c.obj
                0x0000000020000000                ram_vector_table

.data           0x00000000200000c0      0x8a0 load address 0x0000000010008dc8
                0x00000000200000c0                __data_start__ = .
 *(vtable)
 *(.time_critical*)
 .time_critical.mutex_enter_blocking
                0x00000000200000c0       0x48 CMakeFiles/HSU.dir/usr/share/pico-sdk/src/common/pico_sync/mutex.c.obj
                0x00000000200000c0                mutex_enter_blocking
 .time_critical.mutex_try_enter
                0x0000000020000108       0x46 CMakeFiles/HSU.dir/usr/share/pico-sdk/src/common/pico_sync/mutex.c.obj
                0x0000000020000108                mutex_try_enter
 *fill*         0x000000002000014e        0x2 
 .time_critical.mutex_enter_block_until
                0x0000000020000150       0x8c CMakeFiles/HSU.dir/usr/share/pico-sdk/src/common/pico_sync/mutex.c.obj
                0x0000000020000150                mutex_enter_block_until
 .time_critical.mutex_enter_timeout_ms
                0x00000000200001dc       0x1a CMakeFiles/HSU.dir/usr/share/pico-sdk/src/common/pico_sync/mutex.c.obj
                0x00000000200001dc                mutex_enter_timeout_ms
 *fill*         0x00000000200001f6        0x2 
 .time_critical.mutex_exit
                0x00000000200001f8       0x4c CMakeFiles/HSU.dir/usr/share/pico-sdk/src/common/pico_sync/mutex.c.obj
                0x00000000200001f8                mutex_exit
 .time_critical.flash_init_boot2_copyout
                0x0000000020000244       0x30 CMakeFiles/HSU.dir/usr/share/pico-sdk/src/rp2_common/hardware_flash/flash.c.obj
 .time_critical.flash_enable_xip_via_boot2
                0x0000000020000274        0xc CMakeFiles/HSU.dir/usr/share/pico-sdk/src/rp2_common/hardware_flash/flash.c.obj
 .time_critical.flash_cs_force
                0x0000000020000280       0x28 CMakeFiles/HSU.dir/usr/share/pico-sdk/src/rp2_common/hardware_flash/flash.c.obj
 .time_critical.flash_do_cmd
                0x00000000200002a8       0xd8 CMakeFiles/HSU.dir/usr/share/pico-sdk/src/rp2_common/hardware_flash/flash.c.obj
                0x00000000200002a8                flash_do_cmd
 *(.text*)
 .text          0x0000000020000380        0x4 /usr/lib/gcc/arm-none-eabi/12.1.0/thumb/v6-m/nofp/libgcc.a(_dvmd_tls.o)
                0x0000000020000380                __aeabi_ldiv0
                0x0000000020000380                __aeabi_idiv0
 *fill*         0x0000000020000384        0x4 
 .text.__stub   0x0000000020000388       0x30 linker stubs
                0x00000000200003b8                . = ALIGN (0x4)
 *(.rodata*)
                0x00000000200003b8                . = ALIGN (0x4)
 *(.data*)
 .data.authRes  0x00000000200003b8       0x10 CMakeFiles/HSU.dir/HSU.c.obj
                0x00000000200003b8                authRes
 .data.getCardUidRes
                0x00000000200003c8       0x1e CMakeFiles/HSU.dir/HSU.c.obj
                0x00000000200003c8                getCardUidRes
 *fill*         0x00000000200003e6        0x2 
 .data.getFwRes
                0x00000000200003e8       0x14 CMakeFiles/HSU.dir/HSU.c.obj
                0x00000000200003e8                getFwRes
 .data.sleepRes
                0x00000000200003fc       0x10 CMakeFiles/HSU.dir/HSU.c.obj
                0x00000000200003fc                sleepRes
 .data.wkUpRes  0x000000002000040c       0x20 CMakeFiles/HSU.dir/HSU.c.obj
                0x000000002000040c                wkUpRes
 .data.readAddressBuffer
                0x000000002000042c       0x10 CMakeFiles/HSU.dir/HSU.c.obj
                0x000000002000042c                readAddressBuffer
 .data.striped_spin_lock_num
                0x000000002000043c        0x1 CMakeFiles/HSU.dir/usr/share/pico-sdk/src/rp2_common/hardware_sync/sync.c.obj
 *fill*         0x000000002000043d        0x3 
 .data.default_alarm_pool
                0x0000000020000440       0x18 CMakeFiles/HSU.dir/usr/share/pico-sdk/src/common/pico_time/time.c.obj
 .data.default_alarm_pool_heap
                0x0000000020000458       0x10 CMakeFiles/HSU.dir/usr/share/pico-sdk/src/common/pico_time/time.c.obj
 .data          0x0000000020000468       0x48 CMakeFiles/HSU.dir/usr/share/pico-sdk/src/rp2_common/hardware_irq/irq_handler_chain.S.obj
                0x0000000020000468                irq_handler_chain_slots
                0x0000000020000498                irq_handler_chain_first_slot
                0x00000000200004a2                irq_handler_chain_remove_tail
 *fill*         0x00000000200004b0        0x0 
 .data.aeabi_bits_funcs
                0x00000000200004b0       0x10 CMakeFiles/HSU.dir/usr/share/pico-sdk/src/rp2_common/pico_bit_ops/bit_ops_aeabi.S.obj
                0x00000000200004b0                aeabi_bits_funcs
                0x00000000200004c0                aeabi_bits_funcs_end
 .data.aeabi_mem_funcs
                0x00000000200004c0       0x10 CMakeFiles/HSU.dir/usr/share/pico-sdk/src/rp2_common/pico_mem_ops/mem_ops_aeabi.S.obj
                0x00000000200004c0                aeabi_mem_funcs
                0x00000000200004d0                aeabi_mem_funcs_end
 .data.stdio_usb
                0x00000000200004d0       0x14 CMakeFiles/HSU.dir/usr/share/pico-sdk/src/rp2_common/pico_stdio_usb/stdio_usb.c.obj
                0x00000000200004d0                stdio_usb
 .data.ep_dir_string
                0x00000000200004e4        0x8 CMakeFiles/HSU.dir/usr/share/pico-sdk/lib/tinyusb/src/portable/raspberrypi/rp2040/rp2040_usb.c.obj
                0x00000000200004e4                ep_dir_string
 .data._usbd_qdef
                0x00000000200004ec       0x24 CMakeFiles/HSU.dir/usr/share/pico-sdk/lib/tinyusb/src/device/usbd.c.obj
                0x00000000200004ec                _usbd_qdef
 .data.impure_data
                0x0000000020000510      0x428 /usr/lib/gcc/arm-none-eabi/12.1.0/../../../../arm-none-eabi/lib/thumb/v6-m/nofp/libg.a(lib_a-impure.o)
 .data.__atexit_recursive_mutex
                0x0000000020000938        0x4 /usr/lib/gcc/arm-none-eabi/12.1.0/../../../../arm-none-eabi/lib/thumb/v6-m/nofp/libg.a(lib_a-__call_atexit.o)
                0x0000000020000938                __atexit_recursive_mutex
                0x000000002000093c                . = ALIGN (0x4)
 *(.after_data.*)
                0x000000002000093c                . = ALIGN (0x4)
                0x000000002000093c                PROVIDE (__mutex_array_start = .)
 *(SORT_BY_NAME(.mutex_array.*))
 *(.mutex_array)
 .mutex_array   0x000000002000093c        0x8 CMakeFiles/HSU.dir/usr/share/pico-sdk/src/rp2_common/pico_stdio/stdio.c.obj
                0x0000000020000944                PROVIDE (__mutex_array_end = .)
                0x0000000020000944                . = ALIGN (0x4)
                0x0000000020000944                PROVIDE (__preinit_array_start = .)
 *(SORT_BY_NAME(.preinit_array.*))
 .preinit_array.00001
                0x0000000020000944        0x4 CMakeFiles/HSU.dir/usr/share/pico-sdk/src/rp2_common/pico_mem_ops/mem_ops_aeabi.S.obj
 .preinit_array.00010
                0x0000000020000948        0x4 CMakeFiles/HSU.dir/usr/share/pico-sdk/src/rp2_common/pico_bit_ops/bit_ops_aeabi.S.obj
 .preinit_array.00020
                0x000000002000094c        0x4 CMakeFiles/HSU.dir/usr/share/pico-sdk/src/rp2_common/pico_double/double_aeabi.S.obj
 .preinit_array.00020
                0x0000000020000950        0x4 CMakeFiles/HSU.dir/usr/share/pico-sdk/src/rp2_common/pico_float/float_aeabi.S.obj
 *(.preinit_array)
                0x0000000020000954                PROVIDE (__preinit_array_end = .)
                0x0000000020000954                . = ALIGN (0x4)
                0x0000000020000954                PROVIDE (__init_array_start = .)
 *(SORT_BY_NAME(.init_array.*))
 .init_array.00000
                0x0000000020000954        0x4 /usr/lib/gcc/arm-none-eabi/12.1.0/../../../../arm-none-eabi/lib/thumb/v6-m/nofp/libg.a(lib_a-__call_atexit.o)
 *(.init_array)
 .init_array    0x0000000020000958        0x4 /usr/lib/gcc/arm-none-eabi/12.1.0/thumb/v6-m/nofp/crtbegin.o
 .init_array    0x000000002000095c        0x4 CMakeFiles/HSU.dir/usr/share/pico-sdk/src/rp2_common/pico_unique_id/unique_id.c.obj
                0x0000000020000960                PROVIDE (__init_array_end = .)
                0x0000000020000960                . = ALIGN (0x4)
                0x0000000020000960                PROVIDE (__fini_array_start = .)
 *(SORT_BY_NAME(.fini_array.*))
 *(.fini_array)
                0x0000000020000960                PROVIDE (__fini_array_end = .)
 *(.jcr)
                0x0000000020000960                . = ALIGN (0x4)
                0x0000000020000960                __data_end__ = .

.igot.plt       0x0000000020000960        0x0 load address 0x0000000010009668
 .igot.plt      0x0000000020000960        0x0 /usr/lib/gcc/arm-none-eabi/12.1.0/thumb/v6-m/nofp/crtbegin.o

.uninitialized_data
                0x0000000020000960        0x0 load address 0x0000000010009668
                0x0000000020000960                . = ALIGN (0x4)
 *(.uninitialized_data*)

.scratch_x      0x0000000020040000        0x0 load address 0x0000000010009668
                0x0000000020040000                __scratch_x_start__ = .
 *(.scratch_x.*)
                0x0000000020040000                . = ALIGN (0x4)
                0x0000000020040000                __scratch_x_end__ = .
                0x0000000010009668                __scratch_x_source__ = LOADADDR (.scratch_x)

.scratch_y      0x0000000020041000        0x0 load address 0x0000000010009668
                0x0000000020041000                __scratch_y_start__ = .
 *(.scratch_y.*)
                0x0000000020041000                . = ALIGN (0x4)
                0x0000000020041000                __scratch_y_end__ = .
                0x0000000010009668                __scratch_y_source__ = LOADADDR (.scratch_y)

.bss            0x0000000020000960      0xd84
                0x0000000020000960                . = ALIGN (0x4)
                0x0000000020000960                __bss_start__ = .
 *(SORT_BY_ALIGNMENT(SORT_BY_NAME(.bss*)))
 .bss.default_alarm_pool_entries
                0x0000000020000960      0x100 CMakeFiles/HSU.dir/usr/share/pico-sdk/src/common/pico_time/time.c.obj
 .bss.last_avail_time.2
                0x0000000020000a60        0x8 CMakeFiles/HSU.dir/usr/share/pico-sdk/src/rp2_common/pico_stdio_usb/stdio_usb.c.obj
 .bss.__lock___atexit_recursive_mutex
                0x0000000020000a68        0x1 /usr/lib/gcc/arm-none-eabi/12.1.0/../../../../arm-none-eabi/lib/thumb/v6-m/nofp/libg.a(lib_a-lock.o)
                0x0000000020000a68                __lock___atexit_recursive_mutex
 *fill*         0x0000000020000a69        0x3 
 .bss._app_driver
                0x0000000020000a6c        0x4 CMakeFiles/HSU.dir/usr/share/pico-sdk/lib/tinyusb/src/device/usbd.c.obj
 .bss._cdcd_itf
                0x0000000020000a70      0x2d8 CMakeFiles/HSU.dir/usr/share/pico-sdk/lib/tinyusb/src/class/cdc/cdc_device.c.obj
 .bss._ctrl_xfer
                0x0000000020000d48       0x14 CMakeFiles/HSU.dir/usr/share/pico-sdk/lib/tinyusb/src/device/usbd_control.c.obj
 .bss._ubsd_mutexdef
                0x0000000020000d5c        0x8 CMakeFiles/HSU.dir/usr/share/pico-sdk/lib/tinyusb/src/device/usbd.c.obj
 .bss._usbd_ctrl_buf
                0x0000000020000d64       0x40 CMakeFiles/HSU.dir/usr/share/pico-sdk/lib/tinyusb/src/device/usbd_control.c.obj
 .bss._usbd_dev
                0x0000000020000da4       0x53 CMakeFiles/HSU.dir/usr/share/pico-sdk/lib/tinyusb/src/device/usbd.c.obj
 *fill*         0x0000000020000df7        0x1 
 .bss._usbd_mutex
                0x0000000020000df8        0x4 CMakeFiles/HSU.dir/usr/share/pico-sdk/lib/tinyusb/src/device/usbd.c.obj
 .bss._usbd_q   0x0000000020000dfc        0x4 CMakeFiles/HSU.dir/usr/share/pico-sdk/lib/tinyusb/src/device/usbd.c.obj
 .bss._usbd_qdef_buf
                0x0000000020000e00       0xc0 CMakeFiles/HSU.dir/usr/share/pico-sdk/lib/tinyusb/src/device/usbd.c.obj
                0x0000000020000e00                _usbd_qdef_buf
 .bss.alarm_callbacks
                0x0000000020000ec0       0x10 CMakeFiles/HSU.dir/usr/share/pico-sdk/src/rp2_common/hardware_timer/timer.c.obj
 .bss.boot2_copyout
                0x0000000020000ed0      0x100 CMakeFiles/HSU.dir/usr/share/pico-sdk/src/rp2_common/hardware_flash/flash.c.obj
 .bss.claimed   0x0000000020000fd0        0x4 CMakeFiles/HSU.dir/usr/share/pico-sdk/src/rp2_common/hardware_sync/sync.c.obj
 .bss.configured_freq
                0x0000000020000fd4       0x28 CMakeFiles/HSU.dir/usr/share/pico-sdk/src/rp2_common/hardware_clocks/clocks.c.obj
 .bss.default_alarm_pool_entry_ids_high
                0x0000000020000ffc       0x10 CMakeFiles/HSU.dir/usr/share/pico-sdk/src/common/pico_time/time.c.obj
 .bss.default_alarm_pool_heap_nodes
                0x000000002000100c       0x30 CMakeFiles/HSU.dir/usr/share/pico-sdk/src/common/pico_time/time.c.obj
 .bss.desc_str.0
                0x000000002000103c       0x28 CMakeFiles/HSU.dir/usr/share/pico-sdk/src/rp2_common/pico_stdio_usb/stdio_usb_descriptors.c.obj
 .bss.drivers   0x0000000020001064        0x4 CMakeFiles/HSU.dir/usr/share/pico-sdk/src/rp2_common/pico_stdio/stdio.c.obj
 .bss.filter    0x0000000020001068        0x4 CMakeFiles/HSU.dir/usr/share/pico-sdk/src/rp2_common/pico_stdio/stdio.c.obj
 .bss.hw_endpoints
                0x000000002000106c      0x400 CMakeFiles/HSU.dir/usr/share/pico-sdk/lib/tinyusb/src/portable/raspberrypi/rp2040/dcd_rp2040.c.obj
 .bss.load_value
                0x000000002000146c        0x4 CMakeFiles/HSU.dir/usr/share/pico-sdk/src/rp2_common/hardware_watchdog/watchdog.c.obj
 .bss.next_buffer_ptr
                0x0000000020001470        0x4 CMakeFiles/HSU.dir/usr/share/pico-sdk/lib/tinyusb/src/portable/raspberrypi/rp2040/dcd_rp2040.c.obj
 .bss.object.0  0x0000000020001474       0x18 /usr/lib/gcc/arm-none-eabi/12.1.0/thumb/v6-m/nofp/crtbegin.o
 .bss.pools     0x000000002000148c       0x10 CMakeFiles/HSU.dir/usr/share/pico-sdk/src/common/pico_time/time.c.obj
 .bss.retrieved_id
                0x000000002000149c        0x8 CMakeFiles/HSU.dir/usr/share/pico-sdk/src/rp2_common/pico_unique_id/unique_id.c.obj
 .bss.sd_table  0x00000000200014a4      0x100 CMakeFiles/HSU.dir/usr/share/pico-sdk/src/rp2_common/pico_double/double_init_rom.c.obj
                0x00000000200014a4                sd_table
 .bss.sf_clz_func
                0x00000000200015a4        0x4 CMakeFiles/HSU.dir/usr/share/pico-sdk/src/rp2_common/pico_double/double_init_rom.c.obj
                0x00000000200015a4                sf_clz_func
 .bss.sf_table  0x00000000200015a8      0x100 CMakeFiles/HSU.dir/usr/share/pico-sdk/src/rp2_common/pico_float/float_init_rom.c.obj
                0x00000000200015a8                sf_table
 .bss.sleep_notifier
                0x00000000200016a8        0x4 CMakeFiles/HSU.dir/usr/share/pico-sdk/src/common/pico_time/time.c.obj
 .bss.stdio_usb_mutex
                0x00000000200016ac        0x8 CMakeFiles/HSU.dir/usr/share/pico-sdk/src/rp2_common/pico_stdio_usb/stdio_usb.c.obj
 .bss.targetUid
                0x00000000200016b4        0x4 CMakeFiles/HSU.dir/HSU.c.obj
                0x00000000200016b4                targetUid
 .bss.target_hi
                0x00000000200016b8       0x10 CMakeFiles/HSU.dir/usr/share/pico-sdk/src/rp2_common/hardware_timer/timer.c.obj
 .bss.uart_char_to_line_feed
                0x00000000200016c8        0x4 CMakeFiles/HSU.dir/usr/share/pico-sdk/src/rp2_common/hardware_uart/uart.c.obj
                0x00000000200016c8                uart_char_to_line_feed
 .bss.usbd_serial_str
                0x00000000200016cc       0x11 CMakeFiles/HSU.dir/usr/share/pico-sdk/src/rp2_common/pico_stdio_usb/stdio_usb_descriptors.c.obj
 .bss._app_driver_count
                0x00000000200016dd        0x1 CMakeFiles/HSU.dir/usr/share/pico-sdk/lib/tinyusb/src/device/usbd.c.obj
 .bss._usbd_initialized
                0x00000000200016de        0x1 CMakeFiles/HSU.dir/usr/share/pico-sdk/lib/tinyusb/src/device/usbd.c.obj
 .bss.boot2_copyout_valid
                0x00000000200016df        0x1 CMakeFiles/HSU.dir/usr/share/pico-sdk/src/rp2_common/hardware_flash/flash.c.obj
 .bss.claimed   0x00000000200016e0        0x1 CMakeFiles/HSU.dir/usr/share/pico-sdk/src/rp2_common/hardware_timer/timer.c.obj
 .bss.irq_hander_chain_free_slot_head
                0x00000000200016e1        0x1 CMakeFiles/HSU.dir/usr/share/pico-sdk/src/rp2_common/hardware_irq/irq.c.obj
 .bss.itf_num   0x00000000200016e2        0x1 CMakeFiles/HSU.dir/usr/share/pico-sdk/src/rp2_common/pico_stdio_usb/reset_interface.c.obj
 .bss.timer_callbacks_pending
                0x00000000200016e3        0x1 CMakeFiles/HSU.dir/usr/share/pico-sdk/src/rp2_common/hardware_timer/timer.c.obj
 *(COMMON)
                0x00000000200016e4                . = ALIGN (0x4)
                0x00000000200016e4                __bss_end__ = .

.heap           0x00000000200016e4      0x800
                0x00000000200016e4                __end__ = .
                0x00000000200016e4                end = __end__
 *(.heap*)
 .heap          0x00000000200016e4      0x800 CMakeFiles/HSU.dir/usr/share/pico-sdk/src/rp2_common/pico_standard_link/crt0.S.obj
                0x0000000020001ee4                __HeapLimit = .

.stack1_dummy   0x0000000020040000        0x0
 *(.stack1*)

.stack_dummy    0x0000000020041000      0x800
 *(.stack*)
 .stack         0x0000000020041000      0x800 CMakeFiles/HSU.dir/usr/share/pico-sdk/src/rp2_common/pico_standard_link/crt0.S.obj

.flash_end      0x0000000010009668        0x0
                0x0000000010009668                __flash_binary_end = .
                0x0000000020040000                __StackLimit = (ORIGIN (RAM) + LENGTH (RAM))
                0x0000000020041000                __StackOneTop = (ORIGIN (SCRATCH_X) + LENGTH (SCRATCH_X))
                0x0000000020042000                __StackTop = (ORIGIN (SCRATCH_Y) + LENGTH (SCRATCH_Y))
                0x0000000020041000                __StackOneBottom = (__StackOneTop - SIZEOF (.stack1_dummy))
                0x0000000020041800                __StackBottom = (__StackTop - SIZEOF (.stack_dummy))
                0x0000000020042000                PROVIDE (__stack = __StackTop)
                0x0000000000000001                ASSERT ((__StackLimit >= __HeapLimit), region RAM overflowed)
                0x0000000000000001                ASSERT (((__binary_info_header_end - __logical_binary_start) <= 0x100), Binary info must be in first 256 bytes of the binary)
LOAD CMakeFiles/HSU.dir/HSU.c.obj
LOAD CMakeFiles/HSU.dir/usr/share/pico-sdk/src/rp2_common/pico_stdlib/stdlib.c.obj
LOAD CMakeFiles/HSU.dir/usr/share/pico-sdk/src/rp2_common/hardware_gpio/gpio.c.obj
LOAD CMakeFiles/HSU.dir/usr/share/pico-sdk/src/rp2_common/hardware_claim/claim.c.obj
LOAD CMakeFiles/HSU.dir/usr/share/pico-sdk/src/rp2_common/pico_platform/platform.c.obj
LOAD CMakeFiles/HSU.dir/usr/share/pico-sdk/src/rp2_common/hardware_sync/sync.c.obj
LOAD CMakeFiles/HSU.dir/usr/share/pico-sdk/src/rp2_common/hardware_uart/uart.c.obj
LOAD CMakeFiles/HSU.dir/usr/share/pico-sdk/src/rp2_common/hardware_divider/divider.S.obj
LOAD CMakeFiles/HSU.dir/usr/share/pico-sdk/src/common/pico_time/time.c.obj
LOAD CMakeFiles/HSU.dir/usr/share/pico-sdk/src/common/pico_time/timeout_helper.c.obj
LOAD CMakeFiles/HSU.dir/usr/share/pico-sdk/src/rp2_common/hardware_timer/timer.c.obj
LOAD CMakeFiles/HSU.dir/usr/share/pico-sdk/src/common/pico_sync/sem.c.obj
LOAD CMakeFiles/HSU.dir/usr/share/pico-sdk/src/common/pico_sync/lock_core.c.obj
LOAD CMakeFiles/HSU.dir/usr/share/pico-sdk/src/common/pico_sync/mutex.c.obj
LOAD CMakeFiles/HSU.dir/usr/share/pico-sdk/src/common/pico_sync/critical_section.c.obj
LOAD CMakeFiles/HSU.dir/usr/share/pico-sdk/src/common/pico_util/datetime.c.obj
LOAD CMakeFiles/HSU.dir/usr/share/pico-sdk/src/common/pico_util/pheap.c.obj
LOAD CMakeFiles/HSU.dir/usr/share/pico-sdk/src/common/pico_util/queue.c.obj
LOAD CMakeFiles/HSU.dir/usr/share/pico-sdk/src/rp2_common/pico_runtime/runtime.c.obj
LOAD CMakeFiles/HSU.dir/usr/share/pico-sdk/src/rp2_common/hardware_clocks/clocks.c.obj
LOAD CMakeFiles/HSU.dir/usr/share/pico-sdk/src/rp2_common/hardware_irq/irq.c.obj
LOAD CMakeFiles/HSU.dir/usr/share/pico-sdk/src/rp2_common/hardware_irq/irq_handler_chain.S.obj
LOAD CMakeFiles/HSU.dir/usr/share/pico-sdk/src/rp2_common/hardware_pll/pll.c.obj
LOAD CMakeFiles/HSU.dir/usr/share/pico-sdk/src/rp2_common/hardware_vreg/vreg.c.obj
LOAD CMakeFiles/HSU.dir/usr/share/pico-sdk/src/rp2_common/hardware_watchdog/watchdog.c.obj
LOAD CMakeFiles/HSU.dir/usr/share/pico-sdk/src/rp2_common/hardware_xosc/xosc.c.obj
LOAD CMakeFiles/HSU.dir/usr/share/pico-sdk/src/rp2_common/pico_printf/printf.c.obj
LOAD CMakeFiles/HSU.dir/usr/share/pico-sdk/src/rp2_common/pico_bit_ops/bit_ops_aeabi.S.obj
LOAD CMakeFiles/HSU.dir/usr/share/pico-sdk/src/rp2_common/pico_bootrom/bootrom.c.obj
LOAD CMakeFiles/HSU.dir/usr/share/pico-sdk/src/rp2_common/pico_divider/divider.S.obj
LOAD CMakeFiles/HSU.dir/usr/share/pico-sdk/src/rp2_common/pico_double/double_aeabi.S.obj
LOAD CMakeFiles/HSU.dir/usr/share/pico-sdk/src/rp2_common/pico_double/double_init_rom.c.obj
LOAD CMakeFiles/HSU.dir/usr/share/pico-sdk/src/rp2_common/pico_double/double_math.c.obj
LOAD CMakeFiles/HSU.dir/usr/share/pico-sdk/src/rp2_common/pico_double/double_v1_rom_shim.S.obj
LOAD CMakeFiles/HSU.dir/usr/share/pico-sdk/src/rp2_common/pico_int64_ops/pico_int64_ops_aeabi.S.obj
LOAD CMakeFiles/HSU.dir/usr/share/pico-sdk/src/rp2_common/pico_float/float_aeabi.S.obj
LOAD CMakeFiles/HSU.dir/usr/share/pico-sdk/src/rp2_common/pico_float/float_init_rom.c.obj
LOAD CMakeFiles/HSU.dir/usr/share/pico-sdk/src/rp2_common/pico_float/float_math.c.obj
LOAD CMakeFiles/HSU.dir/usr/share/pico-sdk/src/rp2_common/pico_float/float_v1_rom_shim.S.obj
LOAD CMakeFiles/HSU.dir/usr/share/pico-sdk/src/rp2_common/pico_malloc/pico_malloc.c.obj
LOAD CMakeFiles/HSU.dir/usr/share/pico-sdk/src/rp2_common/pico_mem_ops/mem_ops_aeabi.S.obj
LOAD CMakeFiles/HSU.dir/usr/share/pico-sdk/src/rp2_common/pico_standard_link/crt0.S.obj
LOAD CMakeFiles/HSU.dir/usr/share/pico-sdk/src/rp2_common/pico_standard_link/new_delete.cpp.obj
LOAD CMakeFiles/HSU.dir/usr/share/pico-sdk/src/rp2_common/pico_standard_link/binary_info.c.obj
LOAD CMakeFiles/HSU.dir/usr/share/pico-sdk/src/rp2_common/pico_stdio/stdio.c.obj
LOAD CMakeFiles/HSU.dir/usr/share/pico-sdk/src/rp2_common/pico_stdio_usb/reset_interface.c.obj
LOAD CMakeFiles/HSU.dir/usr/share/pico-sdk/src/rp2_common/pico_stdio_usb/stdio_usb.c.obj
LOAD CMakeFiles/HSU.dir/usr/share/pico-sdk/src/rp2_common/pico_stdio_usb/stdio_usb_descriptors.c.obj
LOAD CMakeFiles/HSU.dir/usr/share/pico-sdk/lib/tinyusb/src/portable/raspberrypi/rp2040/dcd_rp2040.c.obj
LOAD CMakeFiles/HSU.dir/usr/share/pico-sdk/lib/tinyusb/src/portable/raspberrypi/rp2040/rp2040_usb.c.obj
LOAD CMakeFiles/HSU.dir/usr/share/pico-sdk/lib/tinyusb/src/device/usbd.c.obj
LOAD CMakeFiles/HSU.dir/usr/share/pico-sdk/lib/tinyusb/src/device/usbd_control.c.obj
LOAD CMakeFiles/HSU.dir/usr/share/pico-sdk/lib/tinyusb/src/class/audio/audio_device.c.obj
LOAD CMakeFiles/HSU.dir/usr/share/pico-sdk/lib/tinyusb/src/class/cdc/cdc_device.c.obj
LOAD CMakeFiles/HSU.dir/usr/share/pico-sdk/lib/tinyusb/src/class/dfu/dfu_device.c.obj
LOAD CMakeFiles/HSU.dir/usr/share/pico-sdk/lib/tinyusb/src/class/dfu/dfu_rt_device.c.obj
LOAD CMakeFiles/HSU.dir/usr/share/pico-sdk/lib/tinyusb/src/class/hid/hid_device.c.obj
LOAD CMakeFiles/HSU.dir/usr/share/pico-sdk/lib/tinyusb/src/class/midi/midi_device.c.obj
LOAD CMakeFiles/HSU.dir/usr/share/pico-sdk/lib/tinyusb/src/class/msc/msc_device.c.obj
LOAD CMakeFiles/HSU.dir/usr/share/pico-sdk/lib/tinyusb/src/class/net/ecm_rndis_device.c.obj
LOAD CMakeFiles/HSU.dir/usr/share/pico-sdk/lib/tinyusb/src/class/net/ncm_device.c.obj
LOAD CMakeFiles/HSU.dir/usr/share/pico-sdk/lib/tinyusb/src/class/usbtmc/usbtmc_device.c.obj
LOAD CMakeFiles/HSU.dir/usr/share/pico-sdk/lib/tinyusb/src/class/vendor/vendor_device.c.obj
LOAD CMakeFiles/HSU.dir/usr/share/pico-sdk/lib/tinyusb/src/class/video/video_device.c.obj
LOAD CMakeFiles/HSU.dir/usr/share/pico-sdk/lib/tinyusb/src/tusb.c.obj
LOAD CMakeFiles/HSU.dir/usr/share/pico-sdk/lib/tinyusb/src/common/tusb_fifo.c.obj
LOAD CMakeFiles/HSU.dir/usr/share/pico-sdk/src/rp2_common/pico_fix/rp2040_usb_device_enumeration/rp2040_usb_device_enumeration.c.obj
LOAD CMakeFiles/HSU.dir/usr/share/pico-sdk/src/rp2_common/pico_unique_id/unique_id.c.obj
LOAD CMakeFiles/HSU.dir/usr/share/pico-sdk/src/rp2_common/hardware_flash/flash.c.obj
LOAD /tmp/cc5V2RVt.o
LOAD /usr/lib/gcc/arm-none-eabi/12.1.0/../../../../arm-none-eabi/lib/thumb/v6-m/nofp/libstdc++.a
LOAD /usr/lib/gcc/arm-none-eabi/12.1.0/../../../../arm-none-eabi/lib/thumb/v6-m/nofp/libm.a
START GROUP
LOAD /usr/lib/gcc/arm-none-eabi/12.1.0/thumb/v6-m/nofp/libgcc.a
LOAD /usr/lib/gcc/arm-none-eabi/12.1.0/../../../../arm-none-eabi/lib/thumb/v6-m/nofp/libg.a
LOAD /usr/lib/gcc/arm-none-eabi/12.1.0/../../../../arm-none-eabi/lib/thumb/v6-m/nofp/libc.a
END GROUP
START GROUP
LOAD /usr/lib/gcc/arm-none-eabi/12.1.0/thumb/v6-m/nofp/libgcc.a
LOAD /usr/lib/gcc/arm-none-eabi/12.1.0/../../../../arm-none-eabi/lib/thumb/v6-m/nofp/libc.a
LOAD /usr/lib/gcc/arm-none-eabi/12.1.0/../../../../arm-none-eabi/lib/thumb/v6-m/nofp/libnosys.a
END GROUP
LOAD /usr/lib/gcc/arm-none-eabi/12.1.0/thumb/v6-m/nofp/crtend.o
LOAD /usr/lib/gcc/arm-none-eabi/12.1.0/thumb/v6-m/nofp/crtn.o
OUTPUT(HSU.elf elf32-littlearm)
LOAD linker stubs

.ARM.attributes
                0x0000000000000000       0x28
 .ARM.attributes
                0x0000000000000000       0x1e /usr/lib/gcc/arm-none-eabi/12.1.0/thumb/v6-m/nofp/crti.o
 .ARM.attributes
                0x000000000000001e       0x2c /usr/lib/gcc/arm-none-eabi/12.1.0/thumb/v6-m/nofp/crtbegin.o
 .ARM.attributes
                0x000000000000004a       0x2c CMakeFiles/HSU.dir/HSU.c.obj
 .ARM.attributes
                0x0000000000000076       0x2c CMakeFiles/HSU.dir/usr/share/pico-sdk/src/rp2_common/hardware_gpio/gpio.c.obj
 .ARM.attributes
                0x00000000000000a2       0x2c CMakeFiles/HSU.dir/usr/share/pico-sdk/src/rp2_common/hardware_claim/claim.c.obj
 .ARM.attributes
                0x00000000000000ce       0x2c CMakeFiles/HSU.dir/usr/share/pico-sdk/src/rp2_common/pico_platform/platform.c.obj
 .ARM.attributes
                0x00000000000000fa       0x2c CMakeFiles/HSU.dir/usr/share/pico-sdk/src/rp2_common/hardware_sync/sync.c.obj
 .ARM.attributes
                0x0000000000000126       0x2c CMakeFiles/HSU.dir/usr/share/pico-sdk/src/rp2_common/hardware_uart/uart.c.obj
 .ARM.attributes
                0x0000000000000152       0x2c CMakeFiles/HSU.dir/usr/share/pico-sdk/src/common/pico_time/time.c.obj
 .ARM.attributes
                0x000000000000017e       0x2c CMakeFiles/HSU.dir/usr/share/pico-sdk/src/rp2_common/hardware_timer/timer.c.obj
 .ARM.attributes
                0x00000000000001aa       0x2c CMakeFiles/HSU.dir/usr/share/pico-sdk/src/common/pico_sync/lock_core.c.obj
 .ARM.attributes
                0x00000000000001d6       0x2c CMakeFiles/HSU.dir/usr/share/pico-sdk/src/common/pico_sync/mutex.c.obj
 .ARM.attributes
                0x0000000000000202       0x2c CMakeFiles/HSU.dir/usr/share/pico-sdk/src/common/pico_sync/critical_section.c.obj
 .ARM.attributes
                0x000000000000022e       0x2c CMakeFiles/HSU.dir/usr/share/pico-sdk/src/common/pico_util/pheap.c.obj
 .ARM.attributes
                0x000000000000025a       0x2c CMakeFiles/HSU.dir/usr/share/pico-sdk/src/rp2_common/pico_runtime/runtime.c.obj
 .ARM.attributes
                0x0000000000000286       0x2c CMakeFiles/HSU.dir/usr/share/pico-sdk/src/rp2_common/hardware_clocks/clocks.c.obj
 .ARM.attributes
                0x00000000000002b2       0x2c CMakeFiles/HSU.dir/usr/share/pico-sdk/src/rp2_common/hardware_irq/irq.c.obj
 .ARM.attributes
                0x00000000000002de       0x22 CMakeFiles/HSU.dir/usr/share/pico-sdk/src/rp2_common/hardware_irq/irq_handler_chain.S.obj
 .ARM.attributes
                0x0000000000000300       0x2c CMakeFiles/HSU.dir/usr/share/pico-sdk/src/rp2_common/hardware_pll/pll.c.obj
 .ARM.attributes
                0x000000000000032c       0x2c CMakeFiles/HSU.dir/usr/share/pico-sdk/src/rp2_common/hardware_watchdog/watchdog.c.obj
 .ARM.attributes
                0x0000000000000358       0x2c CMakeFiles/HSU.dir/usr/share/pico-sdk/src/rp2_common/hardware_xosc/xosc.c.obj
 .ARM.attributes
                0x0000000000000384       0x2c CMakeFiles/HSU.dir/usr/share/pico-sdk/src/rp2_common/pico_printf/printf.c.obj
 .ARM.attributes
                0x00000000000003b0       0x22 CMakeFiles/HSU.dir/usr/share/pico-sdk/src/rp2_common/pico_bit_ops/bit_ops_aeabi.S.obj
 .ARM.attributes
                0x00000000000003d2       0x2c CMakeFiles/HSU.dir/usr/share/pico-sdk/src/rp2_common/pico_bootrom/bootrom.c.obj
 .ARM.attributes
                0x00000000000003fe       0x22 CMakeFiles/HSU.dir/usr/share/pico-sdk/src/rp2_common/pico_divider/divider.S.obj
 .ARM.attributes
                0x0000000000000420       0x22 CMakeFiles/HSU.dir/usr/share/pico-sdk/src/rp2_common/pico_double/double_aeabi.S.obj
 .ARM.attributes
                0x0000000000000442       0x2c CMakeFiles/HSU.dir/usr/share/pico-sdk/src/rp2_common/pico_double/double_init_rom.c.obj
 .ARM.attributes
                0x000000000000046e       0x22 CMakeFiles/HSU.dir/usr/share/pico-sdk/src/rp2_common/pico_double/double_v1_rom_shim.S.obj
 .ARM.attributes
                0x0000000000000490       0x22 CMakeFiles/HSU.dir/usr/share/pico-sdk/src/rp2_common/pico_int64_ops/pico_int64_ops_aeabi.S.obj
 .ARM.attributes
                0x00000000000004b2       0x22 CMakeFiles/HSU.dir/usr/share/pico-sdk/src/rp2_common/pico_float/float_aeabi.S.obj
 .ARM.attributes
                0x00000000000004d4       0x2c CMakeFiles/HSU.dir/usr/share/pico-sdk/src/rp2_common/pico_float/float_init_rom.c.obj
 .ARM.attributes
                0x0000000000000500       0x22 CMakeFiles/HSU.dir/usr/share/pico-sdk/src/rp2_common/pico_float/float_v1_rom_shim.S.obj
 .ARM.attributes
                0x0000000000000522       0x22 CMakeFiles/HSU.dir/usr/share/pico-sdk/src/rp2_common/pico_mem_ops/mem_ops_aeabi.S.obj
 .ARM.attributes
                0x0000000000000544       0x22 CMakeFiles/HSU.dir/usr/share/pico-sdk/src/rp2_common/pico_standard_link/crt0.S.obj
 .ARM.attributes
                0x0000000000000566       0x2c CMakeFiles/HSU.dir/usr/share/pico-sdk/src/rp2_common/pico_standard_link/binary_info.c.obj
 .ARM.attributes
                0x0000000000000592       0x2c CMakeFiles/HSU.dir/usr/share/pico-sdk/src/rp2_common/pico_stdio/stdio.c.obj
 .ARM.attributes
                0x00000000000005be       0x2c CMakeFiles/HSU.dir/usr/share/pico-sdk/src/rp2_common/pico_stdio_usb/reset_interface.c.obj
 .ARM.attributes
                0x00000000000005ea       0x2c CMakeFiles/HSU.dir/usr/share/pico-sdk/src/rp2_common/pico_stdio_usb/stdio_usb.c.obj
 .ARM.attributes
                0x0000000000000616       0x2c CMakeFiles/HSU.dir/usr/share/pico-sdk/src/rp2_common/pico_stdio_usb/stdio_usb_descriptors.c.obj
 .ARM.attributes
                0x0000000000000642       0x2c CMakeFiles/HSU.dir/usr/share/pico-sdk/lib/tinyusb/src/portable/raspberrypi/rp2040/dcd_rp2040.c.obj
 .ARM.attributes
                0x000000000000066e       0x2c CMakeFiles/HSU.dir/usr/share/pico-sdk/lib/tinyusb/src/portable/raspberrypi/rp2040/rp2040_usb.c.obj
 .ARM.attributes
                0x000000000000069a       0x2c CMakeFiles/HSU.dir/usr/share/pico-sdk/lib/tinyusb/src/device/usbd.c.obj
 .ARM.attributes
                0x00000000000006c6       0x2c CMakeFiles/HSU.dir/usr/share/pico-sdk/lib/tinyusb/src/device/usbd_control.c.obj
 .ARM.attributes
                0x00000000000006f2       0x2c CMakeFiles/HSU.dir/usr/share/pico-sdk/lib/tinyusb/src/class/cdc/cdc_device.c.obj
 .ARM.attributes
                0x000000000000071e       0x2c CMakeFiles/HSU.dir/usr/share/pico-sdk/lib/tinyusb/src/tusb.c.obj
 .ARM.attributes
                0x000000000000074a       0x2c CMakeFiles/HSU.dir/usr/share/pico-sdk/lib/tinyusb/src/common/tusb_fifo.c.obj
 .ARM.attributes
                0x0000000000000776       0x2c CMakeFiles/HSU.dir/usr/share/pico-sdk/src/rp2_common/pico_unique_id/unique_id.c.obj
 .ARM.attributes
                0x00000000000007a2       0x2c CMakeFiles/HSU.dir/usr/share/pico-sdk/src/rp2_common/hardware_flash/flash.c.obj
 .ARM.attributes
                0x00000000000007ce       0x22 /tmp/cc5V2RVt.o
 .ARM.attributes
                0x00000000000007f0       0x1e /usr/lib/gcc/arm-none-eabi/12.1.0/thumb/v6-m/nofp/libgcc.a(_dvmd_tls.o)
 .ARM.attributes
                0x000000000000080e       0x2c /usr/lib/gcc/arm-none-eabi/12.1.0/../../../../arm-none-eabi/lib/thumb/v6-m/nofp/libg.a(lib_a-atexit.o)
 .ARM.attributes
                0x000000000000083a       0x2c /usr/lib/gcc/arm-none-eabi/12.1.0/../../../../arm-none-eabi/lib/thumb/v6-m/nofp/libg.a(lib_a-fini.o)
 .ARM.attributes
                0x0000000000000866       0x2c /usr/lib/gcc/arm-none-eabi/12.1.0/../../../../arm-none-eabi/lib/thumb/v6-m/nofp/libg.a(lib_a-impure.o)
 .ARM.attributes
                0x0000000000000892       0x2c /usr/lib/gcc/arm-none-eabi/12.1.0/../../../../arm-none-eabi/lib/thumb/v6-m/nofp/libg.a(lib_a-strlen-stub.o)
 .ARM.attributes
                0x00000000000008be       0x2c /usr/lib/gcc/arm-none-eabi/12.1.0/../../../../arm-none-eabi/lib/thumb/v6-m/nofp/libg.a(lib_a-__atexit.o)
 .ARM.attributes
                0x00000000000008ea       0x2c /usr/lib/gcc/arm-none-eabi/12.1.0/../../../../arm-none-eabi/lib/thumb/v6-m/nofp/libg.a(lib_a-__call_atexit.o)
 .ARM.attributes
                0x0000000000000916       0x2c /usr/lib/gcc/arm-none-eabi/12.1.0/../../../../arm-none-eabi/lib/thumb/v6-m/nofp/libg.a(lib_a-lock.o)

.comment        0x0000000000000000       0x3c
 .comment       0x0000000000000000       0x1e CMakeFiles/HSU.dir/HSU.c.obj
                                         0x1f (size before relaxing)
 .comment       0x000000000000001e       0x1f CMakeFiles/HSU.dir/usr/share/pico-sdk/src/rp2_common/hardware_gpio/gpio.c.obj
 .comment       0x000000000000001e       0x1f CMakeFiles/HSU.dir/usr/share/pico-sdk/src/rp2_common/hardware_claim/claim.c.obj
 .comment       0x000000000000001e       0x1f CMakeFiles/HSU.dir/usr/share/pico-sdk/src/rp2_common/pico_platform/platform.c.obj
 .comment       0x000000000000001e       0x1f CMakeFiles/HSU.dir/usr/share/pico-sdk/src/rp2_common/hardware_sync/sync.c.obj
 .comment       0x000000000000001e       0x1f CMakeFiles/HSU.dir/usr/share/pico-sdk/src/rp2_common/hardware_uart/uart.c.obj
 .comment       0x000000000000001e       0x1f CMakeFiles/HSU.dir/usr/share/pico-sdk/src/common/pico_time/time.c.obj
 .comment       0x000000000000001e       0x1f CMakeFiles/HSU.dir/usr/share/pico-sdk/src/rp2_common/hardware_timer/timer.c.obj
 .comment       0x000000000000001e       0x1f CMakeFiles/HSU.dir/usr/share/pico-sdk/src/common/pico_sync/lock_core.c.obj
 .comment       0x000000000000001e       0x1f CMakeFiles/HSU.dir/usr/share/pico-sdk/src/common/pico_sync/mutex.c.obj
 .comment       0x000000000000001e       0x1f CMakeFiles/HSU.dir/usr/share/pico-sdk/src/common/pico_sync/critical_section.c.obj
 .comment       0x000000000000001e       0x1f CMakeFiles/HSU.dir/usr/share/pico-sdk/src/common/pico_util/pheap.c.obj
 .comment       0x000000000000001e       0x1f CMakeFiles/HSU.dir/usr/share/pico-sdk/src/rp2_common/pico_runtime/runtime.c.obj
 .comment       0x000000000000001e       0x1f CMakeFiles/HSU.dir/usr/share/pico-sdk/src/rp2_common/hardware_clocks/clocks.c.obj
 .comment       0x000000000000001e       0x1f CMakeFiles/HSU.dir/usr/share/pico-sdk/src/rp2_common/hardware_irq/irq.c.obj
 .comment       0x000000000000001e       0x1f CMakeFiles/HSU.dir/usr/share/pico-sdk/src/rp2_common/hardware_pll/pll.c.obj
 .comment       0x000000000000001e       0x1f CMakeFiles/HSU.dir/usr/share/pico-sdk/src/rp2_common/hardware_watchdog/watchdog.c.obj
 .comment       0x000000000000001e       0x1f CMakeFiles/HSU.dir/usr/share/pico-sdk/src/rp2_common/hardware_xosc/xosc.c.obj
 .comment       0x000000000000001e       0x1f CMakeFiles/HSU.dir/usr/share/pico-sdk/src/rp2_common/pico_printf/printf.c.obj
 .comment       0x000000000000001e       0x1f CMakeFiles/HSU.dir/usr/share/pico-sdk/src/rp2_common/pico_bootrom/bootrom.c.obj
 .comment       0x000000000000001e       0x1f CMakeFiles/HSU.dir/usr/share/pico-sdk/src/rp2_common/pico_double/double_init_rom.c.obj
 .comment       0x000000000000001e       0x1f CMakeFiles/HSU.dir/usr/share/pico-sdk/src/rp2_common/pico_float/float_init_rom.c.obj
 .comment       0x000000000000001e       0x1f CMakeFiles/HSU.dir/usr/share/pico-sdk/src/rp2_common/pico_standard_link/binary_info.c.obj
 .comment       0x000000000000001e       0x1f CMakeFiles/HSU.dir/usr/share/pico-sdk/src/rp2_common/pico_stdio/stdio.c.obj
 .comment       0x000000000000001e       0x1f CMakeFiles/HSU.dir/usr/share/pico-sdk/src/rp2_common/pico_stdio_usb/reset_interface.c.obj
 .comment       0x000000000000001e       0x1f CMakeFiles/HSU.dir/usr/share/pico-sdk/src/rp2_common/pico_stdio_usb/stdio_usb.c.obj
 .comment       0x000000000000001e       0x1f CMakeFiles/HSU.dir/usr/share/pico-sdk/src/rp2_common/pico_stdio_usb/stdio_usb_descriptors.c.obj
 .comment       0x000000000000001e       0x1f CMakeFiles/HSU.dir/usr/share/pico-sdk/lib/tinyusb/src/portable/raspberrypi/rp2040/dcd_rp2040.c.obj
 .comment       0x000000000000001e       0x1f CMakeFiles/HSU.dir/usr/share/pico-sdk/lib/tinyusb/src/portable/raspberrypi/rp2040/rp2040_usb.c.obj
 .comment       0x000000000000001e       0x1f CMakeFiles/HSU.dir/usr/share/pico-sdk/lib/tinyusb/src/device/usbd.c.obj
 .comment       0x000000000000001e       0x1f CMakeFiles/HSU.dir/usr/share/pico-sdk/lib/tinyusb/src/device/usbd_control.c.obj
 .comment       0x000000000000001e       0x1f CMakeFiles/HSU.dir/usr/share/pico-sdk/lib/tinyusb/src/class/cdc/cdc_device.c.obj
 .comment       0x000000000000001e       0x1f CMakeFiles/HSU.dir/usr/share/pico-sdk/lib/tinyusb/src/tusb.c.obj
 .comment       0x000000000000001e       0x1f CMakeFiles/HSU.dir/usr/share/pico-sdk/lib/tinyusb/src/common/tusb_fifo.c.obj
 .comment       0x000000000000001e       0x1f CMakeFiles/HSU.dir/usr/share/pico-sdk/src/rp2_common/pico_unique_id/unique_id.c.obj
 .comment       0x000000000000001e       0x1f CMakeFiles/HSU.dir/usr/share/pico-sdk/src/rp2_common/hardware_flash/flash.c.obj
 .comment       0x000000000000001e       0x1e /usr/lib/gcc/arm-none-eabi/12.1.0/../../../../arm-none-eabi/lib/thumb/v6-m/nofp/libg.a(lib_a-atexit.o)
                                         0x1f (size before relaxing)
 .comment       0x000000000000003c       0x1f /usr/lib/gcc/arm-none-eabi/12.1.0/../../../../arm-none-eabi/lib/thumb/v6-m/nofp/libg.a(lib_a-fini.o)
 .comment       0x000000000000003c       0x1f /usr/lib/gcc/arm-none-eabi/12.1.0/../../../../arm-none-eabi/lib/thumb/v6-m/nofp/libg.a(lib_a-impure.o)
 .comment       0x000000000000003c       0x1f /usr/lib/gcc/arm-none-eabi/12.1.0/../../../../arm-none-eabi/lib/thumb/v6-m/nofp/libg.a(lib_a-strlen-stub.o)
 .comment       0x000000000000003c       0x1f /usr/lib/gcc/arm-none-eabi/12.1.0/../../../../arm-none-eabi/lib/thumb/v6-m/nofp/libg.a(lib_a-__atexit.o)
 .comment       0x000000000000003c       0x1f /usr/lib/gcc/arm-none-eabi/12.1.0/../../../../arm-none-eabi/lib/thumb/v6-m/nofp/libg.a(lib_a-__call_atexit.o)
 .comment       0x000000000000003c       0x1f /usr/lib/gcc/arm-none-eabi/12.1.0/../../../../arm-none-eabi/lib/thumb/v6-m/nofp/libg.a(lib_a-lock.o)

.debug_info     0x0000000000000000    0x23d70
 .debug_info    0x0000000000000000     0x1b44 CMakeFiles/HSU.dir/HSU.c.obj
 .debug_info    0x0000000000001b44     0x1455 CMakeFiles/HSU.dir/usr/share/pico-sdk/src/rp2_common/hardware_gpio/gpio.c.obj
 .debug_info    0x0000000000002f99      0x69a CMakeFiles/HSU.dir/usr/share/pico-sdk/src/rp2_common/hardware_claim/claim.c.obj
 .debug_info    0x0000000000003633      0x1fb CMakeFiles/HSU.dir/usr/share/pico-sdk/src/rp2_common/pico_platform/platform.c.obj
 .debug_info    0x000000000000382e      0x5db CMakeFiles/HSU.dir/usr/share/pico-sdk/src/rp2_common/hardware_sync/sync.c.obj
 .debug_info    0x0000000000003e09      0xb20 CMakeFiles/HSU.dir/usr/share/pico-sdk/src/rp2_common/hardware_uart/uart.c.obj
 .debug_info    0x0000000000004929     0x2f53 CMakeFiles/HSU.dir/usr/share/pico-sdk/src/common/pico_time/time.c.obj
 .debug_info    0x000000000000787c     0x1165 CMakeFiles/HSU.dir/usr/share/pico-sdk/src/rp2_common/hardware_timer/timer.c.obj
 .debug_info    0x00000000000089e1      0x1a3 CMakeFiles/HSU.dir/usr/share/pico-sdk/src/common/pico_sync/lock_core.c.obj
 .debug_info    0x0000000000008b84     0x1c83 CMakeFiles/HSU.dir/usr/share/pico-sdk/src/common/pico_sync/mutex.c.obj
 .debug_info    0x000000000000a807      0x2cb CMakeFiles/HSU.dir/usr/share/pico-sdk/src/common/pico_sync/critical_section.c.obj
 .debug_info    0x000000000000aad2      0xe34 CMakeFiles/HSU.dir/usr/share/pico-sdk/src/common/pico_util/pheap.c.obj
 .debug_info    0x000000000000b906      0xa56 CMakeFiles/HSU.dir/usr/share/pico-sdk/src/rp2_common/pico_runtime/runtime.c.obj
 .debug_info    0x000000000000c35c      0xf81 CMakeFiles/HSU.dir/usr/share/pico-sdk/src/rp2_common/hardware_clocks/clocks.c.obj
 .debug_info    0x000000000000d2dd     0x18a2 CMakeFiles/HSU.dir/usr/share/pico-sdk/src/rp2_common/hardware_irq/irq.c.obj
 .debug_info    0x000000000000eb7f      0x505 CMakeFiles/HSU.dir/usr/share/pico-sdk/src/rp2_common/hardware_pll/pll.c.obj
 .debug_info    0x000000000000f084      0x4c5 CMakeFiles/HSU.dir/usr/share/pico-sdk/src/rp2_common/hardware_watchdog/watchdog.c.obj
 .debug_info    0x000000000000f549      0x1c7 CMakeFiles/HSU.dir/usr/share/pico-sdk/src/rp2_common/hardware_xosc/xosc.c.obj
 .debug_info    0x000000000000f710     0x19a2 CMakeFiles/HSU.dir/usr/share/pico-sdk/src/rp2_common/pico_printf/printf.c.obj
 .debug_info    0x00000000000110b2       0x23 CMakeFiles/HSU.dir/usr/share/pico-sdk/src/rp2_common/pico_bit_ops/bit_ops_aeabi.S.obj
 .debug_info    0x00000000000110d5      0x26d CMakeFiles/HSU.dir/usr/share/pico-sdk/src/rp2_common/pico_bootrom/bootrom.c.obj
 .debug_info    0x0000000000011342       0x23 CMakeFiles/HSU.dir/usr/share/pico-sdk/src/rp2_common/pico_divider/divider.S.obj
 .debug_info    0x0000000000011365       0x23 CMakeFiles/HSU.dir/usr/share/pico-sdk/src/rp2_common/pico_double/double_aeabi.S.obj
 .debug_info    0x0000000000011388      0x33b CMakeFiles/HSU.dir/usr/share/pico-sdk/src/rp2_common/pico_double/double_init_rom.c.obj
 .debug_info    0x00000000000116c3       0x23 CMakeFiles/HSU.dir/usr/share/pico-sdk/src/rp2_common/pico_double/double_v1_rom_shim.S.obj
 .debug_info    0x00000000000116e6       0x24 CMakeFiles/HSU.dir/usr/share/pico-sdk/src/rp2_common/pico_int64_ops/pico_int64_ops_aeabi.S.obj
 .debug_info    0x000000000001170a       0x23 CMakeFiles/HSU.dir/usr/share/pico-sdk/src/rp2_common/pico_float/float_aeabi.S.obj
 .debug_info    0x000000000001172d      0x34f CMakeFiles/HSU.dir/usr/share/pico-sdk/src/rp2_common/pico_float/float_init_rom.c.obj
 .debug_info    0x0000000000011a7c       0x23 CMakeFiles/HSU.dir/usr/share/pico-sdk/src/rp2_common/pico_float/float_v1_rom_shim.S.obj
 .debug_info    0x0000000000011a9f       0x23 CMakeFiles/HSU.dir/usr/share/pico-sdk/src/rp2_common/pico_mem_ops/mem_ops_aeabi.S.obj
 .debug_info    0x0000000000011ac2       0x23 CMakeFiles/HSU.dir/usr/share/pico-sdk/src/rp2_common/pico_standard_link/crt0.S.obj
 .debug_info    0x0000000000011ae5      0x2dd CMakeFiles/HSU.dir/usr/share/pico-sdk/src/rp2_common/pico_standard_link/binary_info.c.obj
 .debug_info    0x0000000000011dc2     0x12a1 CMakeFiles/HSU.dir/usr/share/pico-sdk/src/rp2_common/pico_stdio/stdio.c.obj
 .debug_info    0x0000000000013063      0x79d CMakeFiles/HSU.dir/usr/share/pico-sdk/src/rp2_common/pico_stdio_usb/reset_interface.c.obj
 .debug_info    0x0000000000013800      0xee3 CMakeFiles/HSU.dir/usr/share/pico-sdk/src/rp2_common/pico_stdio_usb/stdio_usb.c.obj
 .debug_info    0x00000000000146e3      0x62a CMakeFiles/HSU.dir/usr/share/pico-sdk/src/rp2_common/pico_stdio_usb/stdio_usb_descriptors.c.obj
 .debug_info    0x0000000000014d0d     0x18b0 CMakeFiles/HSU.dir/usr/share/pico-sdk/lib/tinyusb/src/portable/raspberrypi/rp2040/dcd_rp2040.c.obj
 .debug_info    0x00000000000165bd      0xded CMakeFiles/HSU.dir/usr/share/pico-sdk/lib/tinyusb/src/portable/raspberrypi/rp2040/rp2040_usb.c.obj
 .debug_info    0x00000000000173aa     0x3b59 CMakeFiles/HSU.dir/usr/share/pico-sdk/lib/tinyusb/src/device/usbd.c.obj
 .debug_info    0x000000000001af03      0x9e9 CMakeFiles/HSU.dir/usr/share/pico-sdk/lib/tinyusb/src/device/usbd_control.c.obj
 .debug_info    0x000000000001b8ec     0x1c68 CMakeFiles/HSU.dir/usr/share/pico-sdk/lib/tinyusb/src/class/cdc/cdc_device.c.obj
 .debug_info    0x000000000001d554      0xc52 CMakeFiles/HSU.dir/usr/share/pico-sdk/lib/tinyusb/src/tusb.c.obj
 .debug_info    0x000000000001e1a6     0x28b6 CMakeFiles/HSU.dir/usr/share/pico-sdk/lib/tinyusb/src/common/tusb_fifo.c.obj
 .debug_info    0x0000000000020a5c      0x275 CMakeFiles/HSU.dir/usr/share/pico-sdk/src/rp2_common/pico_unique_id/unique_id.c.obj
 .debug_info    0x0000000000020cd1      0xee5 CMakeFiles/HSU.dir/usr/share/pico-sdk/src/rp2_common/hardware_flash/flash.c.obj
 .debug_info    0x0000000000021bb6       0x24 /usr/lib/gcc/arm-none-eabi/12.1.0/thumb/v6-m/nofp/libgcc.a(_dvmd_tls.o)
 .debug_info    0x0000000000021bda      0x118 /usr/lib/gcc/arm-none-eabi/12.1.0/../../../../arm-none-eabi/lib/thumb/v6-m/nofp/libg.a(lib_a-atexit.o)
 .debug_info    0x0000000000021cf2       0xf7 /usr/lib/gcc/arm-none-eabi/12.1.0/../../../../arm-none-eabi/lib/thumb/v6-m/nofp/libg.a(lib_a-fini.o)
 .debug_info    0x0000000000021de9      0x8c8 /usr/lib/gcc/arm-none-eabi/12.1.0/../../../../arm-none-eabi/lib/thumb/v6-m/nofp/libg.a(lib_a-impure.o)
 .debug_info    0x00000000000226b1       0xeb /usr/lib/gcc/arm-none-eabi/12.1.0/../../../../arm-none-eabi/lib/thumb/v6-m/nofp/libg.a(lib_a-strlen-stub.o)
 .debug_info    0x000000000002279c      0x999 /usr/lib/gcc/arm-none-eabi/12.1.0/../../../../arm-none-eabi/lib/thumb/v6-m/nofp/libg.a(lib_a-__atexit.o)
 .debug_info    0x0000000000023135      0xa21 /usr/lib/gcc/arm-none-eabi/12.1.0/../../../../arm-none-eabi/lib/thumb/v6-m/nofp/libg.a(lib_a-__call_atexit.o)
 .debug_info    0x0000000000023b56      0x21a /usr/lib/gcc/arm-none-eabi/12.1.0/../../../../arm-none-eabi/lib/thumb/v6-m/nofp/libg.a(lib_a-lock.o)

.debug_abbrev   0x0000000000000000     0x7664
 .debug_abbrev  0x0000000000000000      0x491 CMakeFiles/HSU.dir/HSU.c.obj
 .debug_abbrev  0x0000000000000491      0x2ed CMakeFiles/HSU.dir/usr/share/pico-sdk/src/rp2_common/hardware_gpio/gpio.c.obj
 .debug_abbrev  0x000000000000077e      0x2d0 CMakeFiles/HSU.dir/usr/share/pico-sdk/src/rp2_common/hardware_claim/claim.c.obj
 .debug_abbrev  0x0000000000000a4e       0xf8 CMakeFiles/HSU.dir/usr/share/pico-sdk/src/rp2_common/pico_platform/platform.c.obj
 .debug_abbrev  0x0000000000000b46      0x249 CMakeFiles/HSU.dir/usr/share/pico-sdk/src/rp2_common/hardware_sync/sync.c.obj
 .debug_abbrev  0x0000000000000d8f      0x2e3 CMakeFiles/HSU.dir/usr/share/pico-sdk/src/rp2_common/hardware_uart/uart.c.obj
 .debug_abbrev  0x0000000000001072      0x5b5 CMakeFiles/HSU.dir/usr/share/pico-sdk/src/common/pico_time/time.c.obj
 .debug_abbrev  0x0000000000001627      0x3bd CMakeFiles/HSU.dir/usr/share/pico-sdk/src/rp2_common/hardware_timer/timer.c.obj
 .debug_abbrev  0x00000000000019e4      0x116 CMakeFiles/HSU.dir/usr/share/pico-sdk/src/common/pico_sync/lock_core.c.obj
 .debug_abbrev  0x0000000000001afa      0x3da CMakeFiles/HSU.dir/usr/share/pico-sdk/src/common/pico_sync/mutex.c.obj
 .debug_abbrev  0x0000000000001ed4      0x1ce CMakeFiles/HSU.dir/usr/share/pico-sdk/src/common/pico_sync/critical_section.c.obj
 .debug_abbrev  0x00000000000020a2      0x290 CMakeFiles/HSU.dir/usr/share/pico-sdk/src/common/pico_util/pheap.c.obj
 .debug_abbrev  0x0000000000002332      0x3e5 CMakeFiles/HSU.dir/usr/share/pico-sdk/src/rp2_common/pico_runtime/runtime.c.obj
 .debug_abbrev  0x0000000000002717      0x415 CMakeFiles/HSU.dir/usr/share/pico-sdk/src/rp2_common/hardware_clocks/clocks.c.obj
 .debug_abbrev  0x0000000000002b2c      0x4b5 CMakeFiles/HSU.dir/usr/share/pico-sdk/src/rp2_common/hardware_irq/irq.c.obj
 .debug_abbrev  0x0000000000002fe1      0x1e7 CMakeFiles/HSU.dir/usr/share/pico-sdk/src/rp2_common/hardware_pll/pll.c.obj
 .debug_abbrev  0x00000000000031c8      0x1a8 CMakeFiles/HSU.dir/usr/share/pico-sdk/src/rp2_common/hardware_watchdog/watchdog.c.obj
 .debug_abbrev  0x0000000000003370      0x10c CMakeFiles/HSU.dir/usr/share/pico-sdk/src/rp2_common/hardware_xosc/xosc.c.obj
 .debug_abbrev  0x000000000000347c      0x38a CMakeFiles/HSU.dir/usr/share/pico-sdk/src/rp2_common/pico_printf/printf.c.obj
 .debug_abbrev  0x0000000000003806       0x12 CMakeFiles/HSU.dir/usr/share/pico-sdk/src/rp2_common/pico_bit_ops/bit_ops_aeabi.S.obj
 .debug_abbrev  0x0000000000003818      0x139 CMakeFiles/HSU.dir/usr/share/pico-sdk/src/rp2_common/pico_bootrom/bootrom.c.obj
 .debug_abbrev  0x0000000000003951       0x12 CMakeFiles/HSU.dir/usr/share/pico-sdk/src/rp2_common/pico_divider/divider.S.obj
 .debug_abbrev  0x0000000000003963       0x12 CMakeFiles/HSU.dir/usr/share/pico-sdk/src/rp2_common/pico_double/double_aeabi.S.obj
 .debug_abbrev  0x0000000000003975      0x1c3 CMakeFiles/HSU.dir/usr/share/pico-sdk/src/rp2_common/pico_double/double_init_rom.c.obj
 .debug_abbrev  0x0000000000003b38       0x12 CMakeFiles/HSU.dir/usr/share/pico-sdk/src/rp2_common/pico_double/double_v1_rom_shim.S.obj
 .debug_abbrev  0x0000000000003b4a       0x14 CMakeFiles/HSU.dir/usr/share/pico-sdk/src/rp2_common/pico_int64_ops/pico_int64_ops_aeabi.S.obj
 .debug_abbrev  0x0000000000003b5e       0x12 CMakeFiles/HSU.dir/usr/share/pico-sdk/src/rp2_common/pico_float/float_aeabi.S.obj
 .debug_abbrev  0x0000000000003b70      0x1c6 CMakeFiles/HSU.dir/usr/share/pico-sdk/src/rp2_common/pico_float/float_init_rom.c.obj
 .debug_abbrev  0x0000000000003d36       0x12 CMakeFiles/HSU.dir/usr/share/pico-sdk/src/rp2_common/pico_float/float_v1_rom_shim.S.obj
 .debug_abbrev  0x0000000000003d48       0x12 CMakeFiles/HSU.dir/usr/share/pico-sdk/src/rp2_common/pico_mem_ops/mem_ops_aeabi.S.obj
 .debug_abbrev  0x0000000000003d5a       0x12 CMakeFiles/HSU.dir/usr/share/pico-sdk/src/rp2_common/pico_standard_link/crt0.S.obj
 .debug_abbrev  0x0000000000003d6c       0xb8 CMakeFiles/HSU.dir/usr/share/pico-sdk/src/rp2_common/pico_standard_link/binary_info.c.obj
 .debug_abbrev  0x0000000000003e24      0x46c CMakeFiles/HSU.dir/usr/share/pico-sdk/src/rp2_common/pico_stdio/stdio.c.obj
 .debug_abbrev  0x0000000000004290      0x2c9 CMakeFiles/HSU.dir/usr/share/pico-sdk/src/rp2_common/pico_stdio_usb/reset_interface.c.obj
 .debug_abbrev  0x0000000000004559      0x460 CMakeFiles/HSU.dir/usr/share/pico-sdk/src/rp2_common/pico_stdio_usb/stdio_usb.c.obj
 .debug_abbrev  0x00000000000049b9      0x15a CMakeFiles/HSU.dir/usr/share/pico-sdk/src/rp2_common/pico_stdio_usb/stdio_usb_descriptors.c.obj
 .debug_abbrev  0x0000000000004b13      0x445 CMakeFiles/HSU.dir/usr/share/pico-sdk/lib/tinyusb/src/portable/raspberrypi/rp2040/dcd_rp2040.c.obj
 .debug_abbrev  0x0000000000004f58      0x3a3 CMakeFiles/HSU.dir/usr/share/pico-sdk/lib/tinyusb/src/portable/raspberrypi/rp2040/rp2040_usb.c.obj
 .debug_abbrev  0x00000000000052fb      0x644 CMakeFiles/HSU.dir/usr/share/pico-sdk/lib/tinyusb/src/device/usbd.c.obj
 .debug_abbrev  0x000000000000593f      0x2fa CMakeFiles/HSU.dir/usr/share/pico-sdk/lib/tinyusb/src/device/usbd_control.c.obj
 .debug_abbrev  0x0000000000005c39      0x4b4 CMakeFiles/HSU.dir/usr/share/pico-sdk/lib/tinyusb/src/class/cdc/cdc_device.c.obj
 .debug_abbrev  0x00000000000060ed      0x2f0 CMakeFiles/HSU.dir/usr/share/pico-sdk/lib/tinyusb/src/tusb.c.obj
 .debug_abbrev  0x00000000000063dd      0x3f4 CMakeFiles/HSU.dir/usr/share/pico-sdk/lib/tinyusb/src/common/tusb_fifo.c.obj
 .debug_abbrev  0x00000000000067d1      0x181 CMakeFiles/HSU.dir/usr/share/pico-sdk/src/rp2_common/pico_unique_id/unique_id.c.obj
 .debug_abbrev  0x0000000000006952      0x2bc CMakeFiles/HSU.dir/usr/share/pico-sdk/src/rp2_common/hardware_flash/flash.c.obj
 .debug_abbrev  0x0000000000006c0e       0x14 /usr/lib/gcc/arm-none-eabi/12.1.0/thumb/v6-m/nofp/libgcc.a(_dvmd_tls.o)
 .debug_abbrev  0x0000000000006c22       0xbe /usr/lib/gcc/arm-none-eabi/12.1.0/../../../../arm-none-eabi/lib/thumb/v6-m/nofp/libg.a(lib_a-atexit.o)
 .debug_abbrev  0x0000000000006ce0       0xc9 /usr/lib/gcc/arm-none-eabi/12.1.0/../../../../arm-none-eabi/lib/thumb/v6-m/nofp/libg.a(lib_a-fini.o)
 .debug_abbrev  0x0000000000006da9      0x1ca /usr/lib/gcc/arm-none-eabi/12.1.0/../../../../arm-none-eabi/lib/thumb/v6-m/nofp/libg.a(lib_a-impure.o)
 .debug_abbrev  0x0000000000006f73       0x90 /usr/lib/gcc/arm-none-eabi/12.1.0/../../../../arm-none-eabi/lib/thumb/v6-m/nofp/libg.a(lib_a-strlen-stub.o)
 .debug_abbrev  0x0000000000007003      0x272 /usr/lib/gcc/arm-none-eabi/12.1.0/../../../../arm-none-eabi/lib/thumb/v6-m/nofp/libg.a(lib_a-__atexit.o)
 .debug_abbrev  0x0000000000007275      0x2da /usr/lib/gcc/arm-none-eabi/12.1.0/../../../../arm-none-eabi/lib/thumb/v6-m/nofp/libg.a(lib_a-__call_atexit.o)
 .debug_abbrev  0x000000000000754f      0x115 /usr/lib/gcc/arm-none-eabi/12.1.0/../../../../arm-none-eabi/lib/thumb/v6-m/nofp/libg.a(lib_a-lock.o)

.debug_loclists
                0x0000000000000000     0xcac4
 .debug_loclists
                0x0000000000000000      0x69d CMakeFiles/HSU.dir/HSU.c.obj
 .debug_loclists
                0x000000000000069d      0x7f6 CMakeFiles/HSU.dir/usr/share/pico-sdk/src/rp2_common/hardware_gpio/gpio.c.obj
 .debug_loclists
                0x0000000000000e93      0x27b CMakeFiles/HSU.dir/usr/share/pico-sdk/src/rp2_common/hardware_claim/claim.c.obj
 .debug_loclists
                0x000000000000110e       0x9f CMakeFiles/HSU.dir/usr/share/pico-sdk/src/rp2_common/pico_platform/platform.c.obj
 .debug_loclists
                0x00000000000011ad      0x157 CMakeFiles/HSU.dir/usr/share/pico-sdk/src/rp2_common/hardware_sync/sync.c.obj
 .debug_loclists
                0x0000000000001304      0x2eb CMakeFiles/HSU.dir/usr/share/pico-sdk/src/rp2_common/hardware_uart/uart.c.obj
 .debug_loclists
                0x00000000000015ef     0x1140 CMakeFiles/HSU.dir/usr/share/pico-sdk/src/common/pico_time/time.c.obj
 .debug_loclists
                0x000000000000272f      0x562 CMakeFiles/HSU.dir/usr/share/pico-sdk/src/rp2_common/hardware_timer/timer.c.obj
 .debug_loclists
                0x0000000000002c91       0x4a CMakeFiles/HSU.dir/usr/share/pico-sdk/src/common/pico_sync/lock_core.c.obj
 .debug_loclists
                0x0000000000002cdb      0x944 CMakeFiles/HSU.dir/usr/share/pico-sdk/src/common/pico_sync/mutex.c.obj
 .debug_loclists
                0x000000000000361f       0x9b CMakeFiles/HSU.dir/usr/share/pico-sdk/src/common/pico_sync/critical_section.c.obj
 .debug_loclists
                0x00000000000036ba      0x68f CMakeFiles/HSU.dir/usr/share/pico-sdk/src/common/pico_util/pheap.c.obj
 .debug_loclists
                0x0000000000003d49      0x27b CMakeFiles/HSU.dir/usr/share/pico-sdk/src/rp2_common/pico_runtime/runtime.c.obj
 .debug_loclists
                0x0000000000003fc4      0x4d8 CMakeFiles/HSU.dir/usr/share/pico-sdk/src/rp2_common/hardware_clocks/clocks.c.obj
 .debug_loclists
                0x000000000000449c      0xb88 CMakeFiles/HSU.dir/usr/share/pico-sdk/src/rp2_common/hardware_irq/irq.c.obj
 .debug_loclists
                0x0000000000005024      0x1e8 CMakeFiles/HSU.dir/usr/share/pico-sdk/src/rp2_common/hardware_pll/pll.c.obj
 .debug_loclists
                0x000000000000520c      0x1c7 CMakeFiles/HSU.dir/usr/share/pico-sdk/src/rp2_common/hardware_watchdog/watchdog.c.obj
 .debug_loclists
                0x00000000000053d3       0x48 CMakeFiles/HSU.dir/usr/share/pico-sdk/src/rp2_common/hardware_xosc/xosc.c.obj
 .debug_loclists
                0x000000000000541b     0x1640 CMakeFiles/HSU.dir/usr/share/pico-sdk/src/rp2_common/pico_printf/printf.c.obj
 .debug_loclists
                0x0000000000006a5b       0xff CMakeFiles/HSU.dir/usr/share/pico-sdk/src/rp2_common/pico_bootrom/bootrom.c.obj
 .debug_loclists
                0x0000000000006b5a       0x41 CMakeFiles/HSU.dir/usr/share/pico-sdk/src/rp2_common/pico_double/double_init_rom.c.obj
 .debug_loclists
                0x0000000000006b9b       0x4f CMakeFiles/HSU.dir/usr/share/pico-sdk/src/rp2_common/pico_float/float_init_rom.c.obj
 .debug_loclists
                0x0000000000006bea      0x68b CMakeFiles/HSU.dir/usr/share/pico-sdk/src/rp2_common/pico_stdio/stdio.c.obj
 .debug_loclists
                0x0000000000007275      0x232 CMakeFiles/HSU.dir/usr/share/pico-sdk/src/rp2_common/pico_stdio_usb/reset_interface.c.obj
 .debug_loclists
                0x00000000000074a7      0x30e CMakeFiles/HSU.dir/usr/share/pico-sdk/src/rp2_common/pico_stdio_usb/stdio_usb.c.obj
 .debug_loclists
                0x00000000000077b5       0xa9 CMakeFiles/HSU.dir/usr/share/pico-sdk/src/rp2_common/pico_stdio_usb/stdio_usb_descriptors.c.obj
 .debug_loclists
                0x000000000000785e      0x65e CMakeFiles/HSU.dir/usr/share/pico-sdk/lib/tinyusb/src/portable/raspberrypi/rp2040/dcd_rp2040.c.obj
 .debug_loclists
                0x0000000000007ebc      0x3f2 CMakeFiles/HSU.dir/usr/share/pico-sdk/lib/tinyusb/src/portable/raspberrypi/rp2040/rp2040_usb.c.obj
 .debug_loclists
                0x00000000000082ae     0x1481 CMakeFiles/HSU.dir/usr/share/pico-sdk/lib/tinyusb/src/device/usbd.c.obj
 .debug_loclists
                0x000000000000972f      0x323 CMakeFiles/HSU.dir/usr/share/pico-sdk/lib/tinyusb/src/device/usbd_control.c.obj
 .debug_loclists
                0x0000000000009a52      0xaec CMakeFiles/HSU.dir/usr/share/pico-sdk/lib/tinyusb/src/class/cdc/cdc_device.c.obj
 .debug_loclists
                0x000000000000a53e      0x4b3 CMakeFiles/HSU.dir/usr/share/pico-sdk/lib/tinyusb/src/tusb.c.obj
 .debug_loclists
                0x000000000000a9f1     0x17ec CMakeFiles/HSU.dir/usr/share/pico-sdk/lib/tinyusb/src/common/tusb_fifo.c.obj
 .debug_loclists
                0x000000000000c1dd       0xa5 CMakeFiles/HSU.dir/usr/share/pico-sdk/src/rp2_common/pico_unique_id/unique_id.c.obj
 .debug_loclists
                0x000000000000c282      0x533 CMakeFiles/HSU.dir/usr/share/pico-sdk/src/rp2_common/hardware_flash/flash.c.obj
 .debug_loclists
                0x000000000000c7b5       0x2a /usr/lib/gcc/arm-none-eabi/12.1.0/../../../../arm-none-eabi/lib/thumb/v6-m/nofp/libg.a(lib_a-atexit.o)
 .debug_loclists
                0x000000000000c7df       0x34 /usr/lib/gcc/arm-none-eabi/12.1.0/../../../../arm-none-eabi/lib/thumb/v6-m/nofp/libg.a(lib_a-fini.o)
 .debug_loclists
                0x000000000000c813       0x5e /usr/lib/gcc/arm-none-eabi/12.1.0/../../../../arm-none-eabi/lib/thumb/v6-m/nofp/libg.a(lib_a-strlen-stub.o)
 .debug_loclists
                0x000000000000c871      0x107 /usr/lib/gcc/arm-none-eabi/12.1.0/../../../../arm-none-eabi/lib/thumb/v6-m/nofp/libg.a(lib_a-__atexit.o)
 .debug_loclists
                0x000000000000c978      0x129 /usr/lib/gcc/arm-none-eabi/12.1.0/../../../../arm-none-eabi/lib/thumb/v6-m/nofp/libg.a(lib_a-__call_atexit.o)
 .debug_loclists
                0x000000000000caa1       0x23 /usr/lib/gcc/arm-none-eabi/12.1.0/../../../../arm-none-eabi/lib/thumb/v6-m/nofp/libg.a(lib_a-lock.o)

.debug_aranges  0x0000000000000000     0x1630
 .debug_aranges
                0x0000000000000000       0xd0 CMakeFiles/HSU.dir/HSU.c.obj
 .debug_aranges
                0x00000000000000d0       0xe0 CMakeFiles/HSU.dir/usr/share/pico-sdk/src/rp2_common/hardware_gpio/gpio.c.obj
 .debug_aranges
                0x00000000000001b0       0x48 CMakeFiles/HSU.dir/usr/share/pico-sdk/src/rp2_common/hardware_claim/claim.c.obj
 .debug_aranges
                0x00000000000001f8       0x28 CMakeFiles/HSU.dir/usr/share/pico-sdk/src/rp2_common/pico_platform/platform.c.obj
 .debug_aranges
                0x0000000000000220       0x58 CMakeFiles/HSU.dir/usr/share/pico-sdk/src/rp2_common/hardware_sync/sync.c.obj
 .debug_aranges
                0x0000000000000278       0x40 CMakeFiles/HSU.dir/usr/share/pico-sdk/src/rp2_common/hardware_uart/uart.c.obj
 .debug_aranges
                0x00000000000002b8      0x140 CMakeFiles/HSU.dir/usr/share/pico-sdk/src/common/pico_time/time.c.obj
 .debug_aranges
                0x00000000000003f8       0x80 CMakeFiles/HSU.dir/usr/share/pico-sdk/src/rp2_common/hardware_timer/timer.c.obj
 .debug_aranges
                0x0000000000000478       0x20 CMakeFiles/HSU.dir/usr/share/pico-sdk/src/common/pico_sync/lock_core.c.obj
 .debug_aranges
                0x0000000000000498       0xb8 CMakeFiles/HSU.dir/usr/share/pico-sdk/src/common/pico_sync/mutex.c.obj
 .debug_aranges
                0x0000000000000550       0x30 CMakeFiles/HSU.dir/usr/share/pico-sdk/src/common/pico_sync/critical_section.c.obj
 .debug_aranges
                0x0000000000000580       0x80 CMakeFiles/HSU.dir/usr/share/pico-sdk/src/common/pico_util/pheap.c.obj
 .debug_aranges
                0x0000000000000600       0x60 CMakeFiles/HSU.dir/usr/share/pico-sdk/src/rp2_common/pico_runtime/runtime.c.obj
 .debug_aranges
                0x0000000000000660       0x70 CMakeFiles/HSU.dir/usr/share/pico-sdk/src/rp2_common/hardware_clocks/clocks.c.obj
 .debug_aranges
                0x00000000000006d0       0xa0 CMakeFiles/HSU.dir/usr/share/pico-sdk/src/rp2_common/hardware_irq/irq.c.obj
 .debug_aranges
                0x0000000000000770       0x28 CMakeFiles/HSU.dir/usr/share/pico-sdk/src/rp2_common/hardware_pll/pll.c.obj
 .debug_aranges
                0x0000000000000798       0x58 CMakeFiles/HSU.dir/usr/share/pico-sdk/src/rp2_common/hardware_watchdog/watchdog.c.obj
 .debug_aranges
                0x00000000000007f0       0x30 CMakeFiles/HSU.dir/usr/share/pico-sdk/src/rp2_common/hardware_xosc/xosc.c.obj
 .debug_aranges
                0x0000000000000820       0x90 CMakeFiles/HSU.dir/usr/share/pico-sdk/src/rp2_common/pico_printf/printf.c.obj
 .debug_aranges
                0x00000000000008b0       0x68 CMakeFiles/HSU.dir/usr/share/pico-sdk/src/rp2_common/pico_bit_ops/bit_ops_aeabi.S.obj
 .debug_aranges
                0x0000000000000918       0x30 CMakeFiles/HSU.dir/usr/share/pico-sdk/src/rp2_common/pico_bootrom/bootrom.c.obj
 .debug_aranges
                0x0000000000000948       0x40 CMakeFiles/HSU.dir/usr/share/pico-sdk/src/rp2_common/pico_divider/divider.S.obj
 .debug_aranges
                0x0000000000000988      0x140 CMakeFiles/HSU.dir/usr/share/pico-sdk/src/rp2_common/pico_double/double_aeabi.S.obj
 .debug_aranges
                0x0000000000000ac8       0x20 CMakeFiles/HSU.dir/usr/share/pico-sdk/src/rp2_common/pico_double/double_init_rom.c.obj
 .debug_aranges
                0x0000000000000ae8       0xc8 CMakeFiles/HSU.dir/usr/share/pico-sdk/src/rp2_common/pico_double/double_v1_rom_shim.S.obj
 .debug_aranges
                0x0000000000000bb0       0x20 CMakeFiles/HSU.dir/usr/share/pico-sdk/src/rp2_common/pico_int64_ops/pico_int64_ops_aeabi.S.obj
 .debug_aranges
                0x0000000000000bd0      0x130 CMakeFiles/HSU.dir/usr/share/pico-sdk/src/rp2_common/pico_float/float_aeabi.S.obj
 .debug_aranges
                0x0000000000000d00       0x20 CMakeFiles/HSU.dir/usr/share/pico-sdk/src/rp2_common/pico_float/float_init_rom.c.obj
 .debug_aranges
                0x0000000000000d20       0x50 CMakeFiles/HSU.dir/usr/share/pico-sdk/src/rp2_common/pico_float/float_v1_rom_shim.S.obj
 .debug_aranges
                0x0000000000000d70       0x38 CMakeFiles/HSU.dir/usr/share/pico-sdk/src/rp2_common/pico_mem_ops/mem_ops_aeabi.S.obj
 .debug_aranges
                0x0000000000000da8       0x28 CMakeFiles/HSU.dir/usr/share/pico-sdk/src/rp2_common/pico_standard_link/crt0.S.obj
 .debug_aranges
                0x0000000000000dd0       0x18 CMakeFiles/HSU.dir/usr/share/pico-sdk/src/rp2_common/pico_standard_link/binary_info.c.obj
 .debug_aranges
                0x0000000000000de8       0xf8 CMakeFiles/HSU.dir/usr/share/pico-sdk/src/rp2_common/pico_stdio/stdio.c.obj
 .debug_aranges
                0x0000000000000ee0       0x58 CMakeFiles/HSU.dir/usr/share/pico-sdk/src/rp2_common/pico_stdio_usb/reset_interface.c.obj
 .debug_aranges
                0x0000000000000f38       0x70 CMakeFiles/HSU.dir/usr/share/pico-sdk/src/rp2_common/pico_stdio_usb/stdio_usb.c.obj
 .debug_aranges
                0x0000000000000fa8       0x30 CMakeFiles/HSU.dir/usr/share/pico-sdk/src/rp2_common/pico_stdio_usb/stdio_usb_descriptors.c.obj
 .debug_aranges
                0x0000000000000fd8       0xd0 CMakeFiles/HSU.dir/usr/share/pico-sdk/lib/tinyusb/src/portable/raspberrypi/rp2040/dcd_rp2040.c.obj
 .debug_aranges
                0x00000000000010a8       0x60 CMakeFiles/HSU.dir/usr/share/pico-sdk/lib/tinyusb/src/portable/raspberrypi/rp2040/rp2040_usb.c.obj
 .debug_aranges
                0x0000000000001108      0x138 CMakeFiles/HSU.dir/usr/share/pico-sdk/lib/tinyusb/src/device/usbd.c.obj
 .debug_aranges
                0x0000000000001240       0x58 CMakeFiles/HSU.dir/usr/share/pico-sdk/lib/tinyusb/src/device/usbd_control.c.obj
 .debug_aranges
                0x0000000000001298       0xa8 CMakeFiles/HSU.dir/usr/share/pico-sdk/lib/tinyusb/src/class/cdc/cdc_device.c.obj
 .debug_aranges
                0x0000000000001340       0x50 CMakeFiles/HSU.dir/usr/share/pico-sdk/lib/tinyusb/src/tusb.c.obj
 .debug_aranges
                0x0000000000001390      0x118 CMakeFiles/HSU.dir/usr/share/pico-sdk/lib/tinyusb/src/common/tusb_fifo.c.obj
 .debug_aranges
                0x00000000000014a8       0x30 CMakeFiles/HSU.dir/usr/share/pico-sdk/src/rp2_common/pico_unique_id/unique_id.c.obj
 .debug_aranges
                0x00000000000014d8       0x50 CMakeFiles/HSU.dir/usr/share/pico-sdk/src/rp2_common/hardware_flash/flash.c.obj
 .debug_aranges
                0x0000000000001528       0x20 /usr/lib/gcc/arm-none-eabi/12.1.0/thumb/v6-m/nofp/libgcc.a(_dvmd_tls.o)
 .debug_aranges
                0x0000000000001548       0x20 /usr/lib/gcc/arm-none-eabi/12.1.0/../../../../arm-none-eabi/lib/thumb/v6-m/nofp/libg.a(lib_a-atexit.o)
 .debug_aranges
                0x0000000000001568       0x20 /usr/lib/gcc/arm-none-eabi/12.1.0/../../../../arm-none-eabi/lib/thumb/v6-m/nofp/libg.a(lib_a-fini.o)
 .debug_aranges
                0x0000000000001588       0x18 /usr/lib/gcc/arm-none-eabi/12.1.0/../../../../arm-none-eabi/lib/thumb/v6-m/nofp/libg.a(lib_a-impure.o)
 .debug_aranges
                0x00000000000015a0       0x20 /usr/lib/gcc/arm-none-eabi/12.1.0/../../../../arm-none-eabi/lib/thumb/v6-m/nofp/libg.a(lib_a-strlen-stub.o)
 .debug_aranges
                0x00000000000015c0       0x20 /usr/lib/gcc/arm-none-eabi/12.1.0/../../../../arm-none-eabi/lib/thumb/v6-m/nofp/libg.a(lib_a-__atexit.o)
 .debug_aranges
                0x00000000000015e0       0x28 /usr/lib/gcc/arm-none-eabi/12.1.0/../../../../arm-none-eabi/lib/thumb/v6-m/nofp/libg.a(lib_a-__call_atexit.o)
 .debug_aranges
                0x0000000000001608       0x28 /usr/lib/gcc/arm-none-eabi/12.1.0/../../../../arm-none-eabi/lib/thumb/v6-m/nofp/libg.a(lib_a-lock.o)

.debug_rnglists
                0x0000000000000000     0x14d2
 .debug_rnglists
                0x0000000000000000      0x15c CMakeFiles/HSU.dir/HSU.c.obj
 .debug_rnglists
                0x000000000000015c       0xaf CMakeFiles/HSU.dir/usr/share/pico-sdk/src/rp2_common/hardware_gpio/gpio.c.obj
 .debug_rnglists
                0x000000000000020b       0x31 CMakeFiles/HSU.dir/usr/share/pico-sdk/src/rp2_common/hardware_claim/claim.c.obj
 .debug_rnglists
                0x000000000000023c       0x19 CMakeFiles/HSU.dir/usr/share/pico-sdk/src/rp2_common/pico_platform/platform.c.obj
 .debug_rnglists
                0x0000000000000255       0x3d CMakeFiles/HSU.dir/usr/share/pico-sdk/src/rp2_common/hardware_sync/sync.c.obj
 .debug_rnglists
                0x0000000000000292       0x44 CMakeFiles/HSU.dir/usr/share/pico-sdk/src/rp2_common/hardware_uart/uart.c.obj
 .debug_rnglists
                0x00000000000002d6      0x15a CMakeFiles/HSU.dir/usr/share/pico-sdk/src/common/pico_time/time.c.obj
 .debug_rnglists
                0x0000000000000430       0x5e CMakeFiles/HSU.dir/usr/share/pico-sdk/src/rp2_common/hardware_timer/timer.c.obj
 .debug_rnglists
                0x000000000000048e       0x13 CMakeFiles/HSU.dir/usr/share/pico-sdk/src/common/pico_sync/lock_core.c.obj
 .debug_rnglists
                0x00000000000004a1       0xc9 CMakeFiles/HSU.dir/usr/share/pico-sdk/src/common/pico_sync/mutex.c.obj
 .debug_rnglists
                0x000000000000056a       0x1f CMakeFiles/HSU.dir/usr/share/pico-sdk/src/common/pico_sync/critical_section.c.obj
 .debug_rnglists
                0x0000000000000589       0x8e CMakeFiles/HSU.dir/usr/share/pico-sdk/src/common/pico_util/pheap.c.obj
 .debug_rnglists
                0x0000000000000617       0x50 CMakeFiles/HSU.dir/usr/share/pico-sdk/src/rp2_common/pico_runtime/runtime.c.obj
 .debug_rnglists
                0x0000000000000667       0x52 CMakeFiles/HSU.dir/usr/share/pico-sdk/src/rp2_common/hardware_clocks/clocks.c.obj
 .debug_rnglists
                0x00000000000006b9       0xcc CMakeFiles/HSU.dir/usr/share/pico-sdk/src/rp2_common/hardware_irq/irq.c.obj
 .debug_rnglists
                0x0000000000000785       0x1a CMakeFiles/HSU.dir/usr/share/pico-sdk/src/rp2_common/hardware_pll/pll.c.obj
 .debug_rnglists
                0x000000000000079f       0x3d CMakeFiles/HSU.dir/usr/share/pico-sdk/src/rp2_common/hardware_watchdog/watchdog.c.obj
 .debug_rnglists
                0x00000000000007dc       0x1f CMakeFiles/HSU.dir/usr/share/pico-sdk/src/rp2_common/hardware_xosc/xosc.c.obj
 .debug_rnglists
                0x00000000000007fb       0xc2 CMakeFiles/HSU.dir/usr/share/pico-sdk/src/rp2_common/pico_printf/printf.c.obj
 .debug_rnglists
                0x00000000000008bd       0x49 CMakeFiles/HSU.dir/usr/share/pico-sdk/src/rp2_common/pico_bit_ops/bit_ops_aeabi.S.obj
 .debug_rnglists
                0x0000000000000906       0x2b CMakeFiles/HSU.dir/usr/share/pico-sdk/src/rp2_common/pico_bootrom/bootrom.c.obj
 .debug_rnglists
                0x0000000000000931       0x2c CMakeFiles/HSU.dir/usr/share/pico-sdk/src/rp2_common/pico_divider/divider.S.obj
 .debug_rnglists
                0x000000000000095d       0xed CMakeFiles/HSU.dir/usr/share/pico-sdk/src/rp2_common/pico_double/double_aeabi.S.obj
 .debug_rnglists
                0x0000000000000a4a       0x21 CMakeFiles/HSU.dir/usr/share/pico-sdk/src/rp2_common/pico_double/double_init_rom.c.obj
 .debug_rnglists
                0x0000000000000a6b       0x99 CMakeFiles/HSU.dir/usr/share/pico-sdk/src/rp2_common/pico_double/double_v1_rom_shim.S.obj
 .debug_rnglists
                0x0000000000000b04       0xdf CMakeFiles/HSU.dir/usr/share/pico-sdk/src/rp2_common/pico_float/float_aeabi.S.obj
 .debug_rnglists
                0x0000000000000be3       0x20 CMakeFiles/HSU.dir/usr/share/pico-sdk/src/rp2_common/pico_float/float_init_rom.c.obj
 .debug_rnglists
                0x0000000000000c03       0x38 CMakeFiles/HSU.dir/usr/share/pico-sdk/src/rp2_common/pico_float/float_v1_rom_shim.S.obj
 .debug_rnglists
                0x0000000000000c3b       0x25 CMakeFiles/HSU.dir/usr/share/pico-sdk/src/rp2_common/pico_mem_ops/mem_ops_aeabi.S.obj
 .debug_rnglists
                0x0000000000000c60       0x1b CMakeFiles/HSU.dir/usr/share/pico-sdk/src/rp2_common/pico_standard_link/crt0.S.obj
 .debug_rnglists
                0x0000000000000c7b       0xe7 CMakeFiles/HSU.dir/usr/share/pico-sdk/src/rp2_common/pico_stdio/stdio.c.obj
 .debug_rnglists
                0x0000000000000d62       0x3d CMakeFiles/HSU.dir/usr/share/pico-sdk/src/rp2_common/pico_stdio_usb/reset_interface.c.obj
 .debug_rnglists
                0x0000000000000d9f       0x5c CMakeFiles/HSU.dir/usr/share/pico-sdk/src/rp2_common/pico_stdio_usb/stdio_usb.c.obj
 .debug_rnglists
                0x0000000000000dfb       0x1f CMakeFiles/HSU.dir/usr/share/pico-sdk/src/rp2_common/pico_stdio_usb/stdio_usb_descriptors.c.obj
 .debug_rnglists
                0x0000000000000e1a       0xb2 CMakeFiles/HSU.dir/usr/share/pico-sdk/lib/tinyusb/src/portable/raspberrypi/rp2040/dcd_rp2040.c.obj
 .debug_rnglists
                0x0000000000000ecc       0x43 CMakeFiles/HSU.dir/usr/share/pico-sdk/lib/tinyusb/src/portable/raspberrypi/rp2040/rp2040_usb.c.obj
 .debug_rnglists
                0x0000000000000f0f      0x24c CMakeFiles/HSU.dir/usr/share/pico-sdk/lib/tinyusb/src/device/usbd.c.obj
 .debug_rnglists
                0x000000000000115b       0x3f CMakeFiles/HSU.dir/usr/share/pico-sdk/lib/tinyusb/src/device/usbd_control.c.obj
 .debug_rnglists
                0x000000000000119a       0xbb CMakeFiles/HSU.dir/usr/share/pico-sdk/lib/tinyusb/src/class/cdc/cdc_device.c.obj
 .debug_rnglists
                0x0000000000001255       0x8d CMakeFiles/HSU.dir/usr/share/pico-sdk/lib/tinyusb/src/tusb.c.obj
 .debug_rnglists
                0x00000000000012e2       0xec CMakeFiles/HSU.dir/usr/share/pico-sdk/lib/tinyusb/src/common/tusb_fifo.c.obj
 .debug_rnglists
                0x00000000000013ce       0x2b CMakeFiles/HSU.dir/usr/share/pico-sdk/src/rp2_common/pico_unique_id/unique_id.c.obj
 .debug_rnglists
                0x00000000000013f9       0x46 CMakeFiles/HSU.dir/usr/share/pico-sdk/src/rp2_common/hardware_flash/flash.c.obj
 .debug_rnglists
                0x000000000000143f       0x13 /usr/lib/gcc/arm-none-eabi/12.1.0/../../../../arm-none-eabi/lib/thumb/v6-m/nofp/libg.a(lib_a-atexit.o)
 .debug_rnglists
                0x0000000000001452       0x13 /usr/lib/gcc/arm-none-eabi/12.1.0/../../../../arm-none-eabi/lib/thumb/v6-m/nofp/libg.a(lib_a-fini.o)
 .debug_rnglists
                0x0000000000001465       0x13 /usr/lib/gcc/arm-none-eabi/12.1.0/../../../../arm-none-eabi/lib/thumb/v6-m/nofp/libg.a(lib_a-strlen-stub.o)
 .debug_rnglists
                0x0000000000001478       0x14 /usr/lib/gcc/arm-none-eabi/12.1.0/../../../../arm-none-eabi/lib/thumb/v6-m/nofp/libg.a(lib_a-__atexit.o)
 .debug_rnglists
                0x000000000000148c       0x2d /usr/lib/gcc/arm-none-eabi/12.1.0/../../../../arm-none-eabi/lib/thumb/v6-m/nofp/libg.a(lib_a-__call_atexit.o)
 .debug_rnglists
                0x00000000000014b9       0x19 /usr/lib/gcc/arm-none-eabi/12.1.0/../../../../arm-none-eabi/lib/thumb/v6-m/nofp/libg.a(lib_a-lock.o)

.debug_line     0x0000000000000000    0x1477e
 .debug_line    0x0000000000000000      0xfb4 CMakeFiles/HSU.dir/HSU.c.obj
 .debug_line    0x0000000000000fb4      0x951 CMakeFiles/HSU.dir/usr/share/pico-sdk/src/rp2_common/hardware_gpio/gpio.c.obj
 .debug_line    0x0000000000001905      0x3cd CMakeFiles/HSU.dir/usr/share/pico-sdk/src/rp2_common/hardware_claim/claim.c.obj
 .debug_line    0x0000000000001cd2      0x201 CMakeFiles/HSU.dir/usr/share/pico-sdk/src/rp2_common/pico_platform/platform.c.obj
 .debug_line    0x0000000000001ed3      0x3d2 CMakeFiles/HSU.dir/usr/share/pico-sdk/src/rp2_common/hardware_sync/sync.c.obj
 .debug_line    0x00000000000022a5      0x5fa CMakeFiles/HSU.dir/usr/share/pico-sdk/src/rp2_common/hardware_uart/uart.c.obj
 .debug_line    0x000000000000289f     0x14c6 CMakeFiles/HSU.dir/usr/share/pico-sdk/src/common/pico_time/time.c.obj
 .debug_line    0x0000000000003d65      0x9c1 CMakeFiles/HSU.dir/usr/share/pico-sdk/src/rp2_common/hardware_timer/timer.c.obj
 .debug_line    0x0000000000004726      0x1ba CMakeFiles/HSU.dir/usr/share/pico-sdk/src/common/pico_sync/lock_core.c.obj
 .debug_line    0x00000000000048e0      0xe8c CMakeFiles/HSU.dir/usr/share/pico-sdk/src/common/pico_sync/mutex.c.obj
 .debug_line    0x000000000000576c      0x244 CMakeFiles/HSU.dir/usr/share/pico-sdk/src/common/pico_sync/critical_section.c.obj
 .debug_line    0x00000000000059b0      0x69d CMakeFiles/HSU.dir/usr/share/pico-sdk/src/common/pico_util/pheap.c.obj
 .debug_line    0x000000000000604d      0x735 CMakeFiles/HSU.dir/usr/share/pico-sdk/src/rp2_common/pico_runtime/runtime.c.obj
 .debug_line    0x0000000000006782      0x8d4 CMakeFiles/HSU.dir/usr/share/pico-sdk/src/rp2_common/hardware_clocks/clocks.c.obj
 .debug_line    0x0000000000007056      0xd0b CMakeFiles/HSU.dir/usr/share/pico-sdk/src/rp2_common/hardware_irq/irq.c.obj
 .debug_line    0x0000000000007d61      0x4ab CMakeFiles/HSU.dir/usr/share/pico-sdk/src/rp2_common/hardware_pll/pll.c.obj
 .debug_line    0x000000000000820c      0x3a6 CMakeFiles/HSU.dir/usr/share/pico-sdk/src/rp2_common/hardware_watchdog/watchdog.c.obj
 .debug_line    0x00000000000085b2      0x239 CMakeFiles/HSU.dir/usr/share/pico-sdk/src/rp2_common/hardware_xosc/xosc.c.obj
 .debug_line    0x00000000000087eb     0x11ad CMakeFiles/HSU.dir/usr/share/pico-sdk/src/rp2_common/pico_printf/printf.c.obj
 .debug_line    0x0000000000009998      0x11a CMakeFiles/HSU.dir/usr/share/pico-sdk/src/rp2_common/pico_bit_ops/bit_ops_aeabi.S.obj
 .debug_line    0x0000000000009ab2      0x1cb CMakeFiles/HSU.dir/usr/share/pico-sdk/src/rp2_common/pico_bootrom/bootrom.c.obj
 .debug_line    0x0000000000009c7d      0x2a9 CMakeFiles/HSU.dir/usr/share/pico-sdk/src/rp2_common/pico_divider/divider.S.obj
 .debug_line    0x0000000000009f26      0x3fa CMakeFiles/HSU.dir/usr/share/pico-sdk/src/rp2_common/pico_double/double_aeabi.S.obj
 .debug_line    0x000000000000a320      0x2e2 CMakeFiles/HSU.dir/usr/share/pico-sdk/src/rp2_common/pico_double/double_init_rom.c.obj
 .debug_line    0x000000000000a602      0x66c CMakeFiles/HSU.dir/usr/share/pico-sdk/src/rp2_common/pico_double/double_v1_rom_shim.S.obj
 .debug_line    0x000000000000ac6e       0x61 CMakeFiles/HSU.dir/usr/share/pico-sdk/src/rp2_common/pico_int64_ops/pico_int64_ops_aeabi.S.obj
 .debug_line    0x000000000000accf      0x3b2 CMakeFiles/HSU.dir/usr/share/pico-sdk/src/rp2_common/pico_float/float_aeabi.S.obj
 .debug_line    0x000000000000b081      0x2e5 CMakeFiles/HSU.dir/usr/share/pico-sdk/src/rp2_common/pico_float/float_init_rom.c.obj
 .debug_line    0x000000000000b366      0x198 CMakeFiles/HSU.dir/usr/share/pico-sdk/src/rp2_common/pico_float/float_v1_rom_shim.S.obj
 .debug_line    0x000000000000b4fe       0x94 CMakeFiles/HSU.dir/usr/share/pico-sdk/src/rp2_common/pico_mem_ops/mem_ops_aeabi.S.obj
 .debug_line    0x000000000000b592       0xa8 CMakeFiles/HSU.dir/usr/share/pico-sdk/src/rp2_common/pico_standard_link/crt0.S.obj
 .debug_line    0x000000000000b63a      0x160 CMakeFiles/HSU.dir/usr/share/pico-sdk/src/rp2_common/pico_standard_link/binary_info.c.obj
 .debug_line    0x000000000000b79a      0xc17 CMakeFiles/HSU.dir/usr/share/pico-sdk/src/rp2_common/pico_stdio/stdio.c.obj
 .debug_line    0x000000000000c3b1      0x3e1 CMakeFiles/HSU.dir/usr/share/pico-sdk/src/rp2_common/pico_stdio_usb/reset_interface.c.obj
 .debug_line    0x000000000000c792      0x86a CMakeFiles/HSU.dir/usr/share/pico-sdk/src/rp2_common/pico_stdio_usb/stdio_usb.c.obj
 .debug_line    0x000000000000cffc      0x28d CMakeFiles/HSU.dir/usr/share/pico-sdk/src/rp2_common/pico_stdio_usb/stdio_usb_descriptors.c.obj
 .debug_line    0x000000000000d289      0xae7 CMakeFiles/HSU.dir/usr/share/pico-sdk/lib/tinyusb/src/portable/raspberrypi/rp2040/dcd_rp2040.c.obj
 .debug_line    0x000000000000dd70      0x842 CMakeFiles/HSU.dir/usr/share/pico-sdk/lib/tinyusb/src/portable/raspberrypi/rp2040/rp2040_usb.c.obj
 .debug_line    0x000000000000e5b2     0x1ee5 CMakeFiles/HSU.dir/usr/share/pico-sdk/lib/tinyusb/src/device/usbd.c.obj
 .debug_line    0x0000000000010497      0x558 CMakeFiles/HSU.dir/usr/share/pico-sdk/lib/tinyusb/src/device/usbd_control.c.obj
 .debug_line    0x00000000000109ef      0xdfc CMakeFiles/HSU.dir/usr/share/pico-sdk/lib/tinyusb/src/class/cdc/cdc_device.c.obj
 .debug_line    0x00000000000117eb      0x662 CMakeFiles/HSU.dir/usr/share/pico-sdk/lib/tinyusb/src/tusb.c.obj
 .debug_line    0x0000000000011e4d     0x14ce CMakeFiles/HSU.dir/usr/share/pico-sdk/lib/tinyusb/src/common/tusb_fifo.c.obj
 .debug_line    0x000000000001331b      0x2e9 CMakeFiles/HSU.dir/usr/share/pico-sdk/src/rp2_common/pico_unique_id/unique_id.c.obj
 .debug_line    0x0000000000013604      0x6ee CMakeFiles/HSU.dir/usr/share/pico-sdk/src/rp2_common/hardware_flash/flash.c.obj
 .debug_line    0x0000000000013cf2       0x4a /usr/lib/gcc/arm-none-eabi/12.1.0/thumb/v6-m/nofp/libgcc.a(_dvmd_tls.o)
 .debug_line    0x0000000000013d3c       0xed /usr/lib/gcc/arm-none-eabi/12.1.0/../../../../arm-none-eabi/lib/thumb/v6-m/nofp/libg.a(lib_a-atexit.o)
 .debug_line    0x0000000000013e29       0xf9 /usr/lib/gcc/arm-none-eabi/12.1.0/../../../../arm-none-eabi/lib/thumb/v6-m/nofp/libg.a(lib_a-fini.o)
 .debug_line    0x0000000000013f22      0x10e /usr/lib/gcc/arm-none-eabi/12.1.0/../../../../arm-none-eabi/lib/thumb/v6-m/nofp/libg.a(lib_a-impure.o)
 .debug_line    0x0000000000014030      0x197 /usr/lib/gcc/arm-none-eabi/12.1.0/../../../../arm-none-eabi/lib/thumb/v6-m/nofp/libg.a(lib_a-strlen-stub.o)
 .debug_line    0x00000000000141c7      0x1f7 /usr/lib/gcc/arm-none-eabi/12.1.0/../../../../arm-none-eabi/lib/thumb/v6-m/nofp/libg.a(lib_a-__atexit.o)
 .debug_line    0x00000000000143be      0x2d5 /usr/lib/gcc/arm-none-eabi/12.1.0/../../../../arm-none-eabi/lib/thumb/v6-m/nofp/libg.a(lib_a-__call_atexit.o)
 .debug_line    0x0000000000014693       0xeb /usr/lib/gcc/arm-none-eabi/12.1.0/../../../../arm-none-eabi/lib/thumb/v6-m/nofp/libg.a(lib_a-lock.o)

.debug_str      0x0000000000000000     0x735c
 .debug_str     0x0000000000000000      0x95a CMakeFiles/HSU.dir/HSU.c.obj
                                        0xa20 (size before relaxing)
 .debug_str     0x000000000000095a      0x445 CMakeFiles/HSU.dir/usr/share/pico-sdk/src/rp2_common/hardware_gpio/gpio.c.obj
                                        0x881 (size before relaxing)
 .debug_str     0x0000000000000d9f      0x1c3 CMakeFiles/HSU.dir/usr/share/pico-sdk/src/rp2_common/hardware_claim/claim.c.obj
                                        0x348 (size before relaxing)
 .debug_str     0x0000000000000f62       0x7a CMakeFiles/HSU.dir/usr/share/pico-sdk/src/rp2_common/pico_platform/platform.c.obj
                                        0x204 (size before relaxing)
 .debug_str     0x0000000000000fdc       0xe5 CMakeFiles/HSU.dir/usr/share/pico-sdk/src/rp2_common/hardware_sync/sync.c.obj
                                        0x32f (size before relaxing)
 .debug_str     0x00000000000010c1      0x267 CMakeFiles/HSU.dir/usr/share/pico-sdk/src/rp2_common/hardware_uart/uart.c.obj
                                        0x51c (size before relaxing)
 .debug_str     0x0000000000001328      0x741 CMakeFiles/HSU.dir/usr/share/pico-sdk/src/common/pico_time/time.c.obj
                                        0xb9b (size before relaxing)
 .debug_str     0x0000000000001a69      0x161 CMakeFiles/HSU.dir/usr/share/pico-sdk/src/rp2_common/hardware_timer/timer.c.obj
                                        0x68b (size before relaxing)
 .debug_str     0x0000000000001bca       0x35 CMakeFiles/HSU.dir/usr/share/pico-sdk/src/common/pico_sync/lock_core.c.obj
                                        0x1e5 (size before relaxing)
 .debug_str     0x0000000000001bff      0x167 CMakeFiles/HSU.dir/usr/share/pico-sdk/src/common/pico_sync/mutex.c.obj
                                        0x5a9 (size before relaxing)
 .debug_str     0x0000000000001d66       0xcd CMakeFiles/HSU.dir/usr/share/pico-sdk/src/common/pico_sync/critical_section.c.obj
                                        0x2a5 (size before relaxing)
 .debug_str     0x0000000000001e33       0xd3 CMakeFiles/HSU.dir/usr/share/pico-sdk/src/common/pico_util/pheap.c.obj
                                        0x3d5 (size before relaxing)
 .debug_str     0x0000000000001f06      0x1fa CMakeFiles/HSU.dir/usr/share/pico-sdk/src/rp2_common/pico_runtime/runtime.c.obj
                                        0x5e7 (size before relaxing)
 .debug_str     0x0000000000002100      0x254 CMakeFiles/HSU.dir/usr/share/pico-sdk/src/rp2_common/hardware_clocks/clocks.c.obj
                                        0x669 (size before relaxing)
 .debug_str     0x0000000000002354      0x319 CMakeFiles/HSU.dir/usr/share/pico-sdk/src/rp2_common/hardware_irq/irq.c.obj
                                        0x701 (size before relaxing)
 .debug_str     0x000000000000266d       0x88 CMakeFiles/HSU.dir/usr/share/pico-sdk/src/rp2_common/hardware_pll/pll.c.obj
                                        0x2bf (size before relaxing)
 .debug_str     0x00000000000026f5      0x11f CMakeFiles/HSU.dir/usr/share/pico-sdk/src/rp2_common/hardware_watchdog/watchdog.c.obj
                                        0x306 (size before relaxing)
 .debug_str     0x0000000000002814       0x64 CMakeFiles/HSU.dir/usr/share/pico-sdk/src/rp2_common/hardware_xosc/xosc.c.obj
                                        0x203 (size before relaxing)
 .debug_str     0x0000000000002878      0x259 CMakeFiles/HSU.dir/usr/share/pico-sdk/src/rp2_common/pico_printf/printf.c.obj
                                        0x464 (size before relaxing)
 .debug_str     0x0000000000002ad1       0x1c CMakeFiles/HSU.dir/usr/share/pico-sdk/src/rp2_common/pico_bit_ops/bit_ops_aeabi.S.obj
                                         0x36 (size before relaxing)
 .debug_str     0x0000000000002aed       0xbd CMakeFiles/HSU.dir/usr/share/pico-sdk/src/rp2_common/pico_bootrom/bootrom.c.obj
                                        0x23e (size before relaxing)
 .debug_str     0x0000000000002baa        0xa CMakeFiles/HSU.dir/usr/share/pico-sdk/src/rp2_common/pico_divider/divider.S.obj
                                         0x30 (size before relaxing)
 .debug_str     0x0000000000002bb4        0xf CMakeFiles/HSU.dir/usr/share/pico-sdk/src/rp2_common/pico_double/double_aeabi.S.obj
                                         0x35 (size before relaxing)
 .debug_str     0x0000000000002bc3       0xb6 CMakeFiles/HSU.dir/usr/share/pico-sdk/src/rp2_common/pico_double/double_init_rom.c.obj
                                        0x2a4 (size before relaxing)
 .debug_str     0x0000000000002c79       0x15 CMakeFiles/HSU.dir/usr/share/pico-sdk/src/rp2_common/pico_double/double_v1_rom_shim.S.obj
                                         0x3b (size before relaxing)
 .debug_str     0x0000000000002c8e       0x17 CMakeFiles/HSU.dir/usr/share/pico-sdk/src/rp2_common/pico_int64_ops/pico_int64_ops_aeabi.S.obj
                                         0x3d (size before relaxing)
 .debug_str     0x0000000000002ca5        0xe CMakeFiles/HSU.dir/usr/share/pico-sdk/src/rp2_common/pico_float/float_aeabi.S.obj
                                         0x34 (size before relaxing)
 .debug_str     0x0000000000002cb3       0x7a CMakeFiles/HSU.dir/usr/share/pico-sdk/src/rp2_common/pico_float/float_init_rom.c.obj
                                        0x2a0 (size before relaxing)
 .debug_str     0x0000000000002d2d       0x14 CMakeFiles/HSU.dir/usr/share/pico-sdk/src/rp2_common/pico_float/float_v1_rom_shim.S.obj
                                         0x3a (size before relaxing)
 .debug_str     0x0000000000002d41       0x10 CMakeFiles/HSU.dir/usr/share/pico-sdk/src/rp2_common/pico_mem_ops/mem_ops_aeabi.S.obj
                                         0x36 (size before relaxing)
 .debug_str     0x0000000000002d51        0x7 CMakeFiles/HSU.dir/usr/share/pico-sdk/src/rp2_common/pico_standard_link/crt0.S.obj
                                         0x2d (size before relaxing)
 .debug_str     0x0000000000002d58      0x277 CMakeFiles/HSU.dir/usr/share/pico-sdk/src/rp2_common/pico_standard_link/binary_info.c.obj
                                        0x400 (size before relaxing)
 .debug_str     0x0000000000002fcf      0x2f0 CMakeFiles/HSU.dir/usr/share/pico-sdk/src/rp2_common/pico_stdio/stdio.c.obj
                                        0x753 (size before relaxing)
 .debug_str     0x00000000000032bf      0x506 CMakeFiles/HSU.dir/usr/share/pico-sdk/src/rp2_common/pico_stdio_usb/reset_interface.c.obj
                                        0x847 (size before relaxing)
 .debug_str     0x00000000000037c5      0x1f8 CMakeFiles/HSU.dir/usr/share/pico-sdk/src/rp2_common/pico_stdio_usb/stdio_usb.c.obj
                                        0x84e (size before relaxing)
 .debug_str     0x00000000000039bd      0xadb CMakeFiles/HSU.dir/usr/share/pico-sdk/src/rp2_common/pico_stdio_usb/stdio_usb_descriptors.c.obj
                                        0xf72 (size before relaxing)
 .debug_str     0x0000000000004498      0x92a CMakeFiles/HSU.dir/usr/share/pico-sdk/lib/tinyusb/src/portable/raspberrypi/rp2040/dcd_rp2040.c.obj
                                        0xe05 (size before relaxing)
 .debug_str     0x0000000000004dc2      0x133 CMakeFiles/HSU.dir/usr/share/pico-sdk/lib/tinyusb/src/portable/raspberrypi/rp2040/rp2040_usb.c.obj
                                        0x83b (size before relaxing)
 .debug_str     0x0000000000004ef5      0x9ff CMakeFiles/HSU.dir/usr/share/pico-sdk/lib/tinyusb/src/device/usbd.c.obj
                                       0x1899 (size before relaxing)
 .debug_str     0x00000000000058f4       0xcd CMakeFiles/HSU.dir/usr/share/pico-sdk/lib/tinyusb/src/device/usbd_control.c.obj
                                        0x613 (size before relaxing)
 .debug_str     0x00000000000059c1      0x6db CMakeFiles/HSU.dir/usr/share/pico-sdk/lib/tinyusb/src/class/cdc/cdc_device.c.obj
                                       0x1658 (size before relaxing)
 .debug_str     0x000000000000609c       0xbe CMakeFiles/HSU.dir/usr/share/pico-sdk/lib/tinyusb/src/tusb.c.obj
                                        0x8a5 (size before relaxing)
 .debug_str     0x000000000000615a      0x384 CMakeFiles/HSU.dir/usr/share/pico-sdk/lib/tinyusb/src/common/tusb_fifo.c.obj
                                        0x778 (size before relaxing)
 .debug_str     0x00000000000064de       0xb9 CMakeFiles/HSU.dir/usr/share/pico-sdk/src/rp2_common/pico_unique_id/unique_id.c.obj
                                        0x257 (size before relaxing)
 .debug_str     0x0000000000006597      0x301 CMakeFiles/HSU.dir/usr/share/pico-sdk/src/rp2_common/hardware_flash/flash.c.obj
                                        0x5c6 (size before relaxing)
 .debug_str     0x0000000000006898       0x58 /usr/lib/gcc/arm-none-eabi/12.1.0/thumb/v6-m/nofp/libgcc.a(_dvmd_tls.o)
                                         0x64 (size before relaxing)
 .debug_str     0x00000000000068f0      0x16d /usr/lib/gcc/arm-none-eabi/12.1.0/../../../../arm-none-eabi/lib/thumb/v6-m/nofp/libg.a(lib_a-atexit.o)
                                        0x209 (size before relaxing)
 .debug_str     0x0000000000006a5d       0xd8 /usr/lib/gcc/arm-none-eabi/12.1.0/../../../../arm-none-eabi/lib/thumb/v6-m/nofp/libg.a(lib_a-fini.o)
                                        0x201 (size before relaxing)
 .debug_str     0x0000000000006b35      0x42b /usr/lib/gcc/arm-none-eabi/12.1.0/../../../../arm-none-eabi/lib/thumb/v6-m/nofp/libg.a(lib_a-impure.o)
                                        0x5a4 (size before relaxing)
 .debug_str     0x0000000000006f60       0xc7 /usr/lib/gcc/arm-none-eabi/12.1.0/../../../../arm-none-eabi/lib/thumb/v6-m/nofp/libg.a(lib_a-strlen-stub.o)
                                        0x1f1 (size before relaxing)
 .debug_str     0x0000000000007027       0x90 /usr/lib/gcc/arm-none-eabi/12.1.0/../../../../arm-none-eabi/lib/thumb/v6-m/nofp/libg.a(lib_a-__atexit.o)
                                        0x63b (size before relaxing)
 .debug_str     0x00000000000070b7       0xaa /usr/lib/gcc/arm-none-eabi/12.1.0/../../../../arm-none-eabi/lib/thumb/v6-m/nofp/libg.a(lib_a-__call_atexit.o)
                                        0x66e (size before relaxing)
 .debug_str     0x0000000000007161      0x1fb /usr/lib/gcc/arm-none-eabi/12.1.0/../../../../arm-none-eabi/lib/thumb/v6-m/nofp/libg.a(lib_a-lock.o)
                                        0x35c (size before relaxing)

.debug_frame    0x0000000000000000     0x2dfc
 .debug_frame   0x0000000000000000      0x224 CMakeFiles/HSU.dir/HSU.c.obj
 .debug_frame   0x0000000000000224      0x200 CMakeFiles/HSU.dir/usr/share/pico-sdk/src/rp2_common/hardware_gpio/gpio.c.obj
 .debug_frame   0x0000000000000424       0x9c CMakeFiles/HSU.dir/usr/share/pico-sdk/src/rp2_common/hardware_claim/claim.c.obj
 .debug_frame   0x00000000000004c0       0x38 CMakeFiles/HSU.dir/usr/share/pico-sdk/src/rp2_common/pico_platform/platform.c.obj
 .debug_frame   0x00000000000004f8       0xc8 CMakeFiles/HSU.dir/usr/share/pico-sdk/src/rp2_common/hardware_sync/sync.c.obj
 .debug_frame   0x00000000000005c0       0x78 CMakeFiles/HSU.dir/usr/share/pico-sdk/src/rp2_common/hardware_uart/uart.c.obj
 .debug_frame   0x0000000000000638      0x414 CMakeFiles/HSU.dir/usr/share/pico-sdk/src/common/pico_time/time.c.obj
 .debug_frame   0x0000000000000a4c      0x150 CMakeFiles/HSU.dir/usr/share/pico-sdk/src/rp2_common/hardware_timer/timer.c.obj
 .debug_frame   0x0000000000000b9c       0x20 CMakeFiles/HSU.dir/usr/share/pico-sdk/src/common/pico_sync/lock_core.c.obj
 .debug_frame   0x0000000000000bbc      0x238 CMakeFiles/HSU.dir/usr/share/pico-sdk/src/common/pico_sync/mutex.c.obj
 .debug_frame   0x0000000000000df4       0x50 CMakeFiles/HSU.dir/usr/share/pico-sdk/src/common/pico_sync/critical_section.c.obj
 .debug_frame   0x0000000000000e44      0x198 CMakeFiles/HSU.dir/usr/share/pico-sdk/src/common/pico_util/pheap.c.obj
 .debug_frame   0x0000000000000fdc       0xdc CMakeFiles/HSU.dir/usr/share/pico-sdk/src/rp2_common/pico_runtime/runtime.c.obj
 .debug_frame   0x00000000000010b8      0x12c CMakeFiles/HSU.dir/usr/share/pico-sdk/src/rp2_common/hardware_clocks/clocks.c.obj
 .debug_frame   0x00000000000011e4      0x19c CMakeFiles/HSU.dir/usr/share/pico-sdk/src/rp2_common/hardware_irq/irq.c.obj
 .debug_frame   0x0000000000001380       0x44 CMakeFiles/HSU.dir/usr/share/pico-sdk/src/rp2_common/hardware_pll/pll.c.obj
 .debug_frame   0x00000000000013c4       0xa8 CMakeFiles/HSU.dir/usr/share/pico-sdk/src/rp2_common/hardware_watchdog/watchdog.c.obj
 .debug_frame   0x000000000000146c       0x40 CMakeFiles/HSU.dir/usr/share/pico-sdk/src/rp2_common/hardware_xosc/xosc.c.obj
 .debug_frame   0x00000000000014ac      0x1fc CMakeFiles/HSU.dir/usr/share/pico-sdk/src/rp2_common/pico_printf/printf.c.obj
 .debug_frame   0x00000000000016a8       0x64 CMakeFiles/HSU.dir/usr/share/pico-sdk/src/rp2_common/pico_bootrom/bootrom.c.obj
 .debug_frame   0x000000000000170c       0x2c CMakeFiles/HSU.dir/usr/share/pico-sdk/src/rp2_common/pico_double/double_init_rom.c.obj
 .debug_frame   0x0000000000001738       0x2c CMakeFiles/HSU.dir/usr/share/pico-sdk/src/rp2_common/pico_float/float_init_rom.c.obj
 .debug_frame   0x0000000000001764      0x2f8 CMakeFiles/HSU.dir/usr/share/pico-sdk/src/rp2_common/pico_stdio/stdio.c.obj
 .debug_frame   0x0000000000001a5c       0xac CMakeFiles/HSU.dir/usr/share/pico-sdk/src/rp2_common/pico_stdio_usb/reset_interface.c.obj
 .debug_frame   0x0000000000001b08      0x154 CMakeFiles/HSU.dir/usr/share/pico-sdk/src/rp2_common/pico_stdio_usb/stdio_usb.c.obj
 .debug_frame   0x0000000000001c5c       0x48 CMakeFiles/HSU.dir/usr/share/pico-sdk/src/rp2_common/pico_stdio_usb/stdio_usb_descriptors.c.obj
 .debug_frame   0x0000000000001ca4      0x238 CMakeFiles/HSU.dir/usr/share/pico-sdk/lib/tinyusb/src/portable/raspberrypi/rp2040/dcd_rp2040.c.obj
 .debug_frame   0x0000000000001edc       0xf8 CMakeFiles/HSU.dir/usr/share/pico-sdk/lib/tinyusb/src/portable/raspberrypi/rp2040/rp2040_usb.c.obj
 .debug_frame   0x0000000000001fd4      0x3f0 CMakeFiles/HSU.dir/usr/share/pico-sdk/lib/tinyusb/src/device/usbd.c.obj
