:020000041000EA
:1000000000B5324B212058609868022188439860DF
:10001000D860186158612E4B002199600221596106
:100020000121F02299502B49196001219960352056
:1000300000F044F80222904214D00621196600F024
:1000400034F8196E01211966002018661A6600F04E
:100050002CF8196E196E196E052000F02FF8012189
:100060000842F9D1002199601B49196000215960AB
:100070001A491B48016001219960EB211966A021F2
:10008000196600F012F800219960164914480160C1
:100090000121996001BC002800D000471248134993
:1000A000086003C880F30888084703B5996A0420EC
:1000B0000142FBD001200142F8D103BD02B5186610
:1000C0001866FFF7F2FF186E186E02BD00000240BE
:1000D000000000180000070000035F00212200005C
:1000E000F4000018222000A00001001008ED00E03C
:1000F00000000000000000000000000074B24E7A12
:1001000000200420F7010010C3010010C5010010F9
:10011000C1010010C1010010C1010010C101001097
:10012000C1010010C1010010C1010010C701001081
:10013000C1010010C1010010C9010010CB01001065
:10014000CD010010CD010010CD010010CD01001037
:10015000CD010010CD010010CD010010CD01001027
:10016000CD010010CD010010CD010010CD01001017
:10017000CD010010CD010010CD010010CD01001007
:10018000CD010010CD010010CD010010CD010010F7
:10019000CD010010CD010010CD010010CD010010E7
:1001A000CD010010CD010010CD010010CD010010D7
:1001B000CD010010CD010010CD010010CD010010C7
:1001C00000BE00BE00BE00BE00BE00BE00F04BF888
:1001D000103800BEF2EB8871FC84001020850010FE
:1001E0003402001090A31AE700202149086006C8D5
:1001F00081F3088810471F48006800282FD10DA4FC
:100200000ECC002902D000F012F8F9E71A491B4A77
:10021000002000E001C19142FCD1194988471949E9
:1002200088471949884700BEFDE701C901C29A42C3
:10023000FBD3704720850010C0000020200500205F
:100240008089001000000420000004208089001034
:1002500000100420001004200000000070470B482C
:1002600002F090FF0047EFF30580C0B27047000036
:1002700008ED00E0000000D0200500209C120020C6
:10028000D51600100D0300109116001057560000EF
:1002900006005250ABB360539C7D001006005250D4
:1002A000861C0302AC7D0010060052505422A29D11
:1002B000B47D001005005250DE65F468808900109E
:1002C000F8B5C04610B5064C2378002B07D1054B76
:1002D000002B02D0044800E000BF0123237010BDB2
:1002E0002806002000000000706F0010044B10B5BD
:1002F000002B03D00349044800E000BF10BDC046F6
:10030000000000002C060020706F001010B503F0F4
:10031000E7FF044803F0A6FFFA20C00000F0D6FD76
:10032000F7E7C046706F0010EFF3108072B6034B12
:100330001B68002BFBD0BFF35F8F70472C0100D0F0
:10034000BFF35F8F024B00221A6080F31088704762
:100350002C0100D0F8B506000C001500FFF7E4FFF3
:10036000E308F718F15C07222240012393400B4277
:1003700005D1DBB20B433B70FFF7E2FFF8BD210074
:10038000280001F023FAF0B583B0060001911400B3
:100390001F00FFF7C9FF00E00134BC420CD8E3089E
:1003A000F518F35C0721214001228A401A42F3D15B
:1003B000D2B21A432A7001E001246442FFF7C0FF61
:1003C000002C02DB200003B0F0BD019B002BF9D014
:1003D000089801F0FBF90000034B1B68022018404D
:1003E000431E9841C0B2704700C00640002307E09A
:1003F000054A9A189200BFF35F8F00211160013304
:100400001F2BF5D97047C04640000034054A1078CC
:10041000431CDBB21370172B02D9130010221A7081
:100420007047C0462004002000B583B00100044B93
:1004300000931F2318220348FFF7A5FF03B000BD58
:10044000806F0010A80B002070B505000C0008009C
:1004500000F0CCFD200000F0B1FE0849200000F0C3
:10046000F1FDFFF7D3FF064B9C46604480006860B7
:100470002C75A400034BE55070BDC0468D070010DD
:10048000400000344C1000200A4B1A68EFF3108132
:1004900072B61368002BFCD0BFF35F8F054B1B684F
:1004A000BFF35F8F00221A6081F3108840BF0020E5
:1004B000002170476812002010B5002922D003687F
:1004C0001B7B99421ED8174B9C46614409018368E7
:1004D0009C4661440C684968002A19D003681B7B5C
:1004E0009A4215D883680F488446624412019A18CC
:1004F00010685368020001208B4201D80ED0002002
:10050000C0B210BD084B094A3B21094801F0C4F8AC
:10051000054B064A3B21064801F0BEF8A242EFD83F
:10052000EDE7C046FFFFFF0FE86F0010A472001058
:10053000B06F001010B500291ED0037B99421BD864
:100540004B005B18033B0468A4466344002919D0A0
:10055000002A1DD0914221D0002A25D0047BA2423E
:1005600022D8046850008018033820188170197848
:1005700000291FD11A7010BD104B114A6921114872
:1005800001F08AF8104B114A70310E4801F084F8DE
:100590000F4B0E4A71210B4801F07EF80D4B0B4AB0
:1005A0007221084801F078F8044B054A6921054892
:1005B00001F072F841701A70DDE7C0461C7000103F
:1005C000107300103870001080700010EC72001072
:1005D0008C7000109870001070B506000D001400AB
:1005E000002914D0002A14D0806873689847002826
:1005F00006D0220029003000FFF79CFF280007E00A
:100600002A0021003000FFF795FF200000E01000D5
:1006100070BD0800FCE70000F0B583B00500009253
:1006200001930AAB1C780BAB1F78002C26D0036813
:100630005A7B944207D10123002B19D1002C3BD1C6
:10064000200003B0F0BD002C0CD01A7B944209D8D6
:100650001A6863001B19033BD3189B78002BEBD05F
:100660000123E9E73E4B3F4A69213F4801F014F876
:100670003E4B3F4A65213F4801F00EF803689C7BE2
:10068000002CDBD012D01A7B94420FD862001219D2
:10069000033A19688C46624451789973002900D155
:1006A000D9730023937053701370C7E72C4B2D4AF6
:1006B00069212D4800F0F0FF002C3AD02B681B7BFD
:1006C0009C4236D82C4BE3181B01AA68944663441D
:1006D000009A1A60019A5A60089A9A60099ADA6038
:1006E0002E68002C2BD030D0337B9C422DD8630059
:1006F0001B19033B32689446634400229A705A7077
:100700001A70717B22003000FFF766FF707384421D
:1007100000D095E7287D009A019B00F0DBFC061EC7
:1007200001D0002F17D00C9B002B00D188E71E7042
:1007300086E7124B124A3B210E4800F0ADFF114BE9
:10074000114AA621084800F0A7FF054B054A692178
:10075000054800F0A1FF2868210000F01BFFE2E738
:100760001C7000101073001038700010B070001072
:100770001C730010B06F0010FFFFFF0FE86F001038
:10078000A4720010AC6F001000730010F0B5DE46CC
:1007900057464E464546E0B58BB009900023089376
:1007A0008200B24BD658370032E0B14BB14A3F21FC
:1007B000B14800F071FFB14BB14A3B21B14800F0A4
:1007C0006BFFB14BB14A8C21AE4800F065FFB04BD6
:1007D000AE4A9021AB4800F05FFFA84BAD4A4021E4
:1007E000A84800F059FF2A686B68099800F072FC6D
:1007F00000239A4698467B68BFF35F8F00221A60F9
:1008000086F310884346002B51D1002800D126E101
:1008100000F0F8FB02000B1EC7DB00200021069051
:1008200007917868EFF3108672B601680029FCD052
:10083000BFF35F8F396888464C7B002C32D0BAD02A
:10084000097B8C42B7D8944965182D01B9688C464C
:10085000654428686968801A99410029C3DC01D180
:100860000028C0D10021404600F08AFEA042A8D155
:100870002A686B6806920793AB689846EB689A46BD
:100880004346002BA3D0002CA7D03B681B7B9C4287
:10089000A3D8631EFA68D35C08931B02184338611F
:1008A0000020A8E700239A4698460020A3E7089B6B
:1008B0001B022343994651461800C04705000E000D
:1008C0007A68EFF3108B72B6136859424B41D9B274
:1008D000002BF9D1BFF35F8F002E26DB002E52DDF7
:1008E0003B69002B53D04B4572D100F08BFB0200CB
:1008F0000B1E73DB0100180052197341984202D895
:1009000004D1914202D901225242D317002B6BDB52
:100910000021049101310391029451460191414615
:1009200000913800FFF778FE49E03B69002BD5D0F5
:100930004B451CD1069A079B10001900521BB3416E
:10094000994202D804D1904202D901225242D317CF
:10095000002B12DB002104910131039102945146D6
:100960000191414600913800FFF756FE27E04B4BBE
:10097000464A9F21434800F08FFE3D4B3D4A3F21B0
:100980003D4800F089FE002E01D1002DA8D13A6823
:10099000002C45D0537B9C422CD1012100293FD112
:1009A000D37B002B42D1D473002C52D03B681B7BED
:1009B0009C424ED8FA68013C135D01331355002365
:1009C0003B617A68BFF35F8F13608BF310881FE77A
:1009D000324B2E4AA2212B4800F05EFE244B254AC2
:1009E0003F21254800F058FE214B224A3F21224852
:1009F00000F052FE002C0DD0137B9C420AD86300FD
:100A00001B19033B1068844663449B78002BC5D0B8
:100A10000121C3E7224B234A6921234800F03CFE11
:100A2000224B234AF721204800F036FE002B0AD043
:100A3000117B8B4207D85900CB18033B11688C46B9
:100A400063445C70AFE7164B164A6921164800F004
:100A500023FE0A4B0F4A40210A4800F01DFE0BB04E
:100A6000F0BCBB46B246A946A046F0BD4C100020E3
:100A7000D870001070720010F4700010E86F001051
:100A8000A4720010B06F001038710010887200104E
:100A900050710010C8720010FFFFFF0F5C71001052
:100AA0001C70001010730010387000109871001046
:100AB000DC72001010B50A4B5B68002B04D00A21D1
:100AC000084800F09BFB10BD054C2300064A10218E
:100AD000206800F075FC03212000FFF7B5FCEEE76D
:100AE0002404002068120020B904001010B5064B41
:100AF0005B68002B01D0044810BD044B044A5C2104
:100B0000044800F0C9FDC04624040020BC71001058
:100B1000B0720010B06F0010F0B5DE4657464E467A
:100B20004546E0B58BB0804616001F00149B9A46E0
:100B3000159B994616AB1B789B461F2302AA944629
:100B4000634400221A7032E0002809D0424612683D
:100B5000127B904204D8421E4146C9688A5C48E034
:100B6000434B444A4021444800F096FD0798002B2F
:100B700075D05B46002B72D04946D04704000D006B
:100B800003000B4300D171E0002946DB00F03AFA84
:100B900006000F1E55DB36196F41B94202D804D149
:100BA000B04202D901267642F717002F4FDB4346A9
:100BB0005A68EFF3108472B6136859424B41D9B2A8
:100BC0000791002BF8D1BFF35F8F1F3302AA944621
:100BD000634404930023039302934B4601935346CB
:100BE000009332003B004046FFF716FD031EABD1D9
:100BF000020041464968BFF35F8F00250D6084F312
:100C00001088002B29D01F2302A98C4663441B782F
:100C1000002BABD112021043A9E732003B00361B78
:100C2000AF41BB4202D804D1B24202D9012676427A
:100C3000F717002FBBDA114B114A3F21114800F082
:100C40002BFD0E4B0E4A3F210E4800F025FD0B4BAD
:100C50000B4A3F210B4800F01FFD012040420BB022
:100C6000F0BCBB46B246A946A046F0BD0798F6E7E1
:100C7000E86F0010C8720010B06F0010D87000103C
:100C800070720010F4700010F8B504004268EFF3C1
:100C9000108572B6136858424341D8B2002BF9D17F
:100CA000BFF35F8FCBB22268567BB3421BD10120CA
:100CB000002848D0206988422BD0090AC9B2002BED
:100CC0002ED02068007B83422AD8581EE668305C0C
:100CD00088422BD000206368BFF35F8F00221A6028
:100CE00085F31088F8BD002B0DD0167BB3420AD8CF
:100CF0005E00F618033E1768BC466644B678002EC0
:100D0000D6D00120D4E7134B134A6921134800F0D1
:100D1000C3FC8521124B134A4900134800F0BCFC68
:100D2000124B134A4021104800F0B6FC1900100085
:100D300000F030FC0028CED112210E4B094AFF31C1
:100D4000094800F0A9FC23698B42C4D10023236128
:100D5000C1E7C0461C7000101073001038700010FE
:100D6000E071001058720010B06F0010E86F0010B2
:100D7000C872001004720010F0B587B006000F00B2
:100D8000FFF771FA00281FD106246442E517A41961
:100D90007D41BD4202D803D1B44201D900240025CF
:100DA000002D14DB0494059500F02CF902000B1EB5
:100DB00013DBA41A9D41002D17DC14D0300039003C
:100DC00000F02CF907B0F0BD234800F0FFFC234BE6
:100DD000234A3F21234800F05FFC204B204A3F215B
:100DE000204800F059FC002CE8D0FFF77FFE0023DC
:100DF000029301931C4B0093049A059BFFF78CFE12
:100E0000002818DADAE7002300E00023002BD5D110
:100E1000164B1A68EFF3108172B61368002BFCD0E2
:100E2000BFF35F8F114B1B68BFF35F8F00221A6007
:100E300081F3108820BF0499059A0D4B5B6A9A4292
:100E4000E3D80B48806A884203D29A42DBD0012360
:100E5000DCE70123DAE7C04608720010D870001002
:100E600070720010F47000108904001068120020E5
:100E700000400540F8B504000D0000F0C3F8020082
:100E80000B1E10DB20002900801859418B4202D82C
:100E900004D1824202D901204042C117002908DB57
:100EA000FFF76AFFF8BD064B064A3F21064800F0EF
:100EB000F3FB034B034A3F21034800F0EDFBC04620
:100EC000D870001070720010F470001010B5FA2283
:100ED00092000023002102F0EDFFFFF7CBFF10BDD1
:100EE00070B584B006000C00FFF700FE00230293EB
:100EF0000193194B009332002300FFF70DFE051EEE
:100F000011DD20BFFFF7F2FD2900FFF7BDFE134BF7
:100F10005B6A9C421BD8114A926AB2421AD29C4226
:100F200013D0012014E00D4B5B6A9C4209D80B4A98
:100F3000926AB24207D29C4201D0012008E0002010
:100F400006E0002004E0012002E0002000E0002094
:100F500004B070BD0120FBE789040010004005408B
:100F600070B5EFF305833F2018401038EFF3108C75
:100F700072B6194B1B68002BFBD0BFF35F8F0123A8
:100F800019008140154A5163154A12781400C44073
:100F9000234214D0114B5C6A8300124D5B599C4272
:100FA00006D38300104C1B598A430D490A7007E091
:100FB0000A4A031D9B0099589950002300E0002322
:100FC000BFF35F8F044A002111608CF31088002B5F
:100FD00000D0984770BDC046280100D000400540B1
:100FE0009B12002074120020980A002010B5010006
:100FF000024A0348FFF7AEF910BDC0463473001033
:1010000098120020044B5B6A034A906A1900536AE5
:101010009942F9D17047C04600400540084B5B6AD1
:1010200001E0074B5B6A8B42FBD301E0044B5B6A38
:101030008B4203D1024B9B6A8342F7D37047C04671
:101040000040054070B504000D00EFF3108672B645
:101050001B4B1B68002BFBD0BFF35F8F002D1CD0F8
:10106000200000F047FD174B83420BD019002000F1
:1010700000F048FD0121200000F02CFD0123A340D9
:10108000114A1360A400114BE550BFF35F8F0C4B66
:1010900000221A6086F3108870BDA2000B4B00215D
:1010A000D1500122A2400A490B7893430B700549A5
:1010B000200000F051FD0021200000F00BFDE4E7CE
:1010C000280100D0610F001038600540980A002008
:1010D0009B120020F0B5DE4600B584B00400150078
:1010E00001921E000293FFF78DFF03958E4202D8F6
:1010F0004ED185424CD9EFF3108B72B6274B1B684B
:10110000002BFBD0BFF35F8F254A17780125A54040
:10111000EBB23B431370234B5D63221D9200019998
:10112000D150A2002049029850501B6A2B4212D184
:101130001C4B1B6C2B4208D00020BFF35F8F174B5A
:1011400000221A608BF3108823E0184B184AC12143
:10115000184800F0A1FAFFF755FF8E4214D802D1CB
:10116000039B834210D80E4B1B78BB420ED00D4B15
:101170001D625D631F2004400123A3400E4A1360DB
:10118000074B1F701E38D8E70020D6E70120D4E7B0
:10119000012004B080BCBB46F0BDC046280100D091
:1011A0009B1200200040054074120020587300106C
:1011B000BC7300107C73001080E200E0EFF3108C31
:1011C00072B60B4B1B68002BFBD0BFF35F8F012364
:1011D0008340084A136208490A789A430A70BFF3A9
:1011E0005F8F034B00221A608CF310887047C04653
:1011F000280100D0004005409B120020024B9C4675
:1012000061448900016070474000003410B504005B
:10121000FFF7FCF801002000FFF7F0FFFF23237128
:10122000BFF35F8F10BD10B50400FFF7EFF80100AA
:101230002000FFF7E3FFFF23237100236371BFF357
:101240005F8F10BD034B9C46614489000160BFF372
:101250005F8F70474000003410B504000120FFF795
:10126000E3F801002000FFF7EDFF10BD10B50029E5
:101270001ED0037B99421BD84B005B18033B0468CC
:10128000A4466344002919D0002A1DD0914221D0E0
:10129000002A25D0047BA24222D80468500080187E
:1012A000033820188170197800291FD11A7010BDD9
:1012B000104B114A6921114800F0EEF9104B114A08
:1012C00070310E4800F0E8F90F4B0E4A71210B48BF
:1012D00000F0E2F90D4B0B4A7221084800F0DCF9EE
:1012E000044B054A6921054800F0D6F941701A708F
:1012F000DDE7C0461C7000109475001038700010B7
:1013000080700010807500108C70001098700010B4
:1013100070B506000D001400002914D0002A14D066
:10132000806873689847002806D0220029003000A2
:10133000FFF79CFF280007E02A0021003000FFF79C
:1013400095FF200000E0100070BD0800FCE70000E1
:1013500010B50023437301338373037BC3730123ED
:10136000027B9A4214D9002B0CD0027B934209D8FD
:101370005A00D218033A01688C4662440133DBB24A
:101380005370EDE70B4B0C4A69210C4800F084F9CF
:10139000002A09D0924207D8016853009A18033AEC
:1013A0008A180023537010BD024B034A6921034879
:1013B00000F072F91C700010947500103870001065
:1013C00010B5017342608360FFF7C2FF10BD0000DB
:1013D00070B50400081E00D170BD002934D0237BF5
:1013E000994231D84B005B18033B22689446634412
:1013F0005A78002AF0D02DD0237B9A422AD8530065
:101400009B18033B21688C4663445D78002159702A
:10141000002825D0237B984222D843001B18033B89
:1014200021688C4663440021597001002000FFF7B9
:101430006FFF060029002000FFF7CAFF02003100FD
:101440002000FFF765FFC7E7084B094A69210948F3
:1014500000F022F9054B064A6921064800F01CF904
:10146000024B034A6921034800F016F91C70001072
:10147000947500103870001070B505000C0016004F
:10148000002928D02DD0037B99422AD84B005B1825
:10149000033B0268944663445A78002A27D19A781D
:1014A000002A2AD11978FFF793FF0300002E03D0FA
:1014B000EA7B002A27D1EC73002B37D1002C49D0CE
:1014C0002B7B9C4246D82B6861000C19033C1C19ED
:1014D0000023637070BD224B224A3821224800F05D
:1014E000DBF8224B224A6921224800F0D5F8224B32
:1014F0001C4A3A211C4800F0CFF8204B194A3B21E6
:10150000194800F0C9F8002A0AD0297B8A4207D876
:1015100051008A18033A29688C4662445470CAE71D
:10152000124B134A6921134800F0B6F8002B0BD078
:101530002A7B934208D843001B18033B2A68944631
:10154000634400229A70B9E7084B094A69210948A7
:1015500000F0A2F8054B064A6921064800F09CF805
:10156000A07400106C750010A87400101C7000109E
:101570009475001038700010E074001008750010A9
:1015800070B504000A00457B2900FFF775FF607302
:10159000280070BD70B50400002967D0437B8B42E2
:1015A0000ED0002911D0037B99420ED84B005B1856
:1015B000033B0268D0188378002B0CD1002056E042
:1015C0000121FFF7DDFF012051E0294B294A692164
:1015D000294800F061F8002B20D0227B93421DD8CF
:1015E0005A00D318033B2268D2182568EB5C8B4263
:1015F0001AD0002B1BD0227B934218D85A00D31844
:10160000033B2268D21853788B4216D0002BF0D1BE
:101610001A4B1B4A67211B4800F03EF8144B154A31
:101620006921154800F038F84378137007E0104B33
:10163000104A6921104800F02FF8437853700023B6
:101640008370437001222000FFF716FF0200617BC8
:10165000814205D02000FFF75BFE6073012006E0A9
:10166000094B074A6D21074800F016F8002070BDAD
:101670001C70001094750010387000102C7500104C
:1016800054750010A87400103475001000BEFDE7FA
:1016900010B5FFF7FBFF000010B582B00C00190079
:1016A000002A0CD0084B002A0BD001920093230093
:1016B0000200064802F008FE0120FFF7E7FF044B96
:1016C000F1E7034AF1E7C046A0750010B0750010BD
:1016D000AC75001070B52B4B2B4A1A602B4B2C4A63
:1016E0001A602C4B9A682A4B9343FAD12A4C01E09A
:1016F00008CC9847294B9C42FAD300F001F9234BC0
:10170000274A1A60234B9B68DB43DB01FAD1254B48
:1017100040229A675A671A67DA66234C09E0234B1E
:10172000234A83212348FFF7B7FF2000FFF76EFD10
:101730000834214B9C4209D22368002BF5D0012BA1
:10174000EDD12000FFF76FFD0834F2E71B4CA168D4
:101750001B4DC022280002F06DFCA560FEF783FD42
:10176000002800D000BEFEF741FE00F043FBFFF76B
:10177000A1F9144C01E008CC9847134B9C42FAD3D2
:1017800070BDC04600E00040BFCDFBFE00F0004051
:10179000FE7F3C0000C00040080500201805002026
:1017A000FFFFFF0100F0014000050020E075001080
:1017B00054760010007600100805002000ED00E0CF
:1017C0000000002018050020200500200FB400B5FF
:1017D00083B0084802F046FD049B002B07D005A902
:1017E0000191180002F04EFD034802F03BFD01207C
:1017F000FFF74CFF4076001050760010F8B5DE463B
:1018000057464E464546E0B505000F0092460A9AF7
:1018100093424ED31A0E91461E020A9A00233000BC
:10182000494601F045FD80466C006419A4002F4B29
:101830009C4664446368834200D260602B1FDBB225
:101840009B46012B3BD9C0239B01234380221201DD
:101850001A60AB00264A9958002905D0506901F05A
:10186000E5FC01300138FDD153465A0123685A4046
:10187000E0231A4080235B0123431A605A46012A61
:1018800028D980239B012343802212011A604346FA
:101890006360424600233000494601F009FDAD0077
:1018A000134B58510120F0BCBB46B246A946A04696
:1018B000F8BD104B104A2D211048FFF7EDFE012F07
:1018C000C1D1C0239B01234303221A60A368DB0715
:1018D000FCD5C9E72168794003220A401A60A26852
:1018E0000123BB401342FAD0CBE7C0460080004042
:1018F000AC0B002064760010BC76001078760010E7
:1019000030B583B00C2000F00FFBFEF765FD00281A
:101910000DD0002304E099002D4A2E488850013351
:10192000092BF8D92A4B2C4A5A6203B030BD2B4BF5
:1019300000229A6700F06AFB294B01221A60274BAC
:101940005B6C012BFBD1274B03221A60234B9B6B53
:10195000012BFBD1022400940533234A01212348A3
:1019600000F056FA00940523214A0121214800F095
:101970004FFA214B0093002202210420FFF73EFF83
:101980001E4D00952B00002201210520FFF736FF98
:10199000104C00942300002200210720FFF72EFFA7
:1019A00000942300002200210820FFF727FF0A4BA4
:1019B00000932300002200210920FFF71FFF00955C
:1019C0002B00002200210620FFF718FFADE7C046DC
:1019D000AC0B0020006CDC021BB700000080004054
:1019E0003CB0004030B00040002F685900800240F9
:1019F00000389C1C00C00240001BB7004059730710
:101A0000074B9B68103080001950BFF35F8FBFF306
:101A10005F8F044B0021196082F310887047C04625
:101A200000ED00E0240100D010B5091A043948087F
:101A3000090B05D14005400D044B184380B210BD81
:101A4000034B044A8B210448FFF726FE00E0FFFF0A
:101A5000CC760010D4780010DC76001010B5091A8E
:101A600004394C08090B08D14905490D064A1143B0
:101A70000180064B2343438010BD054B054A93214B
:101A80000548FFF709FEC04600F0FFFF00F8FFFF22
:101A9000CC760010A8780010DC760010012383407B
:101AA000034A10681840431E9841C0B27047C046B0
:101AB00000E100E0002904D0034B1860034B1860DC
:101AC0007047034B1860FBE780E200E000E100E0B4
:101AD00080E100E010B5012383401800FFF7EAFF22
:101AE00010BD000001238340014A13607047C046C7
:101AF00000E200E0024B9B6810308000C058704745
:101B000000ED00E070B504000D00EFF3108672B632
:101B10000C4B1B68002BFBD0BFF35F8F2000FFF73F
:101B2000E9FF094B984201D0A84205D132002900B3
:101B30002000FFF765FF70BD044B054A6E21054884
:101B4000FFF7AAFD240100D0CD0100101877001086
:101B5000F0780010DC760010F0B5CE46474680B530
:101B600083B006000D00EFF3108872B6574B1B6868
:101B7000002BFBD0BFF35F8F554B9A6834001034B5
:101B8000A300D758534B9F4207D0AF4200D19BE0F0
:101B90000197514BFB1A2F2B09D9424639003000CF
:101BA000FFF72EFF03B0C0BCB946B046F0BD300011
:101BB000FFF774FF814600213000FFF78BFFBFF372
:101BC0005F8FFEF750FB002801D0844219D101231A
:101BD000019C9C43414923003F4A9B1A5B41594366
:101BE000090D49B20022A368AB4212D00622A256C8
:101BF000002A0DDB53009B189B002200364CE41892
:101C0000F1E71E21364B374AFF313748FFF744FDD5
:101C10002200AB4251D106256557002D39DB6B0000
:101C20005B199A002C4B9B189A68A260DA79E271D2
:101C300006229A56A2719B795BB2002B10DABD2066
:101C40000002A0806B005B199B00234AD318274A2F
:101C500011789971157049463000FFF73BFF9CE7FA
:101C6000201D6B005B199B001B4A9B181A1D9B884B
:101C7000D90A1C2907D15B055B150233590051189D
:101C8000FFF7D2FEDDE71A4B1A4A99211648FFF7F3
:101C900003FD00280CD1002A08D0FF239371164BB6
:101CA0009380124B1A78A2711970D4E7094FF8E7A4
:101CB000201D1249FFF7D2FECDE7A921104B094A9A
:101CC00049000948FFF7E8FC024F66E7240100D00D
:101CD00000ED00E0CD0100104C040020AAAA000095
:101CE0002C780010C0780010DC76001099120020CB
:101CF00014780010E078001000BDFFFF860400207B
:101D00005078001070B50400012606432D4BF31ADD
:101D10002F2B28D8FEF7A7FA00282BD0EFF3108C32
:101D200072B6294B1B68002BFBD0BFF35F8F274D8A
:101D300022002449521A524155432D0D6DB2244BB5
:101D40009B6880001B58B3421BD00022032A32D864
:101D500053009B189B001B49CB189B795BB2AB428D
:101D60001FD00132F2E778211A4B1B4AFF311B4882
:101D7000FFF792FCBD211A4B174A49001748FFF79D
:101D80008BFC134B9B68174A1A50174B1A78A27199
:101D90001D70BFF35F8F0C4B00221A608CF310880C
:101DA00070BD08005300991889004118FF268E71F4
:101DB0000E4A8A80E9E78C210D4B074AFF3107481C
:101DC000FFF76AFC4C040020240100D0AAAA0000FE
:101DD00000ED00E0587800108C780010DC760010E0
:101DE00080780010CD0100109912002000BDFFFF87
:101DF0002C7500100022044B02E0044902C301329A
:101E0000072AFAD97047C04600E400E0808080804D
:101E1000F0B5CE4600B504000E0091461F000C2020
:101E200001F004FA050043011B1A9901C91AC900FF
:101E300009188901484601F0F9F90200103A98237F
:101E40005B009A4233D87B1E062B36D8069B013B9B
:101E5000062B32D8069B9F4235D34B461A09AA421D
:101E600037D33F04069B1D032F432368002B36DB2B
:101E7000234B9C4241D080225201224B1A60224BBC
:101E80001A60224B9B6811009943FAD12660A0602A
:101E9000231DC02292011A43212313602368002BC3
:101EA000FCDAE7600823136080BCB946F0BD184B2C
:101EB000184A16211848FFF7EFFB184B154A19214D
:101EC0001548FFF7E9FB164B124A1F211248FFF78E
:101ED000E3FB144B0F4A22210F48FFF7DDFB22687A
:101EE0003F231340B342C3D1A3681B051B0D83429C
:101EF000BED1E368002FBBD1D6E780229201BCE7B8
:101F000000C0024000E0004000F0004000C000407F
:101F10000C790010E4790010287900106479001021
:101F2000B0790010C879001080239B000343014A58
:101F3000D362704700800540024B1A68024B5A601A
:101F40007047C046441000200080054010B50200D4
:101F5000164B8020C0051860154B164818600029E4
:101F60000AD0154BE021C9041960002A09D1124B8F
:101F7000802212061A6010BD0C4BE021C9041960C2
:101F8000F3E753019B1A9800801800010B4B18606F
:101F900080235B04984202D3084B094A1A60FFF77A
:101FA000CBFF054B8022D2051A60E4E700B0054064
:101FB00008200140FCFF010000A005404410002063
:101FC000FFFFFF0010B5030010000C4A8024E40559
:101FD0001460002B0DD001221343094A094CD4612F
:101FE000094C5C401462516293620021FFF7AEFF1E
:101FF00010BD034B0022DA61F7E7C04600B0054090
:1020000000800540D3C007B02D3FF84F064BAA22F1
:1020100012011A602F22DA60044B054A1A60024B43
:102020005B68002BFBDA7047004002400060024012
:1020300000B0FA00704710B5002802D00B6849685C
:10204000984710BD0100002007E083001B185B00CB
:10205000501C08601078C01830380A681378303B7C
:10206000DBB2092BF1D97047F0B5DE4657464E4634
:102070004546E0B583B093461F000C9B9A460D9CE5
:102080000E9B99460F9B9B0703D0B8460F00060096
:1020900022E00192A34688464E46B9460700B44264
:1020A00007D2551C4B4641462020B84701342A0030
:1020B000F5E73D004F465C46019B9B46B1464646D0
:1020C000B84637002E0007E0013C551C5346185D0A
:1020D00043463900B0472A00002CF5D135003E00B8
:1020E00047460F9B9B0707D4100003B0F0BCBB46CC
:1020F000B246A946A046F0BDB0464E46B9462F00AE
:102100005D46531BB342EFD2541C4B464146202040
:10211000B8472200F5E7F0B5CE46474680B585B012
:10212000944698460C9D0D9C0EAB1B789946109AD0
:10213000119B129EB7071CD4002B0CD0F7070AD5B1
:102140004F46002F02D10C37374204D0013B02E04A
:1021500030272F550134944201D21F2CF8D9F707AC
:1021600007D59C4205D21F2C03D830272F550134A8
:10217000F5E7F70615D5770505D4002C03D0944272
:1021800024D09C4222D00F9A102A2BD00F9A102ACA
:1021900030D00F9A022A35D01F2C02D830222A556F
:1021A00001341F2C05D84A46002A31D02D222A5549
:1021B0000134039602930194009543466246FFF76B
:1021C00053FF05B0C0BCB946B046F0BD621E012C3D
:1021D00006D00F9F102F01D01400D4E7023CD2E7A5
:1021E0001400D0E7B206D1D41F2CCFD878222A55BC
:1021F0000134D1E7B206CCD51F2CCAD858222A55B3
:102200000134C9E71F2CC7D860322A550134C3E70F
:10221000720703D52B222A550134CAE73207C8D5E5
:1022200020222A550134C4E7F0B5DE4657464E4613
:102230004546E0B593B081468A46089209931CABA7
:1022400010CB1B789B461E9D219B9846002C03D1EA
:10225000102342469A4390468023DB0046461E40A8
:1022600042461A4212D0002C22D000260EE0303313
:10227000D9B2771C0AAB99552900200000F0D6FF8F
:10228000AC4216D31F2F14D83E00040029002000B2
:1022900000F0CCFFCBB2092BE9D94246920605D516
:1022A0004121C918C9B20A39C9B2E2E76121F8E788
:1022B000270043460693209B05931F9B0493039599
:1022C0005B46029301970AAB0093099B089A51461B
:1022D0004846FFF720FF13B0F0BCBB46B246A94604
:1022E000A046F0BDF0B5DE4657464E464546E0B541
:1022F00095B0089009910A920B931E9E1F9C20ABEB
:102300001B789B46229B9946239D269B9A46330029
:10231000234303D1103352469A4392468023DB0075
:1023200057461F4052461A4219D0330023432DD03E
:10233000002714E03033DAB27B1C98460CABDA5538
:102340004A462B003000210000F0B2FFA5421FD802
:1023500019D043461F2B1BD8474606000C004A469F
:102360002B003000210000F0A3FFD3B2092BE1D9EC
:102370005246920605D54122D218D2B20A3AD2B2BA
:10238000DAE76122F8E7B145E3D901E00023984696
:1023900053460693259B0593249B04934B46039336
:1023A0005B460293434601930CAB00930B9B0A9A46
:1023B00009990898FFF7AFFE15B0F0BCBB46B246CE
:1023C000A946A046F0BD0000F0B5DE4657464E4691
:1023D0004546E0B591B083468A460C9298461A9CD1
:1023E00008941B9D099522002B002000290001F074
:1023F000EEF9002800D0E5E001225242D74B200040
:10240000290001F0DFF9002800D0DBE00122524270
:10241000D34B2000290001F0BFF9002800D0D1E003
:1024200000220023089E3000099D290001F0B4F924
:10243000002800D0DDE008980999069007918023D4
:10244000DB001E9A1A400D921E9A1A4201D10623F1
:102450001C930698079904000D000A000600024329
:1024600000D1D1E0080D4005400DBE4CA4466044AB
:102470000A03120BBC4B13431F0001F0BBF9BB4A0C
:10248000BB4B01F046F9BB4ABB4B01F01BF9040002
:102490000D000022B94B3000390001F00AF9B84AAA
:1024A000B84B01F036F902000B002000290001F0C2
:1024B00009F901F0B7F9814601F09CF904000D001B
:1024C000B14AB24B01F025F90022B14B01F0FAF804
:1024D00001F0A8F90600AF4AAF4B2000290001F037
:1024E00018F904000D00300001F084F9AB4AAC4B40
:1024F00001F00FF902000B002000290001F0D9F8CB
:1025000004000D0002000B0001F003F90A900B918A
:10251000A44BF31800261F0522002B0020002900E1
:1025200001F0D0F80E900F9122002B0000208021A6
:10253000C90501F0BEF804000D0000229A4B0A986C
:102540000B9901F0C8F80022984B01F0BBF802008B
:102550000B000A980B9901F0BEF80022944B01F091
:10256000B1F802000B000A980B9901F0B4F80200D0
:102570000B002000290001F0A5F802000B000E98C6
:102580000F9901F0A8F80022774B01F09BF8320078
:102590003B0001F0BEF806000F0004000D00069A93
:1025A000079B01F00FF9002830D001235B429C46C5
:1025B000E14400227D4B3000390001F08CF804002A
:1025C0000D0023E01E9B04931D9B03931C9B029311
:1025D000089A099B0092019343460C9A514658462B
:1025E00000F0FCF811B0F0BCBB46B246A946A046CC
:1025F000F0BD0023002406930794069680231B0653
:102600009C46654407951AE7002399464B46633379
:10261000C62B1ED804261E9B1B0526D52B00234344
:102620000FD0644A644B0698079901F0C3F800285C
:1026300079D00022614B0698079901F0ADF8002887
:1026400071D01C9B4B4506DD4A46981A431E1C93CD
:1026500003E00526DFE700231C938023DB001E9A9E
:102660001A431E920026002399461D9B9E4264D267
:102670009F1B02231E9A1A400A921E9A134202D0EE
:10268000002E00D000274B46002B07D022002B0045
:102690000698079901F01FF8069007910022002381
:1026A0000898099901F078F8002848D1444B1E9AFF
:1026B0001340049303971C9B0293069B079C009373
:1026C000019443460C9A5146584600F087F8002E74
:1026D00000D187E71E9B9B063DD54525441C4346FC
:1026E000020051462800D8474B46DA179B18534042
:1026F00005220592013E0496002203920A320292BC
:102700004A46D00F01900093434622005146584656
:10271000FFF78AFD0A9B002B00D163E702005F46AA
:102720000C9E1D9D54E01C9B002B9ED00D9B002BEE
:102730009BD01C9B013B1C9397E7002799E7069CC5
:10274000079D2200290080200006844661440B007A
:1027500006920793AAE76525C0E7C046FFFFEF7F13
:10276000FFFFEFFF01FCFFFF0000F03FFB799F50F0
:102770001344D33FB3C8608B288AC63F0000F83F9C
:1027800061436F63A787D23F71A379094F930A40D2
:102790000000E03F1655B5BBB16B0240EF39FAFEC1
:1027A000422EE63FFF03000000002C4000002440C2
:1027B000000018402D431CEBE2361A3F80842E4166
:1027C000FFF7FFFF541C434651462020B847220024
:1027D000931BAB42F6D3100004E7C046F0B5DE46CB
:1027E00057464E464546E0B595B00690079193464C
:1027F0009946209F1E9A1F9B1000190000F0E7FFCA
:10280000002831D101225242BF4B1E981F9900F07F
:10281000C3FF002837D101225242BC4B1E981F999A
:1028200000F0D0FF00283DD10022B94B1E981F991F
:1028300000F0C8FF002850D10022B64B1E981F9907
:1028400000F0AAFF002848D1002200231E981F99FB
:1028500000F0A2FF002850D100239846229B5B0580
:1028600000D4B6E0002458E0229B0393219B0293FE
:1028700003230193A84B00934B465A4607990698A9
:10288000FFF7F2FB0EE1229B0393219B02930423AB
:102890000193A24B00934B465A4607990698FFF7BF
:1028A000E3FBFFE00423229A1A4022990B4210D046
:1028B0009B4B002A0FD00422229903912199029167
:1028C000019200934B465A4607990698FFF7CCFBB6
:1028D000E8E0944BEDE70322EEE7229B0493219B73
:1028E000039302971E9B1F9C009301944B465A46EC
:1028F00007990698FFF768FDD4E01E9A1F9B0020F9
:10290000002100F0D6FE1E901F9101239846A5E7F6
:102910000CAB30221A55013F01341F2C01D8092F6E
:10292000F6D81E981F9900F07DFF050000F062FFA9
:1029300002000B001E981F9900F0BBFEFA007A4BB4
:102940009B181A685B680A920B9300F0E2FE0890ED
:10295000099100F08BFF060000F048FF02000B0019
:102960000898099900F0A5FE0890099100226F4B84
:1029700000F028FF00282ED00136300000F036FF8E
:1029800002000B000A980B9900F00CFF002801D000
:1029900001350026002F2CD1280000F02BFF02006B
:1029A0000B001E981F9900F084FE06000F00002205
:1029B0005E4B00F0F1FE002846D100225B4B300058
:1029C000390000F0FFFE00283ED1EB073CD5013571
:1029D0003AE0062746E70022544B0898099900F090
:1029E000DBFE0028D6D1002E01D0F307D2D5013668
:1029F000D0E7AA461F2C11D8013F0A21300000F071
:102A000015FC651C30310CAB19550A21300000F063
:102A10000DFC092E0ED906002C00EBE755461F2CA5
:102A20000CD87B1E002F09D00CAA302111551F0095
:102A30000134F4E72B0055461C00F0E71F2C03D8A7
:102A40000CAB2E221A5501341F2C10D80A21280055
:102A500000F0C4FB661C30310CAB19550A2128006C
:102A600000F0BCFB051E01D03400EDE73400032369
:102A7000229A1340012B1CD01F2C06D84346002B52
:102A800032D00CAB2D221A550134229B0393219B8B
:102A9000029301940CAB00934B465A460799069853
:102AA000FFF7E2FA15B0F0BCBB46B246A946A04615
:102AB000F0BD219B002B13D04346002B02D10C33D9
:102AC00013420FD0219B013B2193190003E00CAB73
:102AD00030221A5501348C42CED21F2CF7D9CBE7C5
:102AE0002199F8E72199F6E7229B5B0704D50CAB07
:102AF0002B221A550134C8E7229B1B07C5D50CAB06
:102B000020221A550134C0E7FFFFEFFFFFFFEF7FE0
:102B100065CDCD4165CDCDC1FC790010007A0010A6
:102B2000F4790010F0790010E87B00100000E03F1D
:102B3000F0B5DE4657464E464546E0B593B0824670
:102B40008B4690461193002900D1EBE200275546B1
:102B5000119B1878002800D1E7E2252809D07C1CB9
:102B600043463A005946A847119B01331193270069
:102B7000EEE7013311930024119A11780B00203BEA
:102B8000D8B2102803D88300D048C3589F460B0002
:102B9000303BDBB2092B2CD92A292FD000230A93F2
:102BA000119B1A782E2A39D000239A46119A13784D
:102BB000683BD9B2122976D88B00C549CB589F46BD
:102BC00001231C4301321192D6E702231C43013238
:102BD0001192D1E704231C4301321192CCE7082360
:102BE0001C4301321192C7E710231C43013211929A
:102BF000C2E711A8FFF726FA0A90D1E71C9B1A1D1D
:102C00001C921868002804DB0A90119B0133119371
:102C1000C6E702231C4343420A93F6E78022D20010
:102C200014435A1C11925A781300303BDBB2092B23
:102C300004D92A2A07D000239A46B7E711A8FFF73C
:102C400001FA8246B2E71C9B1A1D1C9218680028E4
:102C500004DB8246119B01331193A7E70020F8E7BC
:102C600080235B002343511C119152786C2A01D0C0
:102C70001C0018E0C0239B001C430131119112E09D
:102C800080232343511C11915278682A01D01C00E3
:102C900009E0C0231C430131119104E080235B0053
:102CA0001C4301321192119B18780300253BDAB2C4
:102CB000532A00D92CE29300864AD3589F4680239A
:102CC0009B001C4301321192EDE780235B001C4303
:102CD00001321192E7E7782809D0582838D06F28B8
:102CE00038D0622838D010239C430A2600E01026F2
:102CF000582833D0692803D0642801D00C2294438B
:102D0000630501D50122944369282AD0642828D07C
:102D1000A30500D59FE0E30500D5B8E0630600D425
:102D2000CAE01C9A111D1C911168FF220A400594EB
:102D30000A9B049353460393029600230193009247
:102D400043463A0059462800FFF76EFA070027E08D
:102D50001026CDE70826CBE70226C9E72022144338
:102D6000C8E7A30520D4E30550D4630666D51C9AB2
:102D7000111D1C911168FF220A40D317D118594028
:102D800005940A9B0493534603930296D20F019233
:102D9000009143463A0059462800FFF745FA0700DC
:102DA000119B01331193D3E61C9BDA1D07218A4343
:102DB000110008311C91116853689C46DB170C9375
:102DC0000D930C9A0D9B100048400E9062465340A4
:102DD0000F930E980F990C9A0D9B801A99410E90A3
:102DE0000F9108940A9B0793534606930496002379
:102DF00005936346DA0F02920090019143463A0030
:102E000059462800FFF76EFA0700C9E71C9A111D02
:102E10001C911268D317D118594005940A9B04934A
:102E2000534603930296D20F0192009143463A0013
:102E300059462800FFF7F8F90700B1E7230605D542
:102E40001C9A111D1C910023D25E96E71C9A111D3D
:102E50001C91126891E71C9BDA1D07218A4311001F
:102E600008311C9108940A9B0793534606930496D5
:102E7000002305930293136854680093019443461A
:102E80003A0059462800FFF72DFA070088E71C9AF8
:102E9000111D1C9105940A9B0493534603930296BB
:102EA000002301931368009343463A0059462800D3
:102EB000FFF7BAF9070073E723060DD51C9A111D19
:102EC0001C9112681204120C31E7C046087A0010F7
:102ED0004C7A0010987A00101C9A111D1C911268EF
:102EE00025E746281AD01C9B0733072293431A0074
:102EF00008321C9204940A9A0392524602925C6829
:102F00001B680093019443463A0059462800FFF796
:102F100065FC0700119B0133119319E620231C4324
:102F2000E1E7672801D0472802D180231B011C4319
:102F3000452801D0472801D120231C431C9B07337F
:102F4000072293431A0008321C9204940A9A0392AF
:102F5000524602925C681B680093019443463A0013
:102F600059462800FFF730FA0700119B01331193EF
:102F7000EEE502231A002240924623421FD001248C
:102F80001C9B1A1D1C927A1C9146187843463A00E5
:102F90005946A8475346002B16D1119B0133119374
:102FA0004F46D5E5561C434659462020B8472300D6
:102FB00032005C1C9D42F5D83D001700E0E701237C
:102FC0003A002F000A9DF4E74A46A9460A9D06E00A
:102FD000571C434659462020C84734003A00661C17
:102FE000A542F5D84D469146D7E71C9B1A1D1C9269
:102FF0001B6899465346002B00D1013B4E4601E029
:10300000013613003278002A02D05A1E002BF7D165
:103010004B46F21A10928023DB0026001E401C4211
:1030200003D0524501D95346109302231A0022407F
:103030000B92234205D03A0037004C46A94655462C
:1030400020E03A00109B5F46B3462E0006E0551C78
:10305000434639002020B04723002A005C1C0A990F
:103060009942F4D835005E46BB46109437004C4672
:10307000A946554606E01D000134561C43465946F4
:10308000C84732002078002804D0002FF4D06B1EEF
:10309000002DF0D117004D460B9B002B03D1119B47
:1030A0000133119354E50A9F109B06E0561C4346DA
:1030B00059462020A847230032005C1C9F42F5D8C7
:1030C0001700ECE721231C431C9B1A1D1C921B6854
:1030D000009305940823049353460393102302930B
:1030E0000023019343463A0059462800FFF79CF815
:1030F0000700119B013311932AE57C1C43463A00DB
:1031000059462520A847119B0133119327001FE53D
:103110007C1C43463A005946A847119B0133119342
:10312000270015E50A4B9A4610E5AA46474502D303
:1031300043465A1E00E03A00434659460020D04715
:10314000380013B0F0BCBB46B246A946A046F0BD5D
:103150003520001000B585B0029003910121009345
:1031600013004A4202A90248FFF7E2FC05B000BD85
:103170003720001001480421014B1847A00400200B
:10318000A531001010B5010018231B8814221088E7
:10319000984710BD10B5010018231B88162210880F
:1031A000984710BDF0B5C64600B507000E000025D3
:1031B0000123984600E00135B5420AD2AC003C1923
:1031C0002068FFF7DFFF20600028F4D10023984635
:1031D000F1E7404680BCB846F0BD0000124A936F4C
:1031E0009B0815D29066D166002905D0FFE7FFE75E
:1031F000FFE7516F106F704704B580210906C217B1
:103200005140002800D0C84303F092FE002104BDC5
:10321000F0B5146E556E576F166FFFF7E3FF146627
:10322000556657671667F0BD000000D0114A936FCE
:103230009B0813D210665166002905D0FFE7FFE70F
:10324000FFE7516F106F704704B5002801D00020D0
:10325000C04303F06DFE002104BDC046F0B5146EFE
:10326000556E576F166FFFF7E5FF14665566576783
:103270001667F0BD000000D094464E4A926F920847
:10328000624601D230E0C046F0B54A4EB56F6D08D7
:10329000FCD3346E756E776F366F00F025F8944668
:1032A000444A14665566576716676246F0BDC046C5
:1032B0009446404A926F9208624601D258E0C04656
:1032C000F0B53C4EB56F6D08FCD3346E756E776FFC
:1032D000366F00F04DF89446364A146655665767C7
:1032E00016676246F0BDC046002B24DB11D00029D2
:1032F0003EDA00B5C943404200D1013100F038F850
:10330000C943404200D10131DB43524200D1013375
:1033100000BD002AEBD1002801D1002905D00020F2
:10332000C90FC90701D1C043410800B503F0F8FD3A
:103330000022002300BD00B500290ADBDB43524216
:1033400000D1013300F014F8C943404200D10131EB
:1033500000BDC943404200D10131DB43524200D19C
:10336000013300F005F8DB43524200D1013300BDC8
:10337000002923D1002B18D1002A0CD0BC460D4FB8
:1033800038667A6600210023FFE7FFE7FFE77A6FE0
:10339000386F67467047002801D00748010000B524
:1033A00003F0BEFD0022002300BD02000B00002040
:1033B00000217047000000D0FFFFFFFF002B00D06E
:1033C000BFE0130C28D1002AE7D080B4114F396632
:1033D0007A66FFE7FFE730B4040C7B6F396F1B049C
:1033E00023433B667A66FFE7FFE7FFE7C04684B208
:1033F0007B6F3D6F1B0423433B667A66FFE7FFE765
:10340000C04600232C042D0C7A6F386F00196941D7
:10341000B0BC7047000000D0F0B594460025140EF3
:1034200001D112020835140F01D112010435940F95
:1034300001D192000235D40F01D152000135D40BD5
:103440000134254F7C66254C3C660E0C93B2FFE799
:10345000FFE7FFE73C6F6643360C7703BE467343D6
:10346000DF0B5B04C01AB941130C7343DB18C91A94
:10347000CE086643360CB64493B273431F0F1B014C
:10348000C01AB941130C73431F0B1B05C01AB94175
:10349000860D8F023E436643360C092D24DB520A0B
:1034A0007243801A7703460A6643360C16235B1B69
:1034B000DE40DF40BF1964466643821B7046043518
:1034C00006330100D940A840C01900D30131A242FF
:1034D00006D20023F0BD0000000000D0FFFFFFFF78
:1034E000121B0130F3D3F1E709277F1BFE4064462E
:1034F000A2B27243801A00D20139220C7243130C1B
:103500001204821A99410B007046043513370100EA
:10351000F940A840801900D30131002B02D1A2420A
:103520000AD2F0BD013000D30131121BFAD2013BA7
:10353000F8D1A24200D2F0BD013000D30131121BFC
:10354000F7E7F0B51C0C00D080E00CB400251C0A95
:1035500004D11B02160E3343120208351C0B04D192
:103560001B01160F3343120104359C0B04D19B0041
:10357000960F334392000235DC0B02D192185B4167
:1035800001351C00971864410134464F7C66464C57
:103590003C660E0CFFE7FFE7FFE7C0463C6F664363
:1035A000360C7703BE4697B27743C01B00D2013971
:1035B000C01B00D201399FB27743C91BC91B170C2E
:1035C00077437E04FF0B801BB941CE086643360C5F
:1035D0000C2D33DBB644120B1F053A431B0B97B27D
:1035E0007743C01B00D201399FB27743C91B170C28
:1035F00077433E043F0C801BB941860D8F023E434A
:10360000664329277F1BFE400C3D7746AF40BF191C
:1036100030BCA2B2ABB272437343801A9941220C00
:103620007243130C1204801A994102000B000137F7
:10363000001BA941F9D2781E0021F0BD0C277F1B89
:10364000FE4077467F0BAF40FF19E0E700245D1C8A
:1036500007D0144F7D663966FFE7FFE7FFE7FFE716
:103660003C6F95B29EB265436643401BB141150C59
:103670001E0C6543664336042F0C3E432D04401B4D
:10368000B141994204D202000B0020000021F0BD9C
:1036900001D19042F7D3801A994101349942F2D373
:1036A000F6E70000000000D0FFFFFFFF4840414068
:1036B000484018B41B4B5B68FC46019308BD04DF0F
:1036C0008739001018B4174B1B68FC46019308BDDE
:1036D00000DF913900109446134A926F920809D284
:1036E000624618B40F4BDB68FC46019308BD0CDF43
:1036F000493C00100C4AF0B5146E556E576F166FAA
:103700006246FFF7EEFF084A14665566576716676C
:10371000F0BD18B4034B9B68FC46019308BD08DF5D
:10372000ED3A001064100020000000D0FFB55040BA
:103730004240504059404B40594000E0FFB5154FC2
:103740004C00640D03D0BC4204D10C0314D80020FB
:10375000090D09055C00640D03D0BC4204D11C03B3
:103760000AD800221B0D1B0501264B4009D44B40F3
:1037700003D58B4200D18242FFBD9942FCD19042D9
:10378000FFBD0B43DB1803431343F5D0C94349186E
:10379000FFBD0000FF07000000B5FFF7CFFF80412D
:1037A00000BDC04600B5FFF7C9FF01D9002000BD2C
:1037B000012000BD00B5FFF7B9FF01D9002000BD11
:1037C000012000BD00B5FFF7B1FF804100BD012021
:1037D00040054A00121804D85A00121801D80020D7
:1037E000704701207047002070470000002100282A
:1037F00005D17047C1174840401AFAD0C90713B520
:10380000064B1B6898470CBC441CA2401005120BC9
:103810000349091B09051943114310BD6411002018
:103820001F04000010B54C00620D8023D218DB008D
:10383000D21A5B057E2A10DD9E3A13DACC170903F3
:10384000490819435242D140640001341532202AFC
:1038500005DAD0400843604310BD002010BD084683
:10386000604310BDC80FC018013810BD18B4044B18
:103870005B6AFC46019308BD24DFF93D001000009F
:103880006410002070B513231C78012C14D0012C77
:1038900014DC022C02DC1F4A1F4B9A641F48FFF7FE
:1038A00071FC1F4B186070BD99001A481A4A885065
:1038B00001331F2BF8D9EAE70023FAE71948FFF78D
:1038C00069FC05001848FFF765FC023803789B0087
:1038D0007F2B19DD802229000F4800F0ABFB022C62
:1038E000D7D1124B1A88B5231B029A4209D1104B2B
:1038F0001A88104B9A4204D10F4B1A880F4B9A42E8
:10390000C7D00020FDF762FF0D4B0E4A32210E4852
:10391000FDF7C2FE4D390010641000204C3300004A
:103920006411002053440000534600005438000046
:10393000D8380000494600009C3800005946000075
:10394000387C0010E07C0010987C001007B56046C1
:10395000002800D100BE01880A0A0230DF2AFAD10D
:10396000C9B2820804D3028840880004104300E0F2
:103970000068024A5050039007BD00006410002008
:103980000FB403BC0CBCF0B50124E407634000E0B5
:10399000F0B50C0DCF0F661E3605891B640503D3E9
:1039A000C943404200D30131640D03D0661CF60ABE
:1039B00007D0E41B00207F00791C89078912803C16
:1039C00024031D0DDF0F6E1E36059B1B6D0503D3F3
:1039D000DB43524200D301336D0D03D06E1CF60A57
:1039E00007D0ED1B00227F007B1C9B079B12803DB4
:1039F0002D032F1B661B58D4A446202E46DA2037F1
:103A00001400BC401D00BD40F24033412A438018E1
:103A10005941CB0F05D0C943C043002264425041F5
:103A2000514162464D0D28D10D0D07D100281FD000
:103A3000241940414941013A0D0DF9D0640006D3E3
:103A4000013000D30131002C01D140084000013A7F
:103A50000BD4941CE40A04D112051144DB07194469
:103A6000F0BDD907204B194300E0D9070020F0BD75
:103A70000029DDD1002CDBD1F0BD0132C6074008A2
:103A8000CD0728434908002EE1D0D9E73C2E29DA9A
:103A9000203E40371400BC4000D00124F2401443C3
:103AA0001A00BB401C43D317ACE7AC46202F08DA02
:103AB00020360400B4400D00B540F8403941284399
:103AC000A5E73C2F0CDA203F40360400B44000D07C
:103AD0000124F84004430800B1400C43C117EAE751
:103AE00010001900002494E70000F07FF0B50C0DE1
:103AF000661E3605891BE60A6405640D02D0651C46
:103B0000ED0A04D0002001210905803C2403A446CD
:103B10001C0D671E3F05DB1BE70A6405640D02D020
:103B2000651CED0A04D0002201231B05803C240300
:103B30007740644497B484B296B27443070C7E43D2
:103B4000150C6F4380B26843361802D3012000047D
:103B50003F183004350C00197D41844688B29AB272
:103B600050430C0C62431F0C7C438EB27E4392196F
:103B700002D301263604A4191604170C361867411F
:103B800001BC81B29AB25143040C62431B0C5C43EA
:103B900080B25843121802D30120000424181004E4
:103BA000130C401863412D185E410020474106BCAC
:103BB00088B293B258430C0C6343120C544389B23D
:103BC00051435B1802D301210904641819041A0C2B
:103BD000091862416D1856410020474118BCF9028E
:103BE000720D1143F0026A0D1043ED020A0D03D16C
:103BF0006D1940414941013B124E9B1B7600B34277
:103C00000ED26D0007D30130002671416646354360
:103C100001D1400840001B05C918E4072144F0BD4C
:103C20000BDA013306D1013004D101314F0D01D03F
:103C30004908F2E7E1070020F0BD01363105002018
:103C4000EBE70000FF030000F0B51C0D671E3F0509
:103C5000DB1BE70A6405640D02D0661CF60A04D07B
:103C6000002201231B05803C2403D0252D060026BD
:103C7000F6432E661E096E66CE0FF619B44649004D
:103C80004F0D02D07E1CF60A03D000200021403FD9
:103C90003F033E1BB600B444013F7F05C91B4908E2
:103CA0002E6F013676089C02950D25437543ED1362
:103CB0007543AD1301356D10F603761B0CB4CC02C1
:103CC000450D2C43A2B2B3B25A43270C7B43350CAB
:103CD0006F43A4B26C431B1902D3012424043F197F
:103CE0001C041D0CA4187D4124196D41009A91B249
:103CF000ACB26143170C7C432B0C5F4392B25A4326
:103D0000A41802D301221204BF182204230C521853
:103D10007B41019C6C431B19520ED9010A4344019B
:103D2000A01A81B2B2B2514303145A43360C734302
:103D300087B27743D617D21900277E4136049B19E4
:103D40001704160C7F185E417316ED18F301002658
:103D500080337541A90F06D16400690AE8055B0A42
:103D6000184309D22FE00422944480337541A90AF4
:103D7000A8059B0A184326D3404149412404009AD0
:103D8000019B0D005543641B4343E41A95B286B270
:103D90007543170C7E43030C5F4392B25A43B61827
:103DA00002D301221204BF183204330C52197B4192
:103DB00052429C41002C02D4002201305141400863
:103DC000CA071043490802B06246D7079210084B51
:103DD000D218084B9A4203D212058918C919F0BDAE
:103DE0000020002A01DC3900F0BD01331905F5E798
:103DF000FD030000FE070000002200B5203200F0A5
:103E000004F8080000BD000000220B150AD410B50C
:103E1000944600F031F81414013400DA0021CB1775
:103E2000144C20470020002170476244343A0CD4DF
:103E30000C2A07DA04009140904052422032D440CC
:103E4000214310BDD843D94310BD203207D40C46BE
:103E50009440524220321141D040204310BD08000E
:103E6000C917203203D452422032104110BD18002D
:103E7000190010BD2B3E00100A0DCC0F531E1B0560
:103E8000C91A520503D3C943404200D30131520D30
:103E900003D0531CDB0A07D0121B00206400611CF6
:103EA00089078912803A1203014BD21A7047000029
:103EB000FF03000051434343C9188C46110C83B2E1
:103EC0004B4310B4040C614392B280B2504362433E
:103ED0001C041B0C001910BC59411304120CC0180F
:103EE000514161447047000070B513231D782A4882
:103EF000FFF750F90400012D11D0012D09DDA31E9B
:103F00001B789B007F2B40DD80222100234800F09E
:103F100091F82348FFF736F9224B186070BD542200
:103F200001001E4800F086F81F4B1A881F4B9A426A
:103F30001CD1A7239B011A881D4B9A4216D11D4BF9
:103F40001A881D4B9A4211D11C4B1A8894239B014D
:103F50009A420BD11A4B1A881A4B9A4206D11A4B25
:103F60001A681A4B9A4201D1152307E01848FDF749
:103F70002DFC99001748094A885001331F2BF8D9A6
:103F8000144A064B1A62DA61B7E7134B134A42210F
:103F90001348FDF781FBC04653460000681100201E
:103FA0004C33000064110020EE290000C40F000013
:103FB000C20D0000962B0000C0B50000182B0000B9
:103FC000CC2A000010B50000FC2C000051ED8764E5
:103FD000AC750010E53F0010F47C00106C7D001003
:103FE000287D001007B56046002800D100BE01887A
:103FF0000A0A0230DF2AFAD1C9B2820804D3028841
:1040000040880004104300E00068024A50500390CA
:1040100007BD00006811002001480421014B18472A
:10402000B0040020A5310010014B1B6818470000A8
:10403000B0040020014B5B6818470000B00400206A
:1040400010B50300080011001B68984710BD000060
:10405000F8B507000D001600437C002B02D00024A9
:1040600000200CE003681100280098472DE03B7CFD
:1040700010E0022115483B689847601C0134B442A7
:1040800014DA002CF3DD2B19013B1B780D3B5A424F
:104090005341DBB22A5D0A2AF0D1002BEED1A042B7
:1040A000E7DA211A28183B689847E2E7B04203DABA
:1040B000311A28183B689847002E06DDAD19013DDE
:1040C0002B780D3B5A4253413B74F8BDF07D0010F4
:1040D00070B505000368002B16D00C4B1C6805E07A
:1040E000290004C92000FFF7B3FFE468002C09D0C1
:1040F0002368002BF9D0064B1B68002BF0D0A3429D
:10410000F3D1EDE700232B6070BDC0463C0C0020CE
:10411000400C002070B505000C000B68802B05D00A
:1041200021684B1C23606418257170BD0800FFF7DF
:10413000CFFFF5E710B582B0D0231B0600241C5733
:1041400001A9074802F0FCFE002806D1019B9C4211
:1041500003D0034802F004FF012002B010BDC046A6
:104160000005002010B5024802F0D2FE10BDC04686
:1041700000050020F0B5CE46474680B583B0060066
:104180000D0090461C00FFF7D5FF81466B1C05D043
:10419000002C08D0194F1A4B1C6807E0300002F0C1
:1041A0007DFE0500F4E7174FF5E7E468002C17D013
:1041B0002368002BF9D0144B1B68002B01D0A342BD
:1041C000F3D12A0031002000B8474346002BECD041
:1041D0006B46D91D0A230B7001222000B847E4E783
:1041E0004B46002B07D16B1E9D41E8B203B0C0BC0B
:1041F000B946B046F0BDFFF7B5FFF4E74140001007
:104200003C0C002051400010400C00200C4B1A6860
:10421000130001E01A00DB68002B08D08342F9D1BB
:10422000002903D1DB68D3600023C36070470029F5
:10423000FCD0002A01D0D060F8E7014B1860F5E708
:104240003C0C002010B5064B1C6801E09847E46860
:10425000002C03D06368002BF8D1F8E710BDC046EE
:104260003C0C002070B5050002F018FE040000238D
:10427000012201002800FFF77DFFFFF7E3FF200088
:1042800070BD000070B5A2B004000E00FFF752FF31
:1042900005008422002101A8FFF7C6FE330022009A
:1042A00001A90848FEF756FF040001A8FFF710FF18
:1042B000FFF7C8FF002D02D1200022B070BDFFF72C
:1042C00051FFF9E7154100100FB400B583B004A900
:1042D00001C90191FFF7D6FF03B008BC04B018472D
:1042E00010B500F033F910BD70470000014B0022FB
:1042F0001A7070479A1200204B79FF2B0CD18B79E2
:10430000002B0BD1CB79012B0AD1082A0AD98A7844
:10431000054B1A70092000E0002070470020FCE7E0
:104320000020FAE70020F8E79A12002001207047E9
:1043300070B504000D000348FEF724FF03002900B8
:10434000200098475542000010B5002926D1117968
:1043500053791B020B43124909788B4201D000208C
:1043600010BD5378012B03D0022B10D00020F7E7AB
:104370009178D3781B021943DB0503D54B0A012042
:10438000984000E000207F231940FFF7D1FF64220E
:1043900000210020FDF716FE0120E1E70120DFE704
:1043A0009A1200200123037000487047F47D00102A
:1043B00010B50B784878000218438A78120410432D
:1043C000CB781B0603439622D200934200D010BD47
:1043D00000210800FFF7ACFF30B583B005000C00EA
:1043E00001A9184802F0ACFD002808D1D0231B0613
:1043F0001B68019A9A4221D0124802F0B1FD0020B8
:1044000001F01AFE002807D1032464420D4802F08F
:104410007FFD200003B030BD002001F02FFE0028FA
:1044200002D103246442F1E722002900002001F0B8
:1044300031FE041EEAD103246442E7E70324644208
:10444000E7E7C0466C12002010B50021054802F0D5
:1044500077FD002800D110BD01F086FB014802F075
:1044600057FDF8E76C120020F0B5C64600B582B0E3
:1044700080460D0001A92E4802F062FD002808D1F7
:10448000D0231B061B68019A9A420FD0284802F0DD
:1044900067FD002001F0D0FD002847D1254B00200A
:1044A000002118605960224802F032FD02B080BC41
:1044B000B846F0BD01F058FB002001F0FFFD0020E0
:1044C00001F0BAFD0028EED0002001F079FE0028AE
:1044D0001DD0AC42E7DA2E1B002001F071FE020075
:1044E000864200DC3200002AE4D04346191900203D
:1044F00001F04AFE060001F037FB002001F0DEFD6E
:10450000A419FCF77FFD0B4B18605960E1E7FCF73D
:1045100079FD084B1E685F68074A002392197B41AA
:104520009942C0D8D5D19042D3D9BCE70024D0E776
:104530006C1200202006002020A1070010B51F20CB
:10454000FDF7D0FAFA208000002110BD70B584B0CC
:10455000244B1B7802F07AF823491F20FDF7D2FA8A
:1045600001211F20FDF7B6FA2048FCF74FFEFCF7AB
:10457000BDFA0600FCF746FD04000D1E20DBFA2202
:104580009200002312196B41994202D804D1904243
:1045900002D901225242D317002B17DB01210291CD
:1045A00000210191124900913000FCF7B5FA040096
:1045B000631E9C41E4B200280ED1200004B070BDFF
:1045C0000C4B0D4A3F210D48FDF766F8094B0A4A8E
:1045D0003F210A48FDF760F801210948FFF716FE60
:1045E000EBE7C0461C850010494400106C12002007
:1045F0003D450010D87000102C7E0010F4700010A3
:10460000C004002000487047C47E00100048704776
:10461000707E001010B50400154B1B78002B0ED0D7
:10462000002C11D1134B144A5A80012301335B0033
:104630001BB2C022920013430E48038010BD11210B
:104640000B4802F0D7FBEBE7052C0ED8A4000B4B70
:10465000E4580023122BE9D8E25C002AE6D00133AB
:10466000590004484252DBB2F4E70020E6E7C046B6
:1046700084120020140C002009040000D87E0010D1
:1046800002007F201040D209400080184001014BF9
:10469000C0187047440C002010B582B001AB074A27
:1046A0001A80002406E001AB185DFFF7E9FF012343
:1046B000C3700134012CF6D902B010BD0080FFFF99
:1046C00010B5838B3F333F229343022915D0124C00
:1046D0002268C260D31823609C0610D10F4C624040
:1046E000634080246401A3420FD8890611438023CC
:1046F0001B0619434368196010BD5B00E7E7084BD0
:10470000084A54210848FCF7C7FF084B054A5621C0
:104710000548FCF7C1FFC0464810002000001050BB
:10472000F07E001008800010207F0010747F0010C1
:10473000F8B505000E001400FFF7A2FF7F232B4001
:10474000EF0985707A427A4142700022C2708683F6
:104750008477012F0DD0DA0012498C4662448260C2
:10476000826800211160002B09D143600E4BC360A9
:10477000F8BDDA000D498C4662448260F0E7012FF3
:1047800009D0013BDB000A4A9446634443602100A0
:10479000FFF796FFECE7013BDB00064A94466344D3
:1047A0004360F4E784001050000110508000105066
:1047B0000C0010500800105010B5002308E0013321
:1047C000DA00002108481150844662445160DBB28F
:1047D0000E2BF4D9F022920000210448FFF724FCAC
:1047E000034B044A1A6010BD00001050840C0020D6
:1047F0004810002080011050F0B5CE46474680B5E5
:1048000083B01D4B9F6D0024012603E0B743760063
:104810000134E4B2002F29D01F2C27D83E42F6D015
:10482000164B9E65630899460123634001221A4096
:1048300090464B465D0045446D01114BED18280034
:1048400000F0ACFA0028E1D04B465B0043445B012A
:104850000B4AD3189A8A99780123009300230020E9
:1048600000F00AFE280000F009FACFE703B0C0BC50
:10487000B946B046F0BDC04600001150003011509E
:10488000440C002070B52B4A9823D45880235B0237
:1048900025001D401C420AD1E30616D4E30419D4B6
:1048A000630429D4230433D4A5423ED170BDFFF75D
:1048B000F3FE01222049002000F0C4FD1F4B80229E
:1048C00092021A6580256D02E6E710231D43FFF76B
:1048D00093FFE3E780235B011D43164B00221A6020
:1048E000FFF76AFF01220021002000F096FD134B24
:1048F000802212031A65D3E78023DB011D430122C6
:104900000421002000F076FD0C4B10221A65C9E747
:1049100080231B021D4301220521002000F06AFDB7
:10492000064B802212011A65BEE729006140044847
:10493000FCF74CFF000011500000105000301150E7
:10494000A87F001070B50C001500FFF799FE2A0033
:10495000210000F0FFF970BD10B5002804D101213D
:104960000520FDF7B7F810BDB921034B034A4900F4
:104970000348FCF791FEC046BC7F0010F87F001092
:10498000207F001010B5002805D1002200218020D2
:10499000FFF7D8FF10BDBF21024B034A490003486F
:1049A000FCF77AFEBC7F0010E87F0010207F00102B
:1049B000024B80225202DA647047C0460020115038
:1049C00070B5041E25D100F033F9154D0C23AB67EB
:1049D00014490520FDF796F8402200211248FFF700
:1049E00023FB002240210020FFF7A2FE00224021ED
:1049F0008020FFF79DFEFFF7DFFE01232B6480235D
:104A00009B05EB649023094AEA502000FFF7D0FF92
:104A100070BD4E21064B074AFF310748FCF73CFEAC
:104A20000000115085480010440C002010D00100F7
:104A3000BC7F00101C800010207F00100B785B06EC
:104A400002D14B78052B00D070478A78014B1A6051
:104A5000FAE7C0460000115010B50C0000280DD137
:104A60000A794B790721194009021143E27892072C
:104A7000920FA078FFF75CFE012010BDD621034BFA
:104A8000034A49000348FCF707FEC046BC7F0010FC
:104A9000D87F0010207F001010B5FFF78DFE10BDED
:104AA00010B50400080011001A00002C03D1FFF714
:104AB00049FF012010BDBC21024B034AFF310348CE
:104AC000FCF7EAFDBC7F0010C87F0010207F0010BB
:104AD00010B508004B0605D1CB09012B0AD00222E4
:104AE000054B9A66FFF7CCFD80221201002100F0F1
:104AF000CBF810BD0122F3E70020115010B50800DB
:104B00004B0600D110BDFFF7BBFD0023C370002290
:104B1000014900F0B9F8F5E7FFF7FFFFF8B5040029
:104B20000F00438A828B1E1C934200D9161CB6B21A
:104B30009B1B63828025ED003543E378002B13D067
:104B400080229201154301225340E3706378002BC9
:104B50000CD0638A002B02D18023DB011D43002F80
:104B600000D02D042800F8BD0022EBE7B801E3686F
:104B70009C4660443200A169FFF75CFAA3699C4639
:104B80006644A66180231B021D43E2E770B5040062
:104B900083681B68002900D01B0C9D05AD0D627851
:104BA000002A11D11B0409D4A38A5B19A382A38B09
:104BB000AB4201D900236382280070BD0E4B0F4A1F
:104BC000D7210F48FCF768FD1B040ED58901E36867
:104BD0009C4661442A00A069FFF72CFAA38A5B195E
:104BE000A382A3695B19A361E1E7064B034ADE21B7
:104BF0000348FCF751FDC046288000104881001092
:104C0000488000109C80001010B5040083681B6869
:104C10000021FFF7BBFF63681B685B0002D5A38B15
:104C2000834200D010BD01212000FFF7AFFFF9E75C
:104C300010B580235B040C4A13600C4A13600C4BC4
:104C40009A6880235B049343F9D10A4C9C2200218B
:104C50002000FFF7E9F98022520100210648FFF702
:104C6000E3F90923636710BD00E0004000F0004055
:104C700000C00040000011500000105000230374D9
:104C8000438283828361704710B5002902D0836814
:104C90001B681940002A0FD0114353050CD58268B8
:104CA00013685B050BD40B4B0B401360FFE7FFE76A
:104CB000FFE7FFE7FFE7FFE78368196010BD837830
:104CC0007F211940DB099B00034A9A580348FCF7EF
:104CD0007DFDC046FFFBFFFFD4040020BC80001018
:104CE00070B5040043681E680021FFF717FF802598
:104CF0006D010543144B1B6C9B0704D4A378DB099F
:104D000014D1013300E00023628A002A01D0002B75
:104D10000ED00E4B1E4080239B0533436268136008
:104D20002A0000212000FFF7AFFF70BD0023EBE752
:104D300001212000FFF7F2FE0543054B1E40A02392
:104D4000DB053343EAE7C04600001150FFFFFFAF29
:104D5000FFFFFFDF70B504000D001600037C002B81
:104D600009D166820023A38201332374A561200048
:104D7000FFF7B6FF70BD83787F211940DB099B00E8
:104D8000044A9A580448FFF79FFA2000FFF776FF7D
:104D9000E7E7C046D4040020DC80001070B50400B2
:104DA000057C002D06D0FFF72FFF638A002B08D16A
:104DB000280070BD81787F231940044A0448FCF71D
:104DC00005FD2000FFF78CFF0025F1E7D40400204B
:104DD0001481001070B5050000240EE063001B195B
:104DE000DA00184B1B689B1802E0230010E0002338
:104DF0005B68280098470134E4B2134B1B78A34248
:104E00000ED3124A002AF0D0A342E7D8E31ADBB24D
:104E1000002BECD15A00D218D2000D4B9B18E7E7BB
:104E20000C4C532200212000FFF7FEF8E01C10225A
:104E3000FF21FFF7F9F8200013302022FF21FFF7B0
:104E4000F3F870BD4406002095120020A543001021
:104E5000908200107C09002010B5FFF7BBFF01F025
:104E60002BF810BD70B505000C001600C86801F0E5
:104E70002DF8E368320000212800984770BD00003B
:104E8000F0B5DE4657464E464546E0B583B081460E
:104E90000139C8B2FFF7BAFB002803D0437898461F
:104EA000022B0CD0564A57495748FFF70DFA0020FD
:104EB00003B0F0BCBB46B246A946A046F0BDC579DA
:104EC0006A11012351491A4014010A781026B2438D
:104ED00022430A70AD112B405B01D2B22024A243C1
:104EE00013430B70070009378178C3781B020B430B
:104EF00082469A4463E0FB789B463B78FF1865E066
:104F0000434A40494048FFF7DFF90020D0E76600F8
:104F10003619F3003F4A1668F61802E0230017E03E
:104F200000262A0039004846B368984701900828AF
:104F300001D9854214D20134E4B2374B1B78A34225
:104F400039D3364A002AE9D0A342E0D8E31ADBB2CB
:104F5000002BE5D15E00F318DB00314EF618E0E7D8
:104F60005B46012B10D0002293451AD9BB789B18C1
:104F7000DBB22649C918C978FF290BD12349CB18C0
:104F8000DC700132D2B2EFE7B268264B9A42EAD126
:104F9000C346E8E7244A1B491B48FFF795F9002060
:104FA00086E71A482300019D2A003900133001F0DA
:104FB000BBFBAC466744184B1B78A3420ED3574546
:104FC00014D27B780B2B96D001239B467B78042B45
:104FD00096D15346DD1BADB20024AEE7F32292001A
:104FE00008490948FFF770F9002061E70F4B002BD3
:104FF00003D000E000BF01205AE7012058E7C04677
:105000007B03000058820010588100107C090020AA
:10501000960300004406002095120020A5430010CE
:1050200090820010DD620010BD030000000000004F
:1050300070B505000C00CB7888780F2B54D89A00F7
:105040002F498A589746FFF7DDFA02001223210004
:10505000280000F0DDFE48E02A4B002B46D000E09F
:1050600000BF02008178C3781B020B432100280097
:1050700000F0CEFE39E0022B10D0234B002B37D0AE
:1050800000E000BF0200002A0CD09178D3781B0208
:105090000B432100280000F0BBFE26E0FFF7B6FA24
:1050A0000200F0E7194A1A491A48FFF70DF90020E3
:1050B0001BE02379617909021943FFF7ABFA021E5D
:1050C00018D003782100280000F0A2FE0DE0124B5A
:1050D000002B11D000E000BF021E0FD0037821008A
:1050E000280000F095FE00E0002070BD0020FCE7E5
:1050F0000020FAE70020F8E70020F6E70020F4E7B8
:105100007081001000000000000000001404000086
:10511000408200105881001000000000024B5878B7
:10512000431E9841C0B270477C090020024B18789A
:105130004007C00F7047C0467C090020014B18781B
:105140007047C0469612002070B50500274B1878AE
:10515000002800D070BD532200212548FEF764FFCF
:10516000244C2000FCF752F8234B1C60234C2000F9
:105170001C30FCF771F8200001F0F0FD204B1C60A2
:10518000204B002B04D02048FFF70CF91F4B186070
:1051900000240DE063001B19DA001C4B1B689B18F0
:1051A00002E023000FE000231B6898470134E4B2BB
:1051B000154B1B78A3420ED3124A002AF1D0A3420A
:1051C000E8D8E31ADBB2002BEDD15A00D218D20096
:1051D0000F4B9B18E8E72800FFF7F2FB2800FFF7CA
:1051E000BBFB024B01221A700120B3E7961200208C
:1051F0007C09002034090020D0090020DC040020B4
:10520000D4090020A5430010951200204406002078
:105210009082001030B585B004004378042B00D193
:1052200096E038D8022B62D0032B00D0B9E06D4B4A
:105230001B785B0700D483E06A4A137804218B4310
:1052400013700C22002101A8FEF7EEFE23786A46B7
:10525000137105235371644B1C68E269EFF31081ED
:1052600072B61368002BFCD0BFF35F8F216201A9D7
:10527000200001F038FDE269236ABFF35F8F00214F
:10528000116083F3108800285AD1A8225749584842
:10529000FFF71AF854E0052B00D082E0514B1B7841
:1052A000DB074DD54F4A137804218B4313704E4BC7
:1052B0001D68EA69EFF3108172B61368002BFCD009
:1052C000BFF35F8F29622100280001F00CFDEA691D
:1052D0002B6ABFF35F8F0021116083F310880028D1
:1052E0002ED1A82241494248FEF7EEFF28E03D4B6F
:1052F0001A7801218A431A701A7801318A431A7088
:1053000000225A701A7802318A431A70364B1D688F
:10531000EA69EFF3108172B61368002BFCD0BFF37B
:105320005F8F29622100280001F0DDFCEA692B6A09
:10533000BFF35F8F0021116083F31088002801D034
:1053400005B030BDA82229492948FEF7BDFFF7E77F
:10535000244B1B78DB07F3D5224A137804210B4337
:105360001370214B1D68EA69EFF3108172B6136860
:10537000002BFCD0BFF35F8F29622100280001F0D1
:10538000B2FCEA692B6ABFF35F8F0021116083F3DF
:1053900010880028D4D1A82214491548FEF794FF9C
:1053A000CEE7114B1D68EA69EFF3108172B61368FE
:1053B000002BFCD0BFF35F8F29622100280001F091
:1053C00092FCEA692B6ABFF35F8F0021116083F3BF
:1053D00010880028B4D1A82204490548FEF774FFBC
:1053E000AEE7C0467C090020D409002030820010BE
:1053F0005881001070B584B006000D0014000C2216
:10540000002101A8FEF710FE6B461E715D712100A0
:1054100001A8FFF7FFFE04B070BDF0B585B007002E
:105420000E00150001AC0C2200212000FEF7FCFD4F
:10543000277001236370267129002000FFF7EAFE20
:1054400005B0F0BD70B584B006000D0014000C224C
:10545000002101A8FEF7E8FD6B461E7106236A468F
:1054600053710822290002A8FEF7E4FD210001A8DB
:10547000FFF7D0FE04B070BDF0B5CE46474680B50C
:1054800085B080460F0016001D000CAB1B789946B6
:1054900001AC0C2200212000FEF7C6FD434623701C
:1054A0000723637027710396657149462000FFF753
:1054B000B1FE05B0C0BCB946B046F0BD70B506003F
:1054C0000D008B7870221A420DD10D4B997828006F
:1054D00001F0D6F8041E0DD029003000FFF7BCFA09
:1054E0000400200070BD074A07490848FEF7ECFE9B
:1054F0000024F6E7064A04490448FEF7E5FEF0E713
:105500007C090020C20400000C82001058810010A9
:10551000C3040000F0B5D6464F464646C0B58146A6
:105520000C0017009846089B9A46002516E0184A7A
:1055300018491948FEF7C8FE00263000E0BCBA46FC
:10554000B146A846F0BD154A12491348FEF7BCFE05
:10555000F3E7099A13702378E4180135AF4214DD9C
:105560006378052BE3D1E1788907890F4145DED1C6
:1055700021004846FFF7A2FF061EE4D0A378DA090F
:10558000012AE6D052461370E5E70126D5E7C0466A
:105590009C0400001C820010588100109D04000033
:1055A00070B57F250D40CC096A001E4B9B181B1956
:1055B0003033DB78DB07DE0F002B30D1194B9B1823
:1055C0001B193033DB785B072AD4174B186801218D
:1055D000494201F0BDFC6A00124B9B181B19303385
:1055E000DB78DB0708D40F4B9B181B193033DB78B3
:1055F0005B0712D5002600E00026002E08D06D00C3
:1056000008494D192C193034E37804221343E37010
:10561000054B186801F07CFC02E00126EDE700264E
:10562000300070BD7C090020D009002070B57F25B6
:105630000D40CC09154B18680121494201F088FC46
:105640006A00134B9B181B193033DB78DB0708D437
:105650000F4B9B181B193033DB785B0713D40026E4
:1056600000E00026002E08D06900094D6D182C19A5
:105670003034E37804229343E370044B186801F05C
:1056800047FC300070BD0126ECE7C046D009002081
:105690007C090020F0B5C64600B582B001937F2595
:1056A0000D40CE096F00174CE419A4193034E4788A
:1056B000E4071DD46F00134CE419A4193034E378C7
:1056C0000127BC4667463B43E370019BFFF7E8F9BF
:1056D000002813D16D000B4B5D19AE193036F378ED
:1056E00001229343F370F37803329343F37005E0A0
:1056F000054A06490648FEF7E7FD002002B080BCD7
:10570000B846F0BD7C0900200A050000FC810010AD
:105710005881001070B57F240C40CD0962000C4BFD
:105720009B185B193033DB789B0700D570BDFFF702
:10573000CFF96300064CE41864193034E378022290
:105740001343E370E37801221343E370EEE7C046AE
:105750007C09002070B57F240C40CD0962000C4B01
:105760009B185B193033DB789B0700D470BDFFF7C3
:10577000C5F96300064CE41864193034E37802225A
:105780009343E370E378013A9343E370EEE7C04656
:105790007C0900207F220A40CB0952000349891866
:1057A000C9183031C8788007C00F70477C090020C5
:1057B000F0B5C64600B582B005000C00002000F030
:1057C00085FB237860221340602B12D0402B17D02A
:1057D0002278D206D20E012A00D1D9E0022A00D1C5
:1057E00020E1002A1AD00026300002B080BCB84662
:1057F000F0BDCC4ACC49CD48FEF766FD0026F3E764
:10580000CB4B002B00D181E1180000F05FFB2200A0
:105810000021280000E000BF0600E5E7202B0AD0A9
:10582000002B00D07AE16378092B00D978E19B0046
:10583000C04AD3589F4623790F2B00D968E1BE4A4E
:10584000D318DB78BD4A002A05D0BD4A12789342AE
:1058500012D39B1ADBB2002B00D05BE15900CB18AE
:10586000DB00B849C918002900D155E12200280001
:10587000FFF7F8FA0600B7E75900CB18DB00B24A89
:105880001168C918EFE7200000F026FBA178280076
:10589000FFF778F8A84A137802210B43137001260A
:1058A000A2E7A54B5B786A460632137001232100FC
:1058B000280000F0ADFA012696E7A7789E4B5B78AA
:1058C000DBB2BB4205D09C4B5B78002B09D1002F8B
:1058D00013D1994B5F702100280000F07DFA01265A
:1058E00082E72800FFF7D8F8934EB378984628004F
:1058F000FFF770FA4346B370E9E739002800FFF775
:10590000BFFA061EE5D1914A87498848FEF7DCFCBC
:105910006AE721002800FFF78BFB060064E7A27806
:10592000E3781B021343012B01D000265CE7824A77
:10593000137808210B4313702100280000F04CFA63
:10594000012651E7A278E3781B021343012B01D013
:10595000002649E7784A137808218B431370210009
:10596000280000F039FA01263EE7734B1A785109F6
:10597000920801230B4002210A4013436A46063273
:10598000138002232100280000F042FA01262BE7B1
:1059900023790F2B00D9DDE0674AD318D978674BFC
:1059A000002B05D0664B1B78994229D3C91AC9B27E
:1059B000002900D0D0E04B005B18DB006149C9181A
:1059C000002900D1CAE022002800FFF74BFA061E8A
:1059D00000D009E7237860221A4200D004E76378F8
:1059E0000A3B012B00D9FFE6002000F06FFA637834
:1059F0000A2B0CD02100280000F0EEF90126F3E676
:105A00004B005B18DB00504A1168C918D8E76B4699
:105A10009A1D0023137001332100280000F0F8F9CB
:105A20000136E1E621797F220A40CE097020084242
:105A300020D15200404882189219D27C3F48002859
:105A400005D03F48007882421BD3121AD2B2002AF6
:105A50001ED15600B218D2003A4EB618002B19D0FB
:105A6000002E00D17CE0220031002800FFF7FAF977
:105A70000600B9E6364A2C492C48FEF725FC0026DC
:105A8000B2E65600B218D2002F480668B618E5E70D
:105A90000026E3E76378012B12D0032B10D0002BF4
:105AA00001D00026A0E62800FFF774FE6B469A1D81
:105AB000108002232100280000F0AAF9012693E6B5
:105AC000A778E27812023A4304D1012B1AD02800B9
:105AD000FFF720FE002E45D0220031002800FFF7FE
:105AE000C1F9002000F0F2F9134A3423D35CDB073C
:105AF000DE0F002B00D077E62100280000F06CF9C3
:105B0000012671E62800FFF725FEE3E700266BE695
:105B1000002669E6002667E6002665E6002663E6BD
:105B2000002661E67F0200006C82001058810010A0
:105B300000000000B08100107C090020A543001087
:105B4000951200209082001044060020D30200002D
:105B500033030000002647E6002645E6002643E61C
:105B6000002641E601263FE630B585B000F080FD15
:105B7000002808D105B030BD01AC2078FFF76CF9E2
:105B80002279724B9A70724B1C68E269EFF31081B4
:105B900072B61368002BFCD0BFF35F8F216201A99E
:105BA000200001F07AF8E269236ABFF35F8F0021D9
:105BB000116083F310880028DCD001AB5B78082BE0
:105BC000E1D89B00634AD3589F4601AB1878FFF792
:105BD00043F9614B002BD6D000E000BFD3E75B4B0D
:105BE0001A78012401210A431A703322995CA143D7
:105BF0009954995C0420814399540132995CA143E2
:105C00009954995C8143995401AB187802A9FFF724
:105C1000CFFD0028B7D101AC20780021FEF758FF56
:105C200020788021FEF754FFADE701AB19797F2280
:105C30000A40CC095000454B1B181B193033D8784B
:105C40000125A843D870D8780335A843D870002A16
:105C50001DD052003D4B9A181219D37C3F4A002A9E
:105C600005D03F4A1278934218D39B1ADBB2002B1F
:105C70001BD15A00D218D2003A4B9B18002B14D0DB
:105C80001C6901A84279039B0078A0477BE701A823
:105C90004279039B007800F02DF974E75A00D2187E
:105CA000D200314B1B689B18E8E7304A3049314835
:105CB000FEF70AFB5EE7254B1B78DB0700D462E7A3
:105CC0002D4B002B00D15EE7204B18780007C00F4A
:105CD00000E000BF57E71D4B1B78DB0700D452E7FD
:105CE000264B002B00D14EE700E000BF4BE76300DE
:105CF0001B19DA001C4B1B689B1802E0230014E000
:105D000000235B69002B02D001AA10789847013468
:105D1000E4B2134B1B78A34200D234E70F4A002AA7
:105D2000ECD0A342E3D8E31ADBB2002BE8D15A004F
:105D3000D218D2000B4B9B18E3E70024E9E7029B43
:105D4000002B00D11FE7039898471CE77C0900202F
:105D5000D4090020D881001000000000A5430010E5
:105D600095120020908200104406002037020000A7
:105D70008482001058810010000000000000000024
:105D8000F8B50500124B9F89DE89B91B89B20B1C3F
:105D9000402900D940239CB20D4B1B785BB2002BED
:105DA00008DB0021B74211D00A4A23002800FFF780
:105DB00071FCF8BDB74201D18021F3E7044B99682B
:105DC00022000448FEF736F98021EBE70022ECE7D9
:105DD000200900203C09002070B506000C000B4D86
:105DE00008222800FEF726F90023AB60EB81AB8187
:105DF0000023E356002B06DB802100230022300025
:105E0000FFF748FC70BD0021F7E7C04620090020DD
:105E1000F0B5C64600B580460C0016001D00234FA5
:105E200008223800FEF706F9BE600023FB81A37943
:105E3000E179090219430B1CA94200D92B1C99B224
:105E40001A4A9381A279E3791B02134319D00029DE
:105E500001D0002E08D04046FFF792FF041E0AD062
:105E6000200080BCB846F0BD732211491148FEF7EE
:105E70002BFA0024F4E779220D490E48FEF724FAA4
:105E8000EEE70023E356002B0DDB802100230022E8
:105E90004046FFF7FFFB041EE2D17E22044905487D
:105EA000FEF712FADCE70021F0E7C04620090020E7
:105EB000C08200105881001010B514220021024841
:105EC000FEF7B2F810BDC04620090020014B186152
:105ED0007047C0462009002010B50100044C08227C
:105EE0002000FEF7A7F80023A360E381A38110BD83
:105EF0002009002070B505001C00C909374B1B782C
:105F0000DB098B4219D0002C10D1354B002B02D06D
:105F10003249FEF793FD314B1B69002B03D02F4A0A
:105F20000221280098470124200070BDAB222D4992
:105F30002D48FEF7C9F90024F6E7284B1B785BB221
:105F4000002B07DB254B9868002844D02200274906
:105F5000FEF770F8214AD3891B199BB2D38191684F
:105F600009199160D288934201D03F2C28D81B4B4D
:105F70001B69002B05D0194A0121280098470028E9
:105F800014D0164B1B785BB2002B0DDB8021002355
:105F900000222800FFF77EFB041EC5D1D82211493C
:105FA0001148FEF791F9BFE70021F0E70021280032
:105FB000FEF78EFD80212800FEF78AFD0124B3E75D
:105FC0002800FFF7DDFE041EAED1E3220549064896
:105FD000FEF77AF9A8E70024A6E7C04620090020CA
:105FE0003D4A0010A8820010588100103C09002092
:105FF00070B5040005001035280000F03EFE3F2873
:1060000000D870BDE1780020FFF7CAFA0028F8D068
:10601000280000F032FE3F2808D996239B00E218A2
:10602000E17840230020FFF735FBEAE7E178002024
:10603000FFF7FCFAE5E7000010B50400FFF76EF883
:1060400000280CD10022002A11D0B6239B00634304
:106050000948C0180379DB070BD5012008E0FFF7DA
:1060600065F8002801D10122EDE70022EBE70020CE
:1060700010BD0020FCE7C0464806002010B5B6233E
:106080009B0058431030024BC01800F0DBFD10BDE0
:106090004806002070B5B6239B005843064BC51830
:1060A00092B21030C01800F019FE04002800FFF76B
:1060B0009FFF200070BDC0464806002070B5050057
:1060C000FFF72CF8002804D10023002B09D1002071
:1060D00070BDFFF72BF8002801D10123F5E700235D
:1060E000F3E7B624A4006C432834244BE4180434AA
:1060F000200000F0A7FD002801D10020E8E7B6222B
:1061000092006A431D4B9B1899780020FFF748FACC
:10611000002801D10020DBE7B626B6006E43A62397
:106120009B009C466644154BF61840223100200027
:1061300000F0D4FD041E15D0B620800068430F4D3A
:106140002D18A978230032000020FFF7A3FA0028B9
:1061500001D02000BCE7C82209490A48FEF7B4F87C
:106160000020B5E7B62080006843044D2D18A978BB
:106170000020FFF75BFA0020AAE7C046480600208F
:10618000F08200105881001070B50500B624A400FC
:1061900044432834094BE418043492B2200000F040
:1061A000D8FD0600200000F04DFD3F2801D830004A
:1061B00070BD2800FFF782FFF9E7C04648060020BF
:1061C00010B5B6239B0058432830034BC018043049
:1061D00000F053FD10BDC04648060020F0B5CE4685
:1061E000474680B583B0B622920000212848FDF7CB
:1061F0001BFF0026002E04D003B0C0BCB946B04639
:10620000F0BD234FB624A40074433D19FF236B71E6
:10621000002398461F4AEA8001222A81AB72EB7262
:1062200008232B7321004831C919F83399462000FF
:106230001030C0194346009301334A4600F0C9FCB0
:1062400021004931FF31C91920002830C01904301C
:10625000012300934A4600F0BCFC92239B00E31804
:106260009946B9444846FAF7D1FF43466B624B461C
:10627000AB6294239B009C466444E4192000FAF727
:10628000C5FF2C6443466B640136F6B2B2E7C046E4
:106290004806002000C2FFFF70B50025002D00D089
:1062A00070BDB624A4006C430B4EA019052200213A
:1062B000FDF7BAFE20001030801900F04FFD2834A1
:1062C000A4190434200000F049FD0121200000F051
:1062D0006BFD0135EDB2E1E748060020F0B583B073
:1062E00006004B79022B68D18B79022B69D10023F0
:1062F000002B08D00027002F13D08B783B700C7830
:106300000C19092519E0B624A4005C432E48001995
:106310008078002802D00133DBB2E9E72A4FE71981
:10632000E9E78F22520029492948FDF7CDFF0025D2
:1063300044E021784D19ADB264186378242B01D163
:106340009542F6D9052B09D06378042B02D16379E5
:106350000A2B18D03800FFF74BFE2FE02100300049
:10636000FFF7ACF8002806D0A3787B702278551987
:10637000ADB2A418E8E79922520014491448FDF779
:10638000A3FF00251AE021784D19ADB26118BB1C9E
:106390000193FB1C0093022302223000FFF7BAF89E
:1063A000002802D00E35ADB2D4E7A1225200074931
:1063B0000748FDF789FF002500E00025280003B00D
:1063C000F0BD0025FAE7C04648060020E482001030
:1063D00058810010F8B51400127860231340202B68
:1063E00000D07FE0444A0025002D00D07CE01678E4
:1063F000277963791B023B439E4206D00135EDB2FB
:10640000B6239B009C466244EEE76378222B31D092
:1064100009D8202B11D0212B03D1002923D0012012
:1064200061E000205FE0232B05D1002949D002293B
:106430004CD0012057E0002055E0002903D002296C
:1064400008D001204FE0063207232100FFF7E0FCCF
:10645000012048E0294B002B48D0911D2800FDF772
:10646000A7FF01203FE0063207232100FFF7D0FC01
:10647000012038E0002903D0022906D0012032E0B3
:106480002100FFF7A9FC01202DE0A178E3781B0291
:106490000B430120190001400E005C0804401371F9
:1064A0004B425941C9B22C32100000F07DFC144B14
:1064B000002B1DD022003100280000E000BF012089
:1064C00011E02100FFF788FC01200CE00D4B002BB0
:1064D00010D0A378E17809021943280000E000BF3A
:1064E000012000E00020F8BD0020FCE70120FAE7D1
:1064F0000120F8E70120F6E748060020B14300102C
:106500000000000000000000F0B5D64600B582B0E3
:1065100001900F0000930024002C0DD0002C19D105
:10652000EB78BB421ED0AB78BB4255D00124200093
:1065300002B080BCBA46F0BDB625AD0065433D4B08
:10654000ED18EB78BB42E9D0AB78BB42E6D0013422
:10655000E4B2E1E7B022FF3237493848FDF7B4FE34
:106560000024E4E710239A46AA4496239B00E918E6
:106570006B461A88504600F0ECFB314B002B1BD0C9
:106580006B79FF2B18D0002600E00136009B9E425D
:1065900012D26A79AB19962189008C4663441B7824
:1065A0009A42F2D1504600F060FB0028EDD16979A3
:1065B000200000E000BFE8E7224B002B04D050464B
:1065C00000F053FB002803D02800FFF711FDAAE7D5
:1065D000200000E000BFF7E71B4B002B02D020009B
:1065E00000E000BF2000FFF769FD002801D0012472
:1065F0009DE728002C3000F025FB002815D1009BDA
:10660000002B14D09B0601D0012490E7A9780198B3
:10661000FEF7C6FF041E01D1012488E7A9780023F4
:1066200000220198FFF736F881E701247FE7012473
:106630007DE7C04648060020D48200105881001033
:1066400000000000000000000000000010B5002065
:10665000FEF77AFD041E01D0200010BD2922024958
:106660000248FDF731FEF7E71C8300105881001047
:1066700010B5FEF763FD002800D0012010BD00001A
:1066800010B502794479072323401B021A43C378CB
:106690009B079B0F022B16D0032B2ED0012B01D072
:1066A000002010BD022904D01C4B934204D30120CA
:1066B000F7E78023DB00F8E7502219491948FDF776
:1066C00003FE0020EDE7022903D0402A0ED8012066
:1066D000E7E780239B009A4201D10120E1E758229D
:1066E0000F491048FDF7F0FD0020DAE75C220C4965
:1066F0000C48FDF7E9FD0020D3E7022904D0402330
:10670000934204D30120CCE78023DB00F8E7632227
:1067100003490448FDF7D8FD0020C2E7FF0300004D
:10672000088300105881001070B5002503E00E7832
:10673000AD19ADB2891995420AD24C78052CF6D123
:106740008E787A34344064000419F609A355EEE7D4
:1067500070BD03008A1890B2884202D39A89904291
:1067600002D95A89801880B2704710B503008A4256
:1067700004D8881A80B29C89A04204D9891A89B2A7
:106780005889081A80B210BD838801E0C91A89B2FD
:106790008B42FBD908007047F0B583B00600019129
:1067A00011001F00D41AA4B29A4202D24389E41AFB
:1067B000A4B2B588A54205D22A003000FFF7D5FF64
:1067C00030822C00002C02D1002003B0F0BD390033
:1067D0003000FFF7D9FF3168F2885043091801985B
:1067E000FDF728FC0120F0E7F0B583B00600930820
:1067F0000CE00B784D782D021D438C782404254342
:10680000CB781B062B43336004313B005F1EBFB2C5
:10681000002BEED10333100018401A4201D103B00F
:10682000F0BD00230193020001A8FDF703FC019BCA
:106830003360F4E7F0B5DE4657464E464546E0B5D0
:1068400083B005008A460CA909788488E01A80B2D2
:106850001C1B1419A4B2EE8807007743BFB274431F
:10686000A4B2A34673432C68A0469844002908D0DC
:1068700001291AD003B0F0BCBB46B246A946A046D7
:10688000F0BD904205D3724341465046FDF7D2FB1E
:10689000F0E73A0041465046FDF7CCFB2968380046
:1068A00050445A46FDF7C6FBE4E7904206D37243D4
:1068B00092B241465046FFF797FFDBE703233A00C9
:1068C0009A43914641465046FFF78EFF43464B445C
:1068D00003213A000A400F4230D00421891A89B2BC
:1068E000081C594500D95846C7B2FF2101405846F7
:1068F000441AA1B28B460021019101A804E01A7844
:10690000027001300A000133511EC9B2002AF6D1CB
:10691000296804E00A78027001301F0001317B1EF3
:10692000DBB2002FF6D15346019A1A605B46002B6A
:10693000A0D05A465046FFF757FF9BE72968F5E776
:10694000F0B585B00500029103920AAA11880BAA3E
:1069500017785C1AA4B28B4202D24289A41AA4B25C
:10696000AE88A64208D2320019002800FFF7FDFECB
:106970002882298A89B23400002C0DD0039B9C42C6
:1069800000D31C002800FFF7FFFE03000097220041
:1069900002992800FFF74EFF200005B0F0BDF0B5CA
:1069A00083B004000D0016001F008069002803D08A
:1069B0000121494200F0CCFAE3899BB2228A019777
:1069C0000092320029002000FFF7BAFF0500218A5B
:1069D00089B202002000FFF7BCFE2082A0690028D7
:1069E00001D000F095FA280003B0F0BD70B582B078
:1069F0001600950809E00B6803701D0A45701D0C10
:106A000085701B0EC370043025006C1EA4B2002DCF
:106A1000F1D1032332001A401E4201D102B070BDF1
:106A20000B68019301A9FDF705FBF7E7F0B5DE461A
:106A300057464E464546E0B583B005008A460CA948
:106A40000878AC88E11A89B21C1B1419A4B2EE882C
:106A50000F007743BFB27443A4B2A34673432C68BC
:106A6000A0469844002808D001281AD003B0F0BCF2
:106A7000BB46B246A946A046F0BD914205D372433B
:106A800051464046FDF7D6FAF0E73A0051464046F7
:106A9000FDF7D0FA2868390051445A46FDF7CAFA82
:106AA000E4E7914206D3724392B251464046FFF763
:106AB0009DFFDBE703233A009A4391465146404647
:106AC000FFF794FF43464B4403213A000A400F422C
:106AD0002ED00421891A89B2081C594500D958467C
:106AE000C7B2FF2101405846441AA1B28B46514615
:106AF0000968019101A904E00A781A7001310200C5
:106B00000133501EC0B2002AF6D1286804E00A788A
:106B1000027001311F0001307B1EDBB2002FF6D165
:106B20005B46002BA2D05A465146FFF75FFF9DE718
:106B30002868F5E7F0B5CE4600B584B00400894674
:106B4000151E039343D04069002803D00121494218
:106B500000F0FEF9E789BFB2238A9BB2227A002AAD
:106B60002AD1A288F91A89B29F4202D26389C91A2E
:106B700089B2531A9BB22E1C9D4200D91E1CB6B27C
:106B800039002000FFF700FE0300039A0092320054
:106B900049462000FFF74AFF320039002000FFF786
:106BA000D8FDE0816069002801D000F0B1F9300023
:106BB00004B080BCB946F0BDA688AE4205D8AA1B79
:106BC000E5885543A9441F00DAE72E00D8E71600F0
:106BD000EDE7F0B583B005000F001400019308AB9A
:106BE0001E7880231B029A4228D84069002803D0CF
:106BF0000121494200F0ACF9A869002803D0012125
:106C0000494200F0A5F92F60AC80019BEB802E7209
:106C10006400013CA4B2AC81E4436C810023EB81AD
:106C20002B826869002801D000F072F9A869002859
:106C300006D000F06DF9012003B0F0BD0020FBE7A5
:106C40000120F9E710B5C3899CB2028A91B29B1A60
:106C50009BB28C4202D242899B1A9BB28288101C42
:106C60009A4200D9181C80B210BD0300C0891B8A4B
:106C7000C01A43425841C0B2704730B5C3899DB273
:106C8000018A8CB282885B1A9BB2A54202D24089EB
:106C90001B1A9BB2D01A80B230BD70B504000D0033
:106CA0008069002803D00121494200F051F9E289AE
:106CB00092B2238A9BB229002000FFF76DFD0500E8
:106CC000218A89B282B22000FFF743FD2082A069A9
:106CD000002801D000F01CF9280070BD10B5002379
:106CE000FFF75DFE10BD70B504000D00406900287F
:106CF00003D00121494200F02BF9E3899EB2228A98
:106D000091B29B1A9BB2B14202D962899B1A9BB283
:106D1000A2889A4202D1207A002817D031002000A0
:106D2000FFF732FDE288504323689C466044290007
:106D3000FDF780F9012231002000FFF70AFDE08114
:106D40006069002803D000F0E3F8012070BD012045
:106D5000FCE710B50023FFF7EDFE10BD10B50400F1
:106D60004069002803D00121494200F0F1F8A069F0
:106D7000002803D00121494200F0EAF80023E38112
:106D80002382A3885B00013B9BB2A381DB43638129
:106D90006069002801D000F0BBF8A069002801D08C
:106DA00000F0B6F8012010BD70B504000D00406978
:106DB000002803D00121494200F0CAF8A069002848
:106DC00003D00121494200F0C3F825726069002810
:106DD00001D000F09DF8A069002801D000F098F8DB
:106DE000012070BD10B5024800F034F810BDC04657
:106DF0005C10002010B5002901D000230AE0114BDF
:106E0000114A1F311148FAF747FC00240DE03732D0
:106E1000C25401334A1E9A420FD90F2B0DD85A087B
:106E20000B4CA25CDC07F0D40424224114000F2296
:106E30002240092AEBDC3032EAE7C0180023037055
:106E400010BDC046288300107483001030830010EA
:106E50005C10002070B588B0040004AD00260496D4
:106E60000922002105A8FDF7DFF80096092200217C
:106E700001A8FDF7D9F84B232B700D226946280095
:106E800000F03EF8002304E05A1D69468A5CE25493
:106E90000133072BF8DD08B070BD000010B5830783
:106EA0000AD00300032102E001330B4205D01A7817
:106EB000002AF9D1181A10BD030019680C4A0D4CAC
:106EC0008A188A4322420FD15968094A04338A1822
:106ED0008A43224208D15968054A04338A188A43F2
:106EE0002242F1D000E001331A78002AFBD1E1E719
:106EF000FFFEFEFE80808080F8B5C04600000000E6
:106F000001B40248844601BC604700BF050300206D
:106F100001B40248844601BC604700BF5102002012
:106F200001B40248844601BC604700BFDD03002075
:106F300001B40248844601BC604700BFDD03002065
:106F400001B40248844601BC604700BF090100202B
:106F500001B40248844601BC604700BFDD01002047
:106F600001B40248844601BC604700BFC100002054
:106F7000486F6C612C204D756E646F21000000001D
:106F80004E6F207370696E6C6F636B7320617265F6
:106F900020617661696C61626C65000072742D3EDF
:106FA000616C61726D5F6964203D3D206964000021
:106FB000433A5C41524D5C73646B5C7069636F5C17
:106FC0007069636F2D73646B5C7372635C636F6D68
:106FD0006D6F6E5C7069636F5F74696D655C746919
:106FE0006D652E6300000000696420262620696418
:106FF000203C3D20706F6F6C2D3E686561702D3EAA
:107000006D61785F6E6F646573000000256C6C6461
:1070100020286869202530327829000069642026FC
:1070200026206964203C3D20686561702D3E6D61BD
:10703000785F6E6F64657300433A5C41524D5C73D8
:10704000646B5C7069636F5C7069636F2D73646BF4
:107050005C7372635C636F6D6D6F6E5C7069636FA0
:107060005F7574696C5C696E636C7564652F7069BB
:10707000636F2F7574696C2F70686561702E68007E
:10708000706172656E745F69640000006368696CAA
:10709000645F696400000000706172656E745F690E
:1070A0006420213D206368696C645F6964000000AE
:1070B0002170685F636F6E7461696E735F6E6F6479
:1070C0006528706F6F6C2D3E686561702C2072654D
:1070D0007573655F6964290075735F73696E6365B5
:1070E0005F626F6F74203C3D20494E5436345F4DD3
:1070F00041580000433A5C41524D5C73646B5C70D4
:1071000069636F5C7069636F2D73646B5C7372632A
:107110005C636F6D6D6F6E5C7069636F5F626173EE
:10712000655C696E636C7564652F7069636F2F743D
:10713000797065732E68000072656D6F7665645FA7
:107140006964203D3D206E6578745F6964000000CD
:1071500063616C6C6261636B00000000706F6F6C48
:107160002D3E616C61726D5F696E5F70726F6772E8
:10717000657373203D3D206D616B655F7075626C5A
:1071800069635F69642869645F686967682C206E59
:107190006578745F6964290069642026262021705F
:1071A000685F636F6E7461696E735F6E6F6465288C
:1071B000686561702C20696429000000646566615F
:1071C000756C745F616C61726D5F706F6F6C5F691D
:1071D0006E697469616C697A656428290000000031
:1071E000616C61726D5F696420213D20706F6F6C0E
:1071F0002D3E616C61726D5F696E5F70726F677258
:107200006573730072630000417474656D7074651A
:107210006420746F20736C65657020696E73696497
:1072200065206F6620616E20657863657074696F94
:107230006E2068616E646C65723B207573652062B8
:107240007573795F7761697420696620796F75203D
:107250006D75737400000000616C61726D5F706F1A
:107260006F6C5F63616E63656C5F616C61726D0012
:107270007570646174655F75735F73696E63655F74
:10728000626F6F7400000000616C61726D5F706FFF
:107290006F6C5F616C61726D5F63616C6C62616386
:1072A0006B0000006765745F656E747279000000A2
:1072B000616C61726D5F706F6F6C5F6765745F6446
:1072C000656661756C7400006765745F656E7472E5
:1072D000795F69645F6869676800000070685F666D
:1072E0007265655F6E6F64650000000070685F61C5
:1072F00064645F6368696C645F6E6F64650000005E
:1073000070685F696E736572745F6E6F64650000AC
:1073100070685F6765745F6E6F6465006164645F69
:10732000616C61726D5F756E6465725F6C6F636BCB
:1073300000000000486172647761726520616C61D1
:10734000726D20256420616C726561647920636CC4
:1073500061696D656400000074696D65725F6877CE
:107360002D3E696E74732026203175203C3C2061CF
:107370006C61726D5F6E756D00000000433A5C4198
:10738000524D5C73646B5C7069636F5C7069636FB2
:107390002D73646B5C7372635C7270325F636F6DCC
:1073A0006D6F6E5C68617264776172655F74696D40
:1073B00065725C74696D65722E6300006861726449
:1073C000776172655F616C61726D5F7365745F7424
:1073D0006172676574000000746F74616C00000076
:1073E000433A5C41524D5C73646B5C7069636F5CE3
:1073F0007069636F2D73646B5C7372635C636F6D34
:107400006D6F6E5C7069636F5F73796E635C6D75D1
:107410007465782E630000006D74782D3E636F7282
:10742000652E7370696E5F6C6F636B006C6F636B5E
:107430005F69735F6F776E65725F69645F76616CB9
:107440006964286D74782D3E6F776E65722900002F
:107450006D74782D3E656E7465725F636F756E74C2
:10746000000000006D757465785F657869740000D0
:107470006D757465785F656E7465725F626C6F635D
:107480006B5F756E74696C007570646174655F75AF
:10749000735F73696E63655F626F6F7400000000F5
:1074A000726F6F745F696400433A5C41524D5C7364
:1074B000646B5C7069636F5C7069636F2D73646B80
:1074C0005C7372635C636F6D6D6F6E5C7069636F2C
:1074D0005F7574696C5C70686561702E6300000094
:1074E0002170685F6765745F6E6F646528686561A9
:1074F000702C20726F6F745F6964292D3E7369620E
:107500006C696E67000000002170685F6765745FDA
:107510006E6F646528686561702C20726F6F745F90
:107520006964292D3E706172656E7400666F756EB8
:10753000640000006E65775F7375625F74726565E5
:1075400020213D20686561702D3E726F6F745F6908
:107550006400000070685F72656D6F76655F616ED4
:10756000645F667265655F6E6F64650070685F7208
:10757000656D6F76655F616E795F68656164000057
:1075800070685F6164645F6368696C645F6E6F6498
:107590006500000070685F6765745F6E6F6465000A
:1075A0002C2066756E6374696F6E3A2000000000CF
:1075B000617373657274696F6E2022257322206671
:1075C00061696C65643A2066696C652022257322C6
:1075D0002C206C696E65202564257325730A0000D4
:1075E00031203D3D202875696E747074725F742976
:1075F0006C2D3E7370696E5F6C6F636B00000000F2
:10760000433A5C41524D5C73646B5C7069636F5CC0
:107610007069636F2D73646B5C7372635C7270323C
:107620005F636F6D6D6F6E5C7069636F5F72756EB7
:1076300074696D655C72756E74696D652E630000AA
:107640000A2A2A2A2050414E4943202A2A2A0A007F
:107650000A00000072756E74696D655F696E697409
:10766000000000007372635F66726571203E3D200A
:107670006672657100000000433A5C41524D5C73D4
:10768000646B5C7069636F5C7069636F2D73646BAE
:107690005C7372635C7270325F636F6D6D6F6E5C92
:1076A00068617264776172655F636C6F636B735C52
:1076B000636C6F636B732E6300000000636C6F6319
:1076C0006B5F636F6E66696775726500212864651C
:1076D0006C7461203E3E203131752900433A5C4193
:1076E000524D5C73646B5C7069636F5C7069636F4F
:1076F0002D73646B5C7372635C7270325F636F6D69
:107700006D6F6E5C68617264776172655F697271DA
:107710005C6972712E63000063757272656E74200D
:107720003D3D205F5F756E68616E646C65645F757A
:107730007365725F697271207C7C206375727265FB
:107740006E74203D3D2068616E646C6572000000BF
:107750006972715F68616E6465725F636861696EAA
:107760005F667265655F736C6F745F6865616420E6
:107770003E3D203000000000767461626C655F68F9
:10778000616E646C6572203D3D205F5F756E68615F
:107790006E646C65645F757365725F697271000019
:1077A000212828282875696E747074725F74297690
:1077B0007461626C655F68616E646C657229202D0E
:1077C00020282875696E747074725F7429697271EB
:1077D0005F68616E646C65725F636861696E5F7338
:1077E0006C6F747329202D2031292573697A656F98
:1077F0006628737472756374206972715F68616E54
:10780000646C65725F636861696E5F736C6F742925
:107810002900000030783163203D3D20282A696E20
:107820007374293E3E313175000000002165786394
:10783000657074696F6E207C7C20657863657074F8
:10784000696F6E203D3D206E756D202B2031360016
:1078500066616C736500000069735F7368617265CF
:10786000645F6972715F7261775F68616E646C6595
:107870007228736C6F745F68616E646C6572290046
:10788000657863657074696F6E0000006972715F7E
:107890006164645F7461696C5F746F5F6672656573
:1078A0005F6C697374000000696E736572745F6267
:1078B00072616E63685F616E645F6C696E6B00001D
:1078C0006972715F72656D6F76655F68616E646C19
:1078D000657200006D616B655F6272616E63680066
:1078E0007265736F6C76655F6272616E63680000CB
:1078F0006972715F7365745F6578636C75736976BF
:10790000655F68616E646C65720000006662646940
:1079100076203E3D20313620262620666264697638
:10792000203C3D2033323000433A5C41524D5C7381
:10793000646B5C7069636F5C7069636F2D73646BFB
:107940005C7372635C7270325F636F6D6D6F6E5CDF
:1079500068617264776172655F706C6C5C706C6C8E
:107960002E63000028706F73745F64697631203E67
:107970003D203120262620706F73745F6469763154
:10798000203C3D2037292026262028706F73745F05
:1079900064697632203E3D203120262620706F73A8
:1079A000745F64697632203C3D2037290000000076
:1079B000706F73745F64697632203C3D20706F7322
:1079C000745F6469763100007265665F6D687A2065
:1079D0003C3D202876636F5F66726571202F2031F1
:1079E00036290000706C6C5F696E697400000000DD
:1079F000666E6900666E692B000000006E616E00A5
:107A0000666E692D00000000DE2B00108E2B00102A
:107A10008E2B0010E82B00108E2B00108E2B0010E8
:107A20008E2B00108E2B00108E2B00108E2B001032
:107A30008E2B0010D42B00108E2B0010CA2B0010A0
:107A40008E2B00108E2B0010C02B0010802C0010ED
:107A5000A62C0010BE2C0010A62C0010602C0010CC
:107A6000A62C0010A62C0010A62C0010A62C00108E
:107A7000A62C0010A62C0010A62C00109C2C001088
:107A8000A62C0010A62C0010A62C0010A62C00106E
:107A9000A62C0010CA2C0010FA3000101031001073
:107AA0001031001010310010103100101031001092
:107AB0001031001010310010103100101031001082
:107AC0001031001010310010103100101031001072
:107AD0001031001010310010103100101031001062
:107AE0001031001010310010103100101031001052
:107AF0001031001010310010103100101031001042
:107B00001031001010310010103100101031001031
:107B10001031001010310010222F0010E22E001042
:107B2000222F001010310010103100101031001001
:107B30001031001010310010103100101031001001
:107B400010310010103100101031001010310010F1
:107B500010310010103100101031001010310010E1
:107B600010310010D62C0010103100101031001010
:107B700010310010103100101031001010310010C1
:107B8000103100101031001010310010D62C0010F0
:107B9000722F0010D62C0010222F0010E22E0010A1
:107BA000222F001010310010D62C001010310010C0
:107BB0001031001010310010103100101031001081
:107BC000D62C0010C43000101031001010310010FD
:107BD000EA2F001010310010D62C001010310010C8
:107BE00010310010D62C0010000000000000F03F03
:107BF0000000000000002440000000000000594088
:107C00000000000000408F40000000000088C340DA
:107C100000000000006AF8400000000080842E414F
:107C200000000000D01263410000000084D797419B
:107C30000000000065CDCD412A282875696E743892
:107C40005F74202A29282828766F6964202A2972DF
:107C50006F6D5F646174615F6C6F6F6B75702872BC
:107C60006F6D5F7461626C655F636F646528275335
:107C7000272C202746272929292D322929202A2067
:107C800034203E3D2053465F5441424C455F5632BE
:107C90005F53495A45000000433A5C41524D5C73C2
:107CA000646B5C7069636F5C7069636F2D73646B88
:107CB0005C7372635C7270325F636F6D6D6F6E5C6C
:107CC0007069636F5F646F75626C655C646F756229
:107CD0006C655F696E69745F726F6D2E6300000082
:107CE0005F5F61656162695F646F75626C655F6942
:107CF0006E6974002A282875696E74385F74202AAA
:107D00002928726F6D5F7461626C652D322929209C
:107D10002A2034203E3D2053465F5441424C455F6B
:107D200056325F53495A4500433A5C41524D5C73A9
:107D3000646B5C7069636F5C7069636F2D73646BF7
:107D40005C7372635C7270325F636F6D6D6F6E5CDB
:107D50007069636F5F666C6F61745C666C6F617491
:107D60005F696E69745F726F6D2E63005F5F61653E
:107D70006162695F666C6F61745F696E697400004F
:107D80004465627567000000626F6F74325F77321E
:107D90003571303830000000302E3100312E332E56
:107DA000300000007069636F000000005465737458
:107DB0000000000044656320323820323032310048
:107DC00006005250BBFF3CB6A47D00100600525086
:107DD0003ABCA911987D001006005250E182887FBC
:107DE000887D001006005250D3F07542807D00104F
:107DF0000D0A0000E9420010ED420010F9420010A7
:107E0000494300102D43001000000000555342204C
:107E1000737464696E202F207374646F757400002E
:107E20000600525053B4F4A10C7E001075706461CA
:107E300074655F75735F73696E63655F626F6F749E
:107E4000000000005261737062657272792050699F
:107E5000000000005069636F00000000426F617213
:107E600064204344430000005265736574000000C1
:107E700009025400030100807D080B000202020089
:107E8000000904000001020200040524002001058D
:107E900024010001042402020524060001070581D3
:107EA0000308001009040100020A0000000705028F
:107EB00002400000070582024000000904020000A1
:107EC000FF00010512010002EF0201408A2E0A00A4
:107ED000000101020301000000000000447E0010C8
:107EE000547E0010841200205C7E0010687E00101A
:107EF000282875696E747074725F7420296E6578B5
:107F0000745F6275666665725F70747220262030D9
:107F1000623131313131317529203D3D2030000051
:107F2000433A5C41524D5C73646B5C7069636F5C97
:107F30007069636F2D73646B5C6C69625C74696EED
:107F4000797573625C7372635C706F727461626C7A
:107F5000655C72617370626572727970695C72706F
:107F6000323034305C6463645F7270323034302E8F
:107F70006300000068775F646174615F6F666673B9
:107F80006574286E6578745F6275666665725F7089
:107F9000747229203C3D205553425F445052414D5C
:107FA0005F4D415800000000556E68616E646C655D
:107FB000642049525120307825780A007268706F29
:107FC0007274203D3D2030006463645F65647074AA
:107FD0005F786665720000006463645F6564707456
:107FE0005F6F70656E0000006463645F7365745F4B
:107FF00061646472657373006463645F696E745F67
:10800000656E61626C6500005F68775F656E6470C5
:108010006F696E745F616C6C6F6300006463645FB2
:10802000696E69740000000021286275665F6374E0
:10803000726C2026205553425F4255465F4354528E
:108040004C5F46554C4C2900433A5C41524D5C73A1
:10805000646B5C7069636F5C7069636F2D73646BD4
:108060005C6C69625C74696E797573625C7372636F
:108070005C706F727461626C655C72617370626572
:1080800072727970695C7270323034305C72703246
:108090003034305F7573622E630000006275665F76
:1080A0006374726C2026205553425F4255465F43ED
:1080B00054524C5F46554C4C000000006570202522
:1080C000642025732077617320616C726561647927
:1080D00020617661696C61626C6500005741524EA7
:1080E0003A207374617274696E67206E65772074CC
:1080F00072616E73666572206F6E20616C7265616D
:108100006479206163746976652065702025642038
:1081100025730A0043616E277420636F6E74696E65
:1081200075652078666572206F6E20696E61637474
:1081300069766520657020256420257300000000A5
:108140006F757400696E000073796E635F65705FB0
:10815000627566666572000025732025643A2041C9
:108160005353455254204641494C45440D0A0000A2
:10817000E85000104650001076500010B250001029
:10818000E8500010E8500010CE500010765000105B
:10819000E8500010E8500010E8500010E8500010BF
:1081A000E8500010E8500010E8500010585000103F
:1081B0006A59001044590010205B00101E5900102D
:1081C000205B00108658001012590010205B001030
:1081D000A2580010BA580010865B0010785B00109F
:1081E000CA5B00103A5D0010B65C0010D65C00104F
:1081F000DE5B00102A5C00103E5D00107573626447
:108200005F656470745F78666572000075736264A0
:108210005F656470745F6F70656E00007573626493
:108220005F6F70656E5F656470745F706169720026
:108230006F73616C5F71756575655F73656E640002
:1082400070726F636573735F6765745F6465736392
:10825000726970746F72000070726F636573735F20
:108260007365745F636F6E666967000070726F6339
:108270006573735F636F6E74726F6C5F7265717537
:10828000657374007475645F7461736B0000000043
:10829000DD61001099620010DD620010D5630010EE
:1082A0000965001000000000757362645F636F6E03
:1082B00074726F6C5F786665725F636200000000C5
:1082C0007475645F636F6E74726F6C5F78666572ED
:1082D00000000000636463645F786665725F6362D8
:1082E00000000000636463645F6F70656E000000EF
:1082F0007475645F6364635F6E5F77726974655FF2
:10830000666C75736800000074755F656470745FF7
:1083100076616C6964617465000000007475736255
:108320005F696E69740000006C656E203E2030004D
:10833000433A5C41524D5C73646B5C7069636F5C83
:108340007069636F2D73646B5C7372635C727032FF
:108350005F636F6D6D6F6E5C7069636F5F756E6983
:108360007175655F69645C756E697175655F696477
:108370002E6300007069636F5F6765745F756E6977
:108380007175655F626F6172645F69645F73747257
:10839000696E6700666C6173685F6F666673202B39
:1083A00020636F756E74203C3D205049434F5F46FB
:1083B0004C4153485F53495A455F42595445530015
:1083C000433A5C41524D5C73646B5C7069636F5CF3
:1083D0007069636F2D73646B5C7372635C7270326F
:1083E0005F636F6D6D6F6E5C6861726477617265FB
:1083F0005F666C6173685C666C6173682E63000015
:10840000636F6E6E6563745F696E7465726E616CC6
:108410005F666C61736820262620666C6173685FF6
:10842000657869745F78697020262620666C6173B0
:10843000685F72616E67655F65726173652026268D
:1084400020666C6173685F666C7573685F636163F7
:1084500068650000636F6E6E6563745F696E746556
:10846000726E616C5F666C61736820262620666C94
:108470006173685F657869745F786970202626206B
:10848000666C6173685F72616E67655F70726F675B
:1084900072616D20262620666C6173685F666C755C
:1084A00073685F636163686500000000636F6E6EF0
:1084B0006563745F696E7465726E616C5F666C6132
:1084C000736820262620666C6173685F657869741E
:1084D0005F78697020262620666C6173685F666C21
:1084E0007573685F6361636865000000666C617343
:0C84F000685F646F5F636D640000000053
:1084FC00B4020010A80200109C020010C07D0010F5
:10850C0090020010CC7D0010D87D0010E47D00108E
:04851C00207E0010AD
:1085200010B5D0231B0600241C570268EFF31081FE
:1085300072B61368002BFCD0BFF35F8F0423C356C1
:10854000002B08DB0368BFF35F8F00221A6081F302
:10855000108820BFE9E704710368BFF35F8F002232
:108560001A6081F3108810BD03000068EFF3108CCF
:1085700072B60268002AFCD0BFF35F8F04229A56BD
:10858000002A0BDB002910D00A6000201B68BFF313
:108590005F8F00221A608CF310887047D022120679
:1085A000127852B21A710120F0E70020EEE70000C5
:1085B000F8B5CE46474680B50400170098460368D4
:1085C000002B20D0D0231B061B785BB2994626686F
:1085D000EFF3108C72B63568002DFCD0BFF35F8FBF
:1085E00004256557002D14DB2368BFF35F8F00223D
:1085F0001A608CF310883800414600F021F90028F9
:10860000E5D000200FE00A4B0A4A7A210A4800F020
:108610001FF94B4623712368BFF35F8F00221A6056
:108620008CF310880120C0BCB946B046F8BDC046E6
:108630001874001070740010E0730010F0B5C64696
:1086400000B582B00700884600F00AF904000D1E4C
:108650001CDB0190FA22920000234046002100F02A
:1086600007F922002B0012184B419D4202D804D179
:10867000944202D901225242D317002B0CDB38005E
:10868000FFF796FF02B080BCB846F0BD054B064A26
:108690003F21064800F0DCF8024B034A3F21034823
:1086A00000F0D6F8D870001088740010F470001034
:1086B00010B50268EFF3108172B61368002BFCD07E
:1086C000BFF35F8F0423C356002B0ADBFF23037124
:1086D0000368BFF35F8F00221A6081F3108840BFE8
:1086E00010BD034B034AA921034800F0B1F8C0466E
:1086F0002C74001064740010E0730010094B1B7898
:10870000002B08D00CE09A00802149055118086818
:108710000549505001333F2BF5DD024B01221A7001
:108720007047C04697120020A80A002010B5024BDF
:108730000133984710BDC046A80A002000280AD07F
:1087400003231B02054A12685340C02292001340C3
:10875000034A136070470223F3E7C0460C800140D0
:108760000C900140F0B5D6464F464646C0B50700CE
:108770000E00150018239A461B8814229046108874
:1087800028499847814653461B8842461088264907
:108790009847040053461B8842461088234998474F
:1087A00080464B46002B0CD0002C0AD0002808D065
:1087B000FFF7A4FFC847A0470020FFF7BFFF2A002C
:1087C0000FE01B4B1B4A80211B4800F041F8002B97
:1087D00007D0002A05D0C0235B051B6E3370013A19
:1087E00001362B00134312D0C0235B059C6A08237B
:1087F0002340A107EBD5002DE9D0511B0D29E6D868
:108800003878C02149050866013D0137DFE70120BE
:10881000FFF794FFC047FFF789FFE0BCBA46B146B7
:10882000A846F0BD494600004558000046430000F8
:10883000AC840010EC840010C08300107047C04668
:1088400001B40248844601BC604700BFE10E00103D
:1088500001B40248844601BC604700BF991600106D
:1088600001B40248844601BC604700BF05100010F7
:1088700001B40248844601BC604700BFB53E001009
:10888000100000003C040020000000002005002033
:10889000D40B00200000000000000000E40B0020CA
:1088A00000000000000000001000000000000000B8
:1088B00000000100000000000000000000000200B5
:1088C00000000000000000000000030000000000A5
:1088D000000000000000FF000000000000B5486834
:1088E00001318E460047704609380149884700BD6E
:1088F000051D001000000000000000000000000046
:10890000503300004C330000543300005233000059
:108910004D5300004D430000533400004334000029
:108920006944001000000000D9430010000000005E
:10893000000100004081001044810010D80900208F
:1089400010000C000000E0FF1F000000000000000D
:108950000000000000000000000000000000000017
:1089600000000000000000001940001075310010E8
:1089700085380010E93E0010ED020010E56D001092
:04000005100001E9FD
:00000001FF
